{
  "address": "0x38A3780A13528d2ea0CB666b95feEc1b32450908",
  "abi": [
    {
      "inputs": [
        {
          "internalType": "address",
          "name": "_finderAddress",
          "type": "address"
        },
        {
          "internalType": "address",
          "name": "_timerAddress",
          "type": "address"
        }
      ],
      "stateMutability": "nonpayable",
      "type": "constructor"
    },
    {
      "anonymous": false,
      "inputs": [
        {
          "indexed": true,
          "internalType": "address",
          "name": "requester",
          "type": "address"
        },
        {
          "indexed": true,
          "internalType": "bytes32",
          "name": "identifier",
          "type": "bytes32"
        },
        {
          "indexed": false,
          "internalType": "uint256",
          "name": "time",
          "type": "uint256"
        },
        {
          "indexed": false,
          "internalType": "bytes",
          "name": "ancillaryData",
          "type": "bytes"
        }
      ],
      "name": "PriceRequestAdded",
      "type": "event"
    },
    {
      "anonymous": false,
      "inputs": [
        {
          "indexed": true,
          "internalType": "address",
          "name": "pusher",
          "type": "address"
        },
        {
          "indexed": true,
          "internalType": "bytes32",
          "name": "identifier",
          "type": "bytes32"
        },
        {
          "indexed": false,
          "internalType": "uint256",
          "name": "time",
          "type": "uint256"
        },
        {
          "indexed": false,
          "internalType": "bytes",
          "name": "ancillaryData",
          "type": "bytes"
        },
        {
          "indexed": false,
          "internalType": "int256",
          "name": "price",
          "type": "int256"
        }
      ],
      "name": "PushedPrice",
      "type": "event"
    },
    {
      "inputs": [],
      "name": "getCurrentTime",
      "outputs": [
        {
          "internalType": "uint256",
          "name": "",
          "type": "uint256"
        }
      ],
      "stateMutability": "view",
      "type": "function"
    },
    {
      "inputs": [],
      "name": "getPendingQueries",
      "outputs": [
        {
          "components": [
            {
              "internalType": "bytes32",
              "name": "identifier",
              "type": "bytes32"
            },
            {
              "internalType": "uint256",
              "name": "time",
              "type": "uint256"
            },
            {
              "internalType": "bytes",
              "name": "ancillaryData",
              "type": "bytes"
            }
          ],
          "internalType": "struct MockOracleAncillary.QueryPoint[]",
          "name": "",
          "type": "tuple[]"
        }
      ],
      "stateMutability": "view",
      "type": "function"
    },
    {
      "inputs": [
        {
          "internalType": "bytes32",
          "name": "identifier",
          "type": "bytes32"
        },
        {
          "internalType": "uint256",
          "name": "time",
          "type": "uint256"
        },
        {
          "internalType": "bytes",
          "name": "ancillaryData",
          "type": "bytes"
        }
      ],
      "name": "getPrice",
      "outputs": [
        {
          "internalType": "int256",
          "name": "",
          "type": "int256"
        }
      ],
      "stateMutability": "view",
      "type": "function"
    },
    {
      "inputs": [
        {
          "internalType": "bytes32",
          "name": "identifier",
          "type": "bytes32"
        },
        {
          "internalType": "uint256",
          "name": "time",
          "type": "uint256"
        },
        {
          "internalType": "bytes",
          "name": "ancillaryData",
          "type": "bytes"
        }
      ],
      "name": "hasPrice",
      "outputs": [
        {
          "internalType": "bool",
          "name": "",
          "type": "bool"
        }
      ],
      "stateMutability": "view",
      "type": "function"
    },
    {
      "inputs": [
        {
          "internalType": "bytes32",
          "name": "identifier",
          "type": "bytes32"
        },
        {
          "internalType": "uint256",
          "name": "time",
          "type": "uint256"
        },
        {
          "internalType": "bytes",
          "name": "ancillaryData",
          "type": "bytes"
        },
        {
          "internalType": "int256",
          "name": "price",
          "type": "int256"
        }
      ],
      "name": "pushPrice",
      "outputs": [],
      "stateMutability": "nonpayable",
      "type": "function"
    },
    {
      "inputs": [
        {
          "internalType": "bytes32",
          "name": "identifier",
          "type": "bytes32"
        },
        {
          "internalType": "uint256",
          "name": "time",
          "type": "uint256"
        },
        {
          "internalType": "bytes",
          "name": "ancillaryData",
          "type": "bytes"
        }
      ],
      "name": "requestPrice",
      "outputs": [],
      "stateMutability": "nonpayable",
      "type": "function"
    },
    {
      "inputs": [
        {
          "internalType": "uint256",
          "name": "time",
          "type": "uint256"
        }
      ],
      "name": "setCurrentTime",
      "outputs": [],
      "stateMutability": "nonpayable",
      "type": "function"
    },
    {
      "inputs": [],
      "name": "timerAddress",
      "outputs": [
        {
          "internalType": "address",
          "name": "",
          "type": "address"
        }
      ],
      "stateMutability": "view",
      "type": "function"
    }
  ],
  "transactionHash": "0x57490793203085dad8807ed5102e020f74e49141d23da34b953bb3cb6c64d970",
  "args": [
    "0x2b1512553243FbfEaAa9BF613bACEd2231C9ae00",
    "0x0000000000000000000000000000000000000000"
  ],
  "solcInputHash": "87af3bddb96fa5cfcfc99d0e6fd39498",
  "bytecode": "0x608060405234801561001057600080fd5b506040516110e43803806110e483398101604081905261002f9161007f565b600080546001600160a01b039283166001600160a01b031991821617909155600180549390921692169190911790556100b1565b80516001600160a01b038116811461007a57600080fd5b919050565b60008060408385031215610091578182fd5b61009a83610063565b91506100a860208401610063565b90509250929050565b611024806100c06000396000f3fe608060405234801561001057600080fd5b50600436106100885760003560e01c8063719c6d561161005b578063719c6d56146100fb578063b551cd501461010e578063b555d60814610131578063d7d6f43d1461014657600080fd5b80631c39c38d1461008d578063216666a4146100bd57806322f8e566146100d257806329cb924d146100e5575b600080fd5b6000546100a0906001600160a01b031681565b6040516001600160a01b0390911681526020015b60405180910390f35b6100d06100cb366004610ccf565b610159565b005b6100d06100e0366004610d73565b6103cf565b6100ed610445565b6040519081526020016100b4565b6100ed610109366004610ccf565b6104e5565b61012161011c366004610ccf565b6105c8565b60405190151581526020016100b4565b61013961069c565b6040516100b49190610e86565b6100d0610154366004610d1d565b6107a1565b610161610a54565b6001600160a01b03166390978d1b846040518263ffffffff1660e01b815260040161018e91815260200190565b60206040518083038186803b1580156101a657600080fd5b505afa1580156101ba573d6000803e3d6000fd5b505050506040513d601f19601f820116820180604052508101906101de9190610caf565b6101e757600080fd5b6000838152600260209081526040808320858452909152808220905161020e908490610dcf565b908152604051908190036020019020805490915060ff1615801561026a57506000848152600360209081526040808320868452909152908190209051610255908490610dcf565b9081526040519081900360200190205460ff16155b156103c9576040805180820182526001815260045460208083019190915260008781526003825283812087825290915282902091519091906102ad908590610dcf565b90815260408051602092819003830181208451815460ff19169015151781559383015160019485015560608101825287815282810187815291810186815260048054958601815560005281517f8a35acfbc15ff81a39ae7d344fd709f28e8600b4aa8c65c6b64bfe7fe36bd19b600390960295860190815592517f8a35acfbc15ff81a39ae7d344fd709f28e8600b4aa8c65c6b64bfe7fe36bd19c86015551805191949293610381937f8a35acfbc15ff81a39ae7d344fd709f28e8600b4aa8c65c6b64bfe7fe36bd19d0192910190610ae6565b50505083336001600160a01b03167f4e8f92be7f49d3a5247918a98fff73bf4b214b2f5a2e2fe71c8666daeab4360385856040516103c0929190610f04565b60405180910390a35b50505050565b6000546001600160a01b03166103e457600080fd5b60005460405163117c72b360e11b8152600481018390526001600160a01b03909116906322f8e56690602401600060405180830381600087803b15801561042a57600080fd5b505af115801561043e573d6000803e3d6000fd5b5050505050565b600080546001600160a01b0316156104e05760008054906101000a90046001600160a01b03166001600160a01b03166329cb924d6040518163ffffffff1660e01b815260040160206040518083038186803b1580156104a357600080fd5b505afa1580156104b7573d6000803e3d6000fd5b505050506040513d601f19601f820116820180604052508101906104db9190610d8b565b905090565b504290565b60006104ef610a54565b6001600160a01b03166390978d1b856040518263ffffffff1660e01b815260040161051c91815260200190565b60206040518083038186803b15801561053457600080fd5b505afa158015610548573d6000803e3d6000fd5b505050506040513d601f19601f8201168201806040525081019061056c9190610caf565b61057557600080fd5b6000848152600260209081526040808320868452909152808220905161059c908590610dcf565b908152604051908190036020019020805490915060ff166105bc57600080fd5b60010154949350505050565b60006105d2610a54565b6001600160a01b03166390978d1b856040518263ffffffff1660e01b81526004016105ff91815260200190565b60206040518083038186803b15801561061757600080fd5b505afa15801561062b573d6000803e3d6000fd5b505050506040513d601f19601f8201168201806040525081019061064f9190610caf565b61065857600080fd5b6000848152600260209081526040808320868452909152808220905161067f908590610dcf565b9081526040519081900360200190205460ff169150509392505050565b60606004805480602002602001604051908101604052809291908181526020016000905b828210156107985783829060005260206000209060030201604051806060016040529081600082015481526020016001820154815260200160028201805461070790610f9d565b80601f016020809104026020016040519081016040528092919081815260200182805461073390610f9d565b80156107805780601f1061075557610100808354040283529160200191610780565b820191906000526020600020905b81548152906001019060200180831161076357829003601f168201915b505050505081525050815260200190600101906106c0565b50505050905090565b60405180606001604052806001151581526020018281526020016107c3610445565b905260008581526002602090815260408083208784529091529081902090516107ed908590610dcf565b90815260408051602092819003830181208451815460ff19169015151781558484015160018201559382015160029094019390935560008781526003835281812087825290925281209091610843908590610dcf565b908152604051908190036020019020805490915060ff166108c05760405162461bcd60e51b815260206004820152602d60248201527f43616e2774207075736820707269636573207468617420686176656e2774206260448201526c19595b881c995c5d595cdd1959609a1b606482015260840160405180910390fd5b600181015460008681526003602090815260408083208884529091529081902090516108ed908690610dcf565b908152604051908190036020019020805460ff1916815560006001918201819055600454909161091c91610f4e565b9050818114610a055760006004828154811061094857634e487b7160e01b600052603260045260246000fd5b6000918252602080832060039283020180548452918152604080842060018401548552909152918290209151909250849190610988906002850190610deb565b90815260200160405180910390206001018190555080600484815481106109bf57634e487b7160e01b600052603260045260246000fd5b9060005260206000209060030201600082015481600001556001820154816001015560028201816002019080546109f590610f9d565b610a00929190610b6a565b505050505b86336001600160a01b03167f766d17806eb1cbda2fa097f082481c7158f93c297beb98aafe57b78bae115d00888888604051610a4393929190610f25565b60405180910390a350505050505050565b6001546040516302abf57960e61b8152721259195b9d1a599a595c95da1a5d195b1a5cdd606a1b60048201526000916001600160a01b03169063aafd5e409060240160206040518083038186803b158015610aae57600080fd5b505afa158015610ac2573d6000803e3d6000fd5b505050506040513d601f19601f820116820180604052508101906104db9190610c81565b828054610af290610f9d565b90600052602060002090601f016020900481019282610b145760008555610b5a565b82601f10610b2d57805160ff1916838001178555610b5a565b82800160010185558215610b5a579182015b82811115610b5a578251825591602001919060010190610b3f565b50610b66929150610be5565b5090565b828054610b7690610f9d565b90600052602060002090601f016020900481019282610b985760008555610b5a565b82601f10610ba95780548555610b5a565b82800160010185558215610b5a57600052602060002091601f016020900482015b82811115610b5a578254825591600101919060010190610bca565b5b80821115610b665760008155600101610be6565b600082601f830112610c0a578081fd5b813567ffffffffffffffff80821115610c2557610c25610fd8565b604051601f8301601f19908116603f01168101908282118183101715610c4d57610c4d610fd8565b81604052838152866020858801011115610c65578485fd5b8360208701602083013792830160200193909352509392505050565b600060208284031215610c92578081fd5b81516001600160a01b0381168114610ca8578182fd5b9392505050565b600060208284031215610cc0578081fd5b81518015158114610ca8578182fd5b600080600060608486031215610ce3578182fd5b8335925060208401359150604084013567ffffffffffffffff811115610d07578182fd5b610d1386828701610bfa565b9150509250925092565b60008060008060808587031215610d32578081fd5b8435935060208501359250604085013567ffffffffffffffff811115610d56578182fd5b610d6287828801610bfa565b949793965093946060013593505050565b600060208284031215610d84578081fd5b5035919050565b600060208284031215610d9c578081fd5b5051919050565b60008151808452610dbb816020860160208601610f71565b601f01601f19169290920160200192915050565b60008251610de1818460208701610f71565b9190910192915050565b600080835482600182811c915080831680610e0757607f831692505b6020808410821415610e2757634e487b7160e01b87526022600452602487fd5b818015610e3b5760018114610e4c57610e78565b60ff19861689528489019650610e78565b60008a815260209020885b86811015610e705781548b820152908501908301610e57565b505084890196505b509498975050505050505050565b60006020808301818452808551808352604092508286019150828160051b870101848801865b83811015610ef657888303603f1901855281518051845287810151888501528601516060878501819052610ee281860183610da3565b968901969450505090860190600101610eac565b509098975050505050505050565b828152604060208201526000610f1d6040830184610da3565b949350505050565b838152606060208201526000610f3e6060830185610da3565b9050826040830152949350505050565b600082821015610f6c57634e487b7160e01b81526011600452602481fd5b500390565b60005b83811015610f8c578181015183820152602001610f74565b838111156103c95750506000910152565b600181811c90821680610fb157607f821691505b60208210811415610fd257634e487b7160e01b600052602260045260246000fd5b50919050565b634e487b7160e01b600052604160045260246000fdfea264697066735822122092d360ff178576c65635f056408cc74a796a3c291c5d5165ab7e2e3ec218838464736f6c63430008040033",
  "devdoc": {
    "kind": "dev",
    "methods": {
      "getCurrentTime()": {
        "returns": {
          "_0": "uint for the current Testable timestamp."
        }
      },
      "getPrice(bytes32,uint256,bytes)": {
        "details": "If the price is not available, the method reverts.",
        "params": {
          "ancillaryData": "arbitrary data appended to a price request to give the voters more info from the caller.",
          "identifier": "uniquely identifies the price requested. eg BTC/USD (encoded as bytes32) could be requested.",
          "time": "unix timestamp for the price request."
        },
        "returns": {
          "_0": "int256 representing the resolved price for the given identifier and timestamp."
        }
      },
      "hasPrice(bytes32,uint256,bytes)": {
        "details": "Time must be in the past and the identifier must be supported.",
        "params": {
          "ancillaryData": "arbitrary data appended to a price request to give the voters more info from the caller.",
          "identifier": "uniquely identifies the price requested. eg BTC/USD (encoded as bytes32) could be requested.",
          "time": "unix timestamp for the price request."
        },
        "returns": {
          "_0": "bool if the DVM has resolved to a price for the given identifier and timestamp."
        }
      },
      "requestPrice(bytes32,uint256,bytes)": {
        "details": "Time must be in the past and the identifier must be supported.",
        "params": {
          "ancillaryData": "arbitrary data appended to a price request to give the voters more info from the caller.",
          "identifier": "uniquely identifies the price requested. eg BTC/USD (encoded as bytes32) could be requested.",
          "time": "unix timestamp for the price request."
        }
      },
      "setCurrentTime(uint256)": {
        "details": "Will revert if not running in test mode.",
        "params": {
          "time": "timestamp to set current Testable time to."
        }
      }
    },
    "version": 1
  },
  "userdoc": {
    "kind": "user",
    "methods": {
      "getCurrentTime()": {
        "notice": "Gets the current time. Will return the last time set in `setCurrentTime` if running in test mode. Otherwise, it will return the block timestamp."
      },
      "getPrice(bytes32,uint256,bytes)": {
        "notice": "Gets the price for `identifier` and `time` if it has already been requested and resolved."
      },
      "hasPrice(bytes32,uint256,bytes)": {
        "notice": "Whether the price for `identifier` and `time` is available."
      },
      "requestPrice(bytes32,uint256,bytes)": {
        "notice": "Enqueues a request (if a request isn't already present) for the given `identifier`, `time` pair."
      },
      "setCurrentTime(uint256)": {
        "notice": "Sets the current time."
      }
    },
    "version": 1
  },
  "storageLayout": {
    "storage": [
      {
        "astId": 10674,
        "contract": "contracts/oracle/test/MockOracleAncillary.sol:MockOracleAncillary",
        "label": "timerAddress",
        "offset": 0,
        "slot": "0",
        "type": "t_address"
      },
      {
        "astId": 33366,
        "contract": "contracts/oracle/test/MockOracleAncillary.sol:MockOracleAncillary",
        "label": "finder",
        "offset": 0,
        "slot": "1",
        "type": "t_contract(FinderInterface)32285"
      },
      {
        "astId": 33375,
        "contract": "contracts/oracle/test/MockOracleAncillary.sol:MockOracleAncillary",
        "label": "verifiedPrices",
        "offset": 0,
        "slot": "2",
        "type": "t_mapping(t_bytes32,t_mapping(t_uint256,t_mapping(t_bytes_memory_ptr,t_struct(Price)33351_storage)))"
      },
      {
        "astId": 33384,
        "contract": "contracts/oracle/test/MockOracleAncillary.sol:MockOracleAncillary",
        "label": "queryIndices",
        "offset": 0,
        "slot": "3",
        "type": "t_mapping(t_bytes32,t_mapping(t_uint256,t_mapping(t_bytes_memory_ptr,t_struct(QueryIndex)33356_storage)))"
      },
      {
        "astId": 33388,
        "contract": "contracts/oracle/test/MockOracleAncillary.sol:MockOracleAncillary",
        "label": "requestedPrices",
        "offset": 0,
        "slot": "4",
        "type": "t_array(t_struct(QueryPoint)33363_storage)dyn_storage"
      }
    ],
    "types": {
      "t_address": {
        "encoding": "inplace",
        "label": "address",
        "numberOfBytes": "20"
      },
      "t_array(t_struct(QueryPoint)33363_storage)dyn_storage": {
        "base": "t_struct(QueryPoint)33363_storage",
        "encoding": "dynamic_array",
        "label": "struct MockOracleAncillary.QueryPoint[]",
        "numberOfBytes": "32"
      },
      "t_bool": {
        "encoding": "inplace",
        "label": "bool",
        "numberOfBytes": "1"
      },
      "t_bytes32": {
        "encoding": "inplace",
        "label": "bytes32",
        "numberOfBytes": "32"
      },
      "t_bytes_memory_ptr": {
        "encoding": "bytes",
        "label": "bytes",
        "numberOfBytes": "32"
      },
      "t_bytes_storage": {
        "encoding": "bytes",
        "label": "bytes",
        "numberOfBytes": "32"
      },
      "t_contract(FinderInterface)32285": {
        "encoding": "inplace",
        "label": "contract FinderInterface",
        "numberOfBytes": "20"
      },
      "t_int256": {
        "encoding": "inplace",
        "label": "int256",
        "numberOfBytes": "32"
      },
      "t_mapping(t_bytes32,t_mapping(t_uint256,t_mapping(t_bytes_memory_ptr,t_struct(Price)33351_storage)))": {
        "encoding": "mapping",
        "key": "t_bytes32",
        "label": "mapping(bytes32 => mapping(uint256 => mapping(bytes => struct MockOracleAncillary.Price)))",
        "numberOfBytes": "32",
        "value": "t_mapping(t_uint256,t_mapping(t_bytes_memory_ptr,t_struct(Price)33351_storage))"
      },
      "t_mapping(t_bytes32,t_mapping(t_uint256,t_mapping(t_bytes_memory_ptr,t_struct(QueryIndex)33356_storage)))": {
        "encoding": "mapping",
        "key": "t_bytes32",
        "label": "mapping(bytes32 => mapping(uint256 => mapping(bytes => struct MockOracleAncillary.QueryIndex)))",
        "numberOfBytes": "32",
        "value": "t_mapping(t_uint256,t_mapping(t_bytes_memory_ptr,t_struct(QueryIndex)33356_storage))"
      },
      "t_mapping(t_bytes_memory_ptr,t_struct(Price)33351_storage)": {
        "encoding": "mapping",
        "key": "t_bytes_memory_ptr",
        "label": "mapping(bytes => struct MockOracleAncillary.Price)",
        "numberOfBytes": "32",
        "value": "t_struct(Price)33351_storage"
      },
      "t_mapping(t_bytes_memory_ptr,t_struct(QueryIndex)33356_storage)": {
        "encoding": "mapping",
        "key": "t_bytes_memory_ptr",
        "label": "mapping(bytes => struct MockOracleAncillary.QueryIndex)",
        "numberOfBytes": "32",
        "value": "t_struct(QueryIndex)33356_storage"
      },
      "t_mapping(t_uint256,t_mapping(t_bytes_memory_ptr,t_struct(Price)33351_storage))": {
        "encoding": "mapping",
        "key": "t_uint256",
        "label": "mapping(uint256 => mapping(bytes => struct MockOracleAncillary.Price))",
        "numberOfBytes": "32",
        "value": "t_mapping(t_bytes_memory_ptr,t_struct(Price)33351_storage)"
      },
      "t_mapping(t_uint256,t_mapping(t_bytes_memory_ptr,t_struct(QueryIndex)33356_storage))": {
        "encoding": "mapping",
        "key": "t_uint256",
        "label": "mapping(uint256 => mapping(bytes => struct MockOracleAncillary.QueryIndex))",
        "numberOfBytes": "32",
        "value": "t_mapping(t_bytes_memory_ptr,t_struct(QueryIndex)33356_storage)"
      },
      "t_struct(Price)33351_storage": {
        "encoding": "inplace",
        "label": "struct MockOracleAncillary.Price",
        "members": [
          {
            "astId": 33346,
            "contract": "contracts/oracle/test/MockOracleAncillary.sol:MockOracleAncillary",
            "label": "isAvailable",
            "offset": 0,
            "slot": "0",
            "type": "t_bool"
          },
          {
            "astId": 33348,
            "contract": "contracts/oracle/test/MockOracleAncillary.sol:MockOracleAncillary",
            "label": "price",
            "offset": 0,
            "slot": "1",
            "type": "t_int256"
          },
          {
            "astId": 33350,
            "contract": "contracts/oracle/test/MockOracleAncillary.sol:MockOracleAncillary",
            "label": "verifiedTime",
            "offset": 0,
            "slot": "2",
            "type": "t_uint256"
          }
        ],
        "numberOfBytes": "96"
      },
      "t_struct(QueryIndex)33356_storage": {
        "encoding": "inplace",
        "label": "struct MockOracleAncillary.QueryIndex",
        "members": [
          {
            "astId": 33353,
            "contract": "contracts/oracle/test/MockOracleAncillary.sol:MockOracleAncillary",
            "label": "isValid",
            "offset": 0,
            "slot": "0",
            "type": "t_bool"
          },
          {
            "astId": 33355,
            "contract": "contracts/oracle/test/MockOracleAncillary.sol:MockOracleAncillary",
            "label": "index",
            "offset": 0,
            "slot": "1",
            "type": "t_uint256"
          }
        ],
        "numberOfBytes": "64"
      },
      "t_struct(QueryPoint)33363_storage": {
        "encoding": "inplace",
        "label": "struct MockOracleAncillary.QueryPoint",
        "members": [
          {
            "astId": 33358,
            "contract": "contracts/oracle/test/MockOracleAncillary.sol:MockOracleAncillary",
            "label": "identifier",
            "offset": 0,
            "slot": "0",
            "type": "t_bytes32"
          },
          {
            "astId": 33360,
            "contract": "contracts/oracle/test/MockOracleAncillary.sol:MockOracleAncillary",
            "label": "time",
            "offset": 0,
            "slot": "1",
            "type": "t_uint256"
          },
          {
            "astId": 33362,
            "contract": "contracts/oracle/test/MockOracleAncillary.sol:MockOracleAncillary",
            "label": "ancillaryData",
            "offset": 0,
            "slot": "2",
            "type": "t_bytes_storage"
          }
        ],
        "numberOfBytes": "96"
      },
      "t_uint256": {
        "encoding": "inplace",
        "label": "uint256",
        "numberOfBytes": "32"
      }
    }
  }
}