{
  "contractName": "Leveraged2x",
  "abi": [
    {
      "constant": true,
      "inputs": [
        {
          "name": "oldOraclePrice",
          "type": "int256"
        },
        {
          "name": "newOraclePrice",
          "type": "int256"
        }
      ],
      "name": "computeReturn",
      "outputs": [
        {
          "name": "assetReturn",
          "type": "int256"
        }
      ],
      "payable": false,
      "stateMutability": "view",
      "type": "function",
      "signature": "0x55e59682"
    }
  ],
  "bytecode": "0x608060405234801561001057600080fd5b5060ee8061001f6000396000f300608060405260043610603f576000357c0100000000000000000000000000000000000000000000000000000000900463ffffffff16806355e59682146044575b600080fd5b348015604f57600080fd5b5060766004803603810190808035906020019092919080359060200190929190505050608c565b6040518082815260200191505060405180910390f35b6000670de0b6b3a76400006002670de0b6b3a764000085670de0b6b3a7640000860281151560b657fe5b050302019050929150505600a165627a7a7230582035ffa414a112cf13bd6055d9d1cda903e52dc5a1ca825033dbba224a31c4e8ee0029",
  "source": "/*\n  Tokenized Derivative implementation\n\n  Implements a simplified version of tokenized Product/ETH Products.\n*/\npragma solidity >=0.4.24;\n\nimport \"openzeppelin-solidity/contracts/math/SafeMath.sol\";\nimport \"openzeppelin-solidity/contracts/token/ERC20/ERC20.sol\";\nimport \"./OracleInterface.sol\";\nimport \"./ContractCreator.sol\";\n\n\ncontract ReturnCalculator {\n    function computeReturn(int oldOraclePrice, int newOraclePrice) external view returns (int assetReturn);\n}\n\n\ncontract Leveraged2x is ReturnCalculator {\n    function computeReturn(int oldOraclePrice, int newOraclePrice) external view returns (int assetReturn) {\n        return ((((newOraclePrice * (1 ether)) / oldOraclePrice) - 1 ether) * 2) + 1 ether;\n    }\n}\n\n\ncontract NoLeverage is ReturnCalculator {\n    function computeReturn(int oldOraclePrice, int newOraclePrice) external view returns (int assetReturn) {\n        return (newOraclePrice * (1 ether)) / oldOraclePrice;\n    }\n}\n\n\n// TODO(mrice32): make this and TotalReturnSwap derived classes of a single base to encap common functionality.\ncontract TokenizedDerivative is ERC20 {\n\n    // Note: SafeMath only works for uints right now.\n    using SafeMath for uint;\n    // using SafeMath for int256;\n\n    enum State {\n        // The contract is funded, the required margin has been provided by both parties, and remargining is happening\n        // on demand. Parties are only able to withdraw down to the required margin.\n        // Possible state transitions: Disputed, Expired, Defaulted.\n        Live,\n\n        // One of the parties has disputed the price feed. The contract is frozen until the dispute is resolved.\n        // Possible state transitions: Defaulted, Settled.\n        Disputed,\n\n        // The contract has passed its expiration and the final remargin has occurred. It is still possible to dispute\n        // the settlement price.\n        // Possible state transitions: Disputed, Settled.\n        Expired,\n\n        // One party failed to keep their margin above the required margin, so the contract has gone into default. If\n        // the price is undisputed then the defaulting party will be required to pay a default penalty, but, if\n        // disputed, contract becomes disputed and penalty will only be paid if verified price confirms default. If both\n        // parties agree the contract is in default then becomes settled\n        // Possible state transitions: Disputed, Settled\n        Defaulted,\n\n        // The contract has been terminated by one party. That party can no longer dispute the price, but the other\n        // party can. If a dispute occurs, the termination fee is refunded to the sender.\n        // Possible state transitions: Disputed, Settled.\n        Terminated,\n\n        // The final remargin has occured, and all parties have agreed on the settlement price. Account balances can be\n        // fully withdrawn.\n        // Possible state transitions: None.\n        Settled\n    }\n\n    struct ContractParty {\n        address accountAddress;\n        int256 balance;\n        bool hasConfirmedPrice;\n        uint marginRequirement; // Percentage of nav*10^18\n    }\n\n    string public constant name = \"2x Levered Bitcoin-Ether\";\n    string public constant symbol = \"2XBCE\";\n    uint8 public constant decimals = 18;\n\n    // Financial information\n    uint public defaultPenalty; // Percentage of nav*10^18\n    uint public terminationFee; // Percentage of nav*10^18\n    string public product;\n\n    // Other addresses/contracts\n    ContractParty public provider;\n    ContractParty public investor;\n    OracleInterface public oracle;\n    ReturnCalculator public returnCalculator;\n\n    State public state;\n    uint public endTime;\n    uint public lastRemarginTime;\n    uint public disputeDeposit;\n\n    // TODO(mrice32): try to remove these previous variables as they are a gas hog.\n    int public prevUnderlyingPrice;\n    int public prevTokenPrice;\n    uint public prevRemarginTime;\n\n    int256 public tokenPrice;\n    int256 public underlyingPrice;\n    int256 public nav;  // Net asset value is measured in Wei\n\n    uint public additionalAuthorizedNav;\n\n    uint public fixedFeePerSecond;\n\n    // The information in the following struct is only valid if in the midst of a Dispute.\n    struct Dispute {\n        int256 disputedNav;\n        address disputer;\n        uint deposit;\n    }\n\n    Dispute public dispute;\n\n    // The information in the following struct is only valid if in the midst of a Default or Termination.\n    struct Termination {\n        int nav;\n        // Note: the following fields are only valid if being terminated voluntarily without default.\n        address terminator;\n        uint fee;\n    }\n\n    Termination public termination;\n\n    uint public constant SECONDS_PER_YEAR = 31536000;\n\n    modifier onlyContractParties {\n        require(msg.sender == provider.accountAddress || msg.sender == investor.accountAddress);\n        _;\n    }\n\n    modifier onlyInvestor {\n        require(msg.sender == investor.accountAddress);\n        _;\n    }\n\n    modifier onlyProvider {\n        require(msg.sender == provider.accountAddress);\n        _;\n    }\n\n    constructor(\n        address _providerAddress,\n        address _investorAddress,\n        address _oracleAddress,\n        uint _defaultPenalty, // Percentage of nav*10^18\n        uint _terminationFee, // Percentage of nav*10^18\n        uint _providerRequiredMargin, // Percentage of nav*10^18\n        string _product,\n        uint _fixedYearlyFee, // Percentage of nav * 10^18\n        uint _disputeDeposit, // Percentage of nav * 10^18\n        address _returnCalculator\n    ) public payable {\n        // The default penalty must be less than the required margin, which must be less than the NAV.\n        require(_defaultPenalty <= _providerRequiredMargin);\n        require(_providerRequiredMargin <= 1 ether);\n\n        // Address information\n        oracle = OracleInterface(_oracleAddress);\n        provider = ContractParty(_providerAddress, 0, false, _providerRequiredMargin);\n\n        // Note: the investor is required to have 100% margin at all times.\n        investor = ContractParty(_investorAddress, 0, false, 1 ether);\n\n        returnCalculator = ReturnCalculator(_returnCalculator);\n\n        // Contract states\n        lastRemarginTime = 0;\n        defaultPenalty = _defaultPenalty;\n        product = _product;\n        fixedFeePerSecond = _fixedYearlyFee / SECONDS_PER_YEAR;\n        disputeDeposit = _disputeDeposit;\n        terminationFee = _terminationFee;\n\n        // Set end time to max value of uint to implement no expiry.\n        endTime = ~uint(0);\n\n\n        // TODO(mrice32): we should have an ideal start time rather than blindly polling.\n        (uint currentTime, int oraclePrice) = oracle.latestUnverifiedPrice();\n        require(currentTime != 0);\n        \n        nav = initialNav(oraclePrice, currentTime);\n\n        state = State.Live;\n    }\n\n    function authorizeTokens(uint newAuthorizedNavInWei) external payable onlyProvider {\n        deposit();\n        remargin();\n\n        require(state == State.Live);\n\n        additionalAuthorizedNav = additionalAuthorizedNav.add(newAuthorizedNavInWei);\n        require(!_reduceAuthorizedTokens(nav));\n    }\n\n    function createTokens(bool exact) external payable onlyInvestor {\n        remargin();\n\n        require(state == State.Live);\n\n        uint authorizedNav = additionalAuthorizedNav;\n        require(authorizedNav > 0, \"Contract is not authorized to provide any tokens\");\n\n        uint navToPurchase = msg.value;\n        uint refund = 0;\n\n        if (authorizedNav < navToPurchase) {\n            require(!exact);\n\n            refund = navToPurchase.sub(authorizedNav);\n            navToPurchase = authorizedNav;\n        }\n\n        additionalAuthorizedNav = authorizedNav.sub(navToPurchase);\n        investor.balance += int256(navToPurchase);\n\n        _mint(msg.sender, uint(_tokensFromNav(int256(navToPurchase), tokenPrice)));\n\n        nav = (int(totalSupply()) * tokenPrice) / 1 ether;\n\n        if (refund != 0) {\n            msg.sender.transfer(refund);\n        }\n    }\n\n    function redeemTokens(uint numTokens) external {\n        require((msg.sender == investor.accountAddress && state == State.Live)\n            || state == State.Settled);\n\n        if (state == State.Live) {\n            remargin();\n        }\n\n        uint initialSupply = totalSupply();\n\n        require(this.transferFrom(msg.sender, this, numTokens));\n        _burn(this, numTokens);\n\n\n        int256 investorBalance = investor.balance;\n        assert(investorBalance >= 0);\n\n\n        // Value of the tokens is just the percentage of all the tokens multiplied by the balance of the investor\n        // margin account.\n        uint tokenPercentage = numTokens.mul(1 ether).div(initialSupply);\n        uint tokenValue = _takePercentage(uint(investorBalance), tokenPercentage);\n\n        investor.balance -= int256(tokenValue);\n        nav = (int(totalSupply()) * tokenPrice) / 1 ether;\n\n        msg.sender.transfer(tokenValue);\n    }\n\n    function confirmPrice() public onlyContractParties {\n        // Right now, only dispute if in a pre-settlement state\n        require(state == State.Expired || state == State.Defaulted || state == State.Terminated);\n\n        if (msg.sender == provider.accountAddress) {\n            provider.hasConfirmedPrice = true;\n        }\n\n        if (msg.sender == investor.accountAddress) {\n            investor.hasConfirmedPrice = true;\n        }\n\n        // If both have confirmed then advance state to settled\n        // Should add some kind of a time check here -- If both have confirmed or one confirmed and sufficient time\n        // passes then we want to settle and remargin\n        if (provider.hasConfirmedPrice && investor.hasConfirmedPrice) {\n            // Remargin on agreed upon price\n            _settleAgreedPrice();\n        }\n    }\n\n    function deposit() public payable onlyProvider {\n        // Only allow the provider to deposit margin.\n\n        // Make sure that one of participants is sending the deposit and that\n        // we are in a \"depositable\" state\n        require(state == State.Live);\n        provider.balance += int256(msg.value);  // Want this to be safemath when available\n    }\n\n    function dispute() public payable onlyContractParties {\n        require(\n            // TODO: We need to add the dispute bond logic\n            state == State.Live,\n            \"Contract must be Live to dispute\"\n        );\n\n        uint requiredDeposit = uint(_takePercentage(nav, disputeDeposit));\n\n        require(msg.value >= requiredDeposit);\n        uint refund = msg.value - requiredDeposit;\n\n        state = State.Disputed;\n        endTime = lastRemarginTime;\n        dispute.disputedNav = nav;\n        dispute.disputer = msg.sender;\n        dispute.deposit = requiredDeposit;\n\n        msg.sender.transfer(refund);\n    }\n\n    function remargin() public {\n        // If the state is not live, remargining does not make sense.\n        require(state == State.Live);\n\n        // Checks whether contract has ended\n        (uint currentTime, int256 oraclePrice) = oracle.latestUnverifiedPrice();\n        require(currentTime != 0);\n        if (currentTime >= endTime) {\n            (currentTime, oraclePrice) = oracle.unverifiedPrice(endTime);\n            state = State.Expired;\n        }\n\n        // Update nav of contract\n\n        int256 newNav = computeNav(oraclePrice, currentTime);\n        _remargin(newNav);\n        _reduceAuthorizedTokens(newNav);\n    }\n\n    function settle() public {\n        State startingState = state;\n        require(startingState == State.Disputed || startingState == State.Expired || startingState == State.Defaulted);\n        _settleVerifiedPrice();\n        if (startingState == State.Disputed) {\n            (ContractParty storage disputer, ContractParty storage notDisputer) = _whoAmI(dispute.disputer);\n            int256 depositValue = int256(dispute.deposit);\n            if (nav == dispute.disputedNav) {\n                disputer.balance += depositValue;\n            } else {\n                notDisputer.balance += depositValue;\n            }\n        }\n    }\n\n    function withdraw(uint256 amount) public payable onlyProvider {\n        // Make sure either in Live or Settled\n        require(state == State.Live || state == State.Settled);\n\n        // Remargin before allowing a withdrawal, but only if in the live state.\n        if (state == State.Live) {\n            remargin();\n        }\n\n        // If the contract has been settled or is in prefunded state then can\n        // withdraw up to full balance. If the contract is in live state then\n        // must leave at least `requiredMargin`. Not allowed to withdraw in\n        // other states\n        int256 withdrawableAmount = (state == State.Settled) ?\n            provider.balance :\n            provider.balance - _getRequiredEthMargin(provider, nav);\n\n        // Can only withdraw the allowed amount\n        require(\n            (int256(withdrawableAmount) >= int256(amount)),\n            \"Attempting to withdraw more than allowed\"\n        );\n\n        // Transfer amount - Note: important to `-=` before the send so that the\n        // function can not be called multiple times while waiting for transfer\n        // to return\n        provider.balance -= int256(amount);\n        provider.accountAddress.transfer(amount);\n    }\n\n    function terminate() public payable onlyContractParties {\n        int terminationNav = nav;\n\n        remargin();\n\n        require(state == State.Live);\n\n        uint requiredDeposit = uint(_takePercentage(terminationNav, terminationFee));\n\n        require(msg.value >= requiredDeposit);\n        uint refund = msg.value - requiredDeposit;\n\n        termination.nav = terminationNav;\n        termination.fee = requiredDeposit;\n        termination.terminator = msg.sender;\n\n        state = State.Terminated;\n        endTime = lastRemarginTime;\n\n        confirmPrice();\n\n        msg.sender.transfer(refund);\n    }\n\n    // TODO: Think about a cleaner way to do this -- It's ugly because we're leveraging the \"ContractParty\" struct in\n    //       every other place and here we're returning addresses. We probably want a nice public method that returns\n    //       something intuitive and an internal method that's a little easier to use inside the contract, but messier\n    //       for outside\n    function whoDefaults() public view returns (bool inDefault, address defaulter, address notDefaulter) {\n        inDefault = false;\n\n        if (_isDefault(provider)) {\n            defaulter = provider.accountAddress;\n            notDefaulter = provider.accountAddress;\n            inDefault = true; \n        } else if (_isDefault(investor)) {\n            defaulter = investor.accountAddress;\n            notDefaulter = investor.accountAddress;\n            inDefault = true;\n        }\n\n        return (inDefault, defaulter, notDefaulter);\n    }\n\n    function _getRequiredEthMargin(ContractParty storage party, int256 currentNav)\n        internal\n        view\n        returns (int256 requiredEthMargin)\n    {\n        return _takePercentage(currentNav, party.marginRequirement);\n    }\n\n    function _isDefault(ContractParty storage party) internal view returns (bool) {\n        return party.balance < _getRequiredEthMargin(party, nav);\n    }\n\n    function _whoAmI(address sndrAddr) internal view returns (ContractParty storage sndr, ContractParty storage othr) {\n        bool senderIsProvider = (sndrAddr == provider.accountAddress);\n        bool senderIsInvestor = (sndrAddr == investor.accountAddress);\n        require(senderIsProvider || senderIsInvestor); // At least one should be true\n\n        return senderIsProvider ? (provider, investor) : (investor, provider);\n    }\n\n    // Function is internally only called by `_settleAgreedPrice` or `_settleVerifiedPrice`. This function handles all \n    // of the settlement logic including assessing penalties and then moves the state to `Settled`.\n    function _settle(int256 price) internal {\n\n        // Remargin at whatever price we're using (verified or unverified)\n        _updateBalances(recomputeNav(price, endTime));\n\n        // Check whether goes into default\n        (bool inDefault, address _defaulter, ) = whoDefaults();\n\n        if (inDefault) {\n            (ContractParty storage defaulter, ContractParty storage notDefaulter) = _whoAmI(_defaulter);\n            int256 penalty;\n            int256 expectedDefaultPenalty = _getDefaultPenaltyEth();\n            penalty = (defaulter.balance < expectedDefaultPenalty) ?\n                defaulter.balance :\n                expectedDefaultPenalty;\n\n            defaulter.balance -= penalty;\n            notDefaulter.balance += penalty;\n        }\n\n        int termFee = int(termination.fee);\n\n        if (termFee > 0) {\n            (, ContractParty storage notTerminator) = _whoAmI(termination.terminator);\n            notTerminator.balance += termFee;\n        }\n        state = State.Settled;\n    }\n\n    function _settleAgreedPrice() internal {\n        (uint currentTime,) = oracle.latestUnverifiedPrice();\n        require(currentTime >= endTime);\n        (, int256 oraclePrice) = oracle.unverifiedPrice(endTime);\n\n        _settle(oraclePrice);\n    }\n\n    function _settleVerifiedPrice() internal {\n        (uint currentTime,) = oracle.latestVerifiedPrice();\n        require(currentTime >= endTime);\n        (, int256 oraclePrice) = oracle.verifiedPrice(endTime);\n\n        _settle(oraclePrice);\n    }\n\n    // Remargins the account based on a provided NAV value.\n    // The internal remargin method allows certain calls into the contract to\n    // automatically remargin to non-current NAV values (time of expiry, last\n    // agreed upon price, etc).\n    function _remargin(int256 navNew) internal {\n        // Save the current NAV in case it's required to compute the default penalty.\n        int previousNav = nav;\n\n        // Update the balances of contract\n        _updateBalances(navNew);\n\n        // Make sure contract has not moved into default\n        bool inDefault;\n        address defaulter;\n        address notDefaulter;\n        (inDefault, defaulter, notDefaulter) = whoDefaults();\n        if (inDefault) {\n            state = State.Defaulted;\n            termination.nav = previousNav;\n\n            // TODO(mrice32): Pass in the current time rather than querying it.\n            (endTime,) = oracle.latestUnverifiedPrice(); // Change end time to moment when default occurred\n        }\n    }\n\n    function _updateBalances(int256 navNew) internal {\n        // Compute difference -- Add the difference to owner and subtract\n        // from counterparty. Then update nav state variable.\n        int256 longDiff = _getLongNavDiff(navNew);\n        nav = navNew;\n\n        investor.balance += longDiff;\n        provider.balance -= longDiff;\n    }\n\n    // Gets the change in balance for the long side.\n    // Note: there's a function for this because signage is tricky here, and it must be done the same everywhere.\n    function _getLongNavDiff(int256 navNew) internal view returns (int256 longNavDiff) {\n        return navNew - nav;\n    }\n\n    function _reduceAuthorizedTokens(int256 currentNav) internal returns (bool didReduce) {\n        if (state != State.Live) {\n            didReduce = additionalAuthorizedNav != 0;\n            additionalAuthorizedNav = 0;\n            return;\n        }\n\n        int256 totalAuthorizedNav = currentNav + int256(additionalAuthorizedNav);\n        int256 reqMargin = _getRequiredEthMargin(provider, totalAuthorizedNav);\n        int256 providerBalance = provider.balance;\n\n        if (reqMargin > providerBalance) {\n            // Not enough margin to maintain additionalAuthorizedNav\n            int256 navCap = (providerBalance * 1 ether) / int256(provider.marginRequirement);\n            assert(navCap > currentNav);\n            additionalAuthorizedNav = uint(navCap - currentNav);\n            return true;\n        }\n\n        return false;\n    }\n\n    function _getDefaultPenaltyEth() internal view returns (int256 penalty) {\n        return _takePercentage(termination.nav, defaultPenalty);\n    }\n\n    function _tokensFromNav(int256 currentNav, int256 unitNav) internal pure returns (int256 numTokens) {\n        if (unitNav <= 0) {\n            return 0;\n        } else {\n            return (currentNav * 1 ether) / unitNav;\n        }\n    }\n\n    function computeNav(int256 oraclePrice, uint currentTime) private returns (int256 navNew) {\n        int underlyingReturn = returnCalculator.computeReturn(underlyingPrice, oraclePrice);\n        int tokenReturn = underlyingReturn - int(fixedFeePerSecond.mul(currentTime.sub(lastRemarginTime)));\n        int newTokenPrice = 0;\n        if (tokenReturn > 0) {\n            newTokenPrice = _takePercentage(tokenPrice, uint(tokenReturn));\n        }\n        navNew = (int(totalSupply()) * newTokenPrice) / 1 ether;\n        assert(navNew >= 0);\n        prevUnderlyingPrice = underlyingPrice;\n        underlyingPrice = oraclePrice;\n        prevTokenPrice = tokenPrice;\n        tokenPrice = newTokenPrice;\n        prevRemarginTime = lastRemarginTime;\n        lastRemarginTime = currentTime;\n    }\n\n    // TODO(mrice32): make \"old state\" and \"new state\" a storage argument to combine this and computeNav.\n    function recomputeNav(int256 oraclePrice, uint currentTime) private returns (int navNew) {\n        assert(lastRemarginTime == currentTime);\n        int underlyingReturn = returnCalculator.computeReturn(prevUnderlyingPrice, oraclePrice);\n        int tokenReturn = underlyingReturn - int(fixedFeePerSecond.mul(currentTime.sub(prevRemarginTime)));\n        int newTokenPrice = 0;\n        if (tokenReturn > 0) {\n            newTokenPrice = _takePercentage(prevTokenPrice, uint(tokenReturn));\n        }\n        navNew = (int(totalSupply()) * newTokenPrice) / 1 ether;\n        assert(navNew >= 0);\n        underlyingPrice = oraclePrice;\n        tokenPrice = newTokenPrice;\n        lastRemarginTime = currentTime;\n    }\n\n    function initialNav(int256 oraclePrice, uint currentTime) private returns (int256 navNew) {\n        // Each token is initially worth a set amount of ether.\n        int unitNav = 1 ether / 80;\n        lastRemarginTime = currentTime;\n        prevRemarginTime = currentTime;\n        tokenPrice = unitNav;\n        prevTokenPrice = unitNav;\n        underlyingPrice = oraclePrice;\n        prevUnderlyingPrice = oraclePrice;\n        navNew = (int(totalSupply()) * unitNav) / 1 ether;\n        assert(navNew >= 0);\n    }\n\n    function _takePercentage(uint value, uint percentage) private pure returns (uint result) {\n        return value.mul(percentage).div(1 ether);\n    }\n\n    function _takePercentage(int256 value, uint percentage) private pure returns (int256 result) {\n        return (value * int256(percentage)) / 1 ether;\n    }\n}\n\n\ncontract TokenizedDerivativeCreator is ContractCreator {\n    constructor(address registryAddress, address _oracleAddress)\n        public\n        ContractCreator(registryAddress, _oracleAddress) {} // solhint-disable-line no-empty-blocks\n\n    function createTokenizedDerivative(\n        address provider,\n        address investor,\n        uint defaultPenalty,\n        uint terminationFee,\n        uint providerRequiredMargin,\n        string product,\n        uint fixedYearlyFee,\n        uint disputeDeposit,\n        address returnCalculator\n    )\n        external\n        returns (address derivativeAddress)\n    {\n        TokenizedDerivative derivative = new TokenizedDerivative(\n            provider,\n            investor,\n            oracleAddress,\n            defaultPenalty,\n            terminationFee,\n            providerRequiredMargin,\n            product,\n            fixedYearlyFee,\n            disputeDeposit,\n            returnCalculator\n        );\n\n        _registerNewContract(provider, investor, address(derivative));\n\n        return address(derivative);\n    }\n}\n",
  "sourcePath": "/Users/matt/git/protocol/contracts/TokenizedDerivative.sol",
  "compiler": {
    "name": "solc",
    "version": "0.4.25+commit.59dbf8f1.Emscripten.clang"
  },
  "schemaVersion": "3.0.0-beta.2",
  "updatedAt": "2018-12-13T19:05:44.954Z",
  "devdoc": {
    "methods": {}
  },
  "userdoc": {
    "methods": {}
  }
}