{
  "contractName": "OracleMock",
  "abi": [
    {
      "constant": false,
      "inputs": [],
      "name": "renounceOwnership",
      "outputs": [],
      "payable": false,
      "stateMutability": "nonpayable",
      "type": "function",
      "signature": "0x715018a6"
    },
    {
      "constant": true,
      "inputs": [],
      "name": "startTime",
      "outputs": [
        {
          "name": "",
          "type": "uint256"
        }
      ],
      "payable": false,
      "stateMutability": "view",
      "type": "function",
      "signature": "0x78e97925"
    },
    {
      "constant": true,
      "inputs": [],
      "name": "owner",
      "outputs": [
        {
          "name": "",
          "type": "address"
        }
      ],
      "payable": false,
      "stateMutability": "view",
      "type": "function",
      "signature": "0x8da5cb5b"
    },
    {
      "constant": true,
      "inputs": [],
      "name": "isOwner",
      "outputs": [
        {
          "name": "",
          "type": "bool"
        }
      ],
      "payable": false,
      "stateMutability": "view",
      "type": "function",
      "signature": "0x8f32d59b"
    },
    {
      "constant": false,
      "inputs": [
        {
          "name": "newOwner",
          "type": "address"
        }
      ],
      "name": "transferOwnership",
      "outputs": [],
      "payable": false,
      "stateMutability": "nonpayable",
      "type": "function",
      "signature": "0xf2fde38b"
    },
    {
      "inputs": [
        {
          "name": "_mirrorFeeds",
          "type": "bool"
        },
        {
          "name": "_pricePublishInterval",
          "type": "uint256"
        }
      ],
      "payable": false,
      "stateMutability": "nonpayable",
      "type": "constructor",
      "signature": "constructor"
    },
    {
      "anonymous": false,
      "inputs": [
        {
          "indexed": true,
          "name": "previousOwner",
          "type": "address"
        }
      ],
      "name": "OwnershipRenounced",
      "type": "event",
      "signature": "0xf8df31144d9c2f0f6b59d69b8b98abd5459d07f2742c4df920b25aae33c64820"
    },
    {
      "anonymous": false,
      "inputs": [
        {
          "indexed": true,
          "name": "previousOwner",
          "type": "address"
        },
        {
          "indexed": true,
          "name": "newOwner",
          "type": "address"
        }
      ],
      "name": "OwnershipTransferred",
      "type": "event",
      "signature": "0x8be0079c531659141344cd1fd0a4f28419497f9722a3daafe3b4186f6b6457e0"
    },
    {
      "constant": false,
      "inputs": [
        {
          "name": "newPrice",
          "type": "int256"
        }
      ],
      "name": "addUnverifiedPrice",
      "outputs": [],
      "payable": false,
      "stateMutability": "nonpayable",
      "type": "function",
      "signature": "0xfea779a1"
    },
    {
      "constant": false,
      "inputs": [
        {
          "name": "publishTime",
          "type": "uint256"
        },
        {
          "name": "newPrice",
          "type": "int256"
        }
      ],
      "name": "addUnverifiedPriceForTime",
      "outputs": [],
      "payable": false,
      "stateMutability": "nonpayable",
      "type": "function",
      "signature": "0x0ae8754a"
    },
    {
      "constant": false,
      "inputs": [
        {
          "name": "newPrice",
          "type": "int256"
        }
      ],
      "name": "addVerifiedPrice",
      "outputs": [],
      "payable": false,
      "stateMutability": "nonpayable",
      "type": "function",
      "signature": "0x8c4272f1"
    },
    {
      "constant": false,
      "inputs": [
        {
          "name": "publishTime",
          "type": "uint256"
        },
        {
          "name": "newPrice",
          "type": "int256"
        }
      ],
      "name": "addVerifiedPriceForTime",
      "outputs": [],
      "payable": false,
      "stateMutability": "nonpayable",
      "type": "function",
      "signature": "0xdf80d33a"
    },
    {
      "constant": true,
      "inputs": [],
      "name": "latestUnverifiedPrice",
      "outputs": [
        {
          "name": "publishTime",
          "type": "uint256"
        },
        {
          "name": "price",
          "type": "int256"
        }
      ],
      "payable": false,
      "stateMutability": "view",
      "type": "function",
      "signature": "0x42a3e7fd"
    },
    {
      "constant": true,
      "inputs": [],
      "name": "latestVerifiedPrice",
      "outputs": [
        {
          "name": "publishTime",
          "type": "uint256"
        },
        {
          "name": "price",
          "type": "int256"
        }
      ],
      "payable": false,
      "stateMutability": "view",
      "type": "function",
      "signature": "0xaf7033ff"
    },
    {
      "constant": true,
      "inputs": [
        {
          "name": "time",
          "type": "uint256"
        }
      ],
      "name": "unverifiedPrice",
      "outputs": [
        {
          "name": "publishTime",
          "type": "uint256"
        },
        {
          "name": "price",
          "type": "int256"
        }
      ],
      "payable": false,
      "stateMutability": "view",
      "type": "function",
      "signature": "0xff0b22ce"
    },
    {
      "constant": true,
      "inputs": [
        {
          "name": "time",
          "type": "uint256"
        }
      ],
      "name": "verifiedPrice",
      "outputs": [
        {
          "name": "publishTime",
          "type": "uint256"
        },
        {
          "name": "price",
          "type": "int256"
        }
      ],
      "payable": false,
      "stateMutability": "view",
      "type": "function",
      "signature": "0xd2d4dab1"
    }
  ],
  "bytecode": "0x608060405234801561001057600080fd5b50604051604080610b1083398101806040528101908080519060200190929190805190602001909291905050506000336000806101000a81548173ffffffffffffffffffffffffffffffffffffffff021916908373ffffffffffffffffffffffffffffffffffffffff160217905550429050816007819055506100a581600183016100cd640100000000026401000000009004565b60068190555082600560006101000a81548160ff0219169083151502179055505050506101a4565b600081831015610132576006548310610128576101236007546101086007548661013c640100000000026108c9179091906401000000009004565b610166640100000000026108f3179091906401000000009004565b61012b565b60005b9050610136565b8190505b92915050565b60008060008311151561014e57600080fd5b828481151561015957fe5b0490508091505092915050565b600080600084141561017b576000915061019d565b828402905082848281151561018c57fe5b0414151561019957600080fd5b8091505b5092915050565b61095d806101b36000396000f3006080604052600436106100c5576000357c0100000000000000000000000000000000000000000000000000000000900463ffffffff1680630ae8754a146100ca57806342a3e7fd14610101578063715018a61461013357806378e979251461014a5780638c4272f1146101755780638da5cb5b146101a25780638f32d59b146101f9578063af7033ff14610228578063d2d4dab11461025a578063df80d33a146102a2578063f2fde38b146102d9578063fea779a11461031c578063ff0b22ce14610349575b600080fd5b3480156100d657600080fd5b506100ff6004803603810190808035906020019092919080359060200190929190505050610391565b005b34801561010d57600080fd5b506101166103c9565b604051808381526020018281526020019250505060405180910390f35b34801561013f57600080fd5b506101486103de565b005b34801561015657600080fd5b5061015f610498565b6040518082815260200191505060405180910390f35b34801561018157600080fd5b506101a06004803603810190808035906020019092919050505061049e565b005b3480156101ae57600080fd5b506101b76104c5565b604051808273ffffffffffffffffffffffffffffffffffffffff1673ffffffffffffffffffffffffffffffffffffffff16815260200191505060405180910390f35b34801561020557600080fd5b5061020e6104ee565b604051808215151515815260200191505060405180910390f35b34801561023457600080fd5b5061023d610545565b604051808381526020018281526020019250505060405180910390f35b34801561026657600080fd5b5061028560048036038101908080359060200190929190505050610560565b604051808381526020018281526020019250505060405180910390f35b3480156102ae57600080fd5b506102d7600480360381019080803590602001909291908035906020019092919050505061057d565b005b3480156102e557600080fd5b5061031a600480360381019080803573ffffffffffffffffffffffffffffffffffffffff1690602001909291905050506105c0565b005b34801561032857600080fd5b50610347600480360381019080803590602001909291905050506105df565b005b34801561035557600080fd5b5061037460048036038101908080359060200190929190505050610600565b604051808381526020018281526020019250505060405180910390f35b6103996104ee565b15156103a457600080fd5b6103af826001610617565b15156103ba57600080fd5b6103c5816001610657565b5050565b6000806103d660016106d1565b915091509091565b6103e66104ee565b15156103f157600080fd5b6000809054906101000a900473ffffffffffffffffffffffffffffffffffffffff1673ffffffffffffffffffffffffffffffffffffffff167ff8df31144d9c2f0f6b59d69b8b98abd5459d07f2742c4df920b25aae33c6482060405160405180910390a260008060006101000a81548173ffffffffffffffffffffffffffffffffffffffff021916908373ffffffffffffffffffffffffffffffffffffffff160217905550565b60065481565b6104a66104ee565b15156104b157600080fd5b6104c2816104bd6106fc565b610657565b50565b60008060009054906101000a900473ffffffffffffffffffffffffffffffffffffffff16905090565b60008060009054906101000a900473ffffffffffffffffffffffffffffffffffffffff1673ffffffffffffffffffffffffffffffffffffffff163373ffffffffffffffffffffffffffffffffffffffff1614905090565b6000806105586105536106fc565b6106d1565b915091509091565b6000806105748361056f6106fc565b610721565b91509150915091565b60006105876104ee565b151561059257600080fd5b61059a6106fc565b90506105a68382610617565b15156105b157600080fd5b6105bb8282610657565b505050565b6105c86104ee565b15156105d357600080fd5b6105dc81610759565b50565b6105e76104ee565b15156105f257600080fd5b6105fd816001610657565b50565b60008061060e836001610721565b91509150915091565b6000808260010154905060008114156106365760065484149150610650565b61064b6007548261085390919063ffffffff16565b841491505b5092915050565b6000808260010154146106825761067d600754836001015461085390919063ffffffff16565b610686565b6006545b90506000826000016000838152602001908152602001600020541415156106a957fe5b8282600001600083815260200190815260200160002081905550808260010181905550505050565b6000808260010154836000016000856001015481526020019081526020016000205491509150915091565b6000600560009054906101000a900460ff1661071957600361071c565b60015b905090565b6000806000610734858560010154610874565b9050808460000160008381526020019081526020016000205492509250509250929050565b600073ffffffffffffffffffffffffffffffffffffffff168173ffffffffffffffffffffffffffffffffffffffff161415151561079557600080fd5b8073ffffffffffffffffffffffffffffffffffffffff166000809054906101000a900473ffffffffffffffffffffffffffffffffffffffff1673ffffffffffffffffffffffffffffffffffffffff167f8be0079c531659141344cd1fd0a4f28419497f9722a3daafe3b4186f6b6457e060405160405180910390a3806000806101000a81548173ffffffffffffffffffffffffffffffffffffffff021916908373ffffffffffffffffffffffffffffffffffffffff16021790555050565b600080828401905083811015151561086a57600080fd5b8091505092915050565b6000818310156108bf5760065483106108b5576108b06007546108a2600754866108c990919063ffffffff16565b6108f390919063ffffffff16565b6108b8565b60005b90506108c3565b8190505b92915050565b6000806000831115156108db57600080fd5b82848115156108e657fe5b0490508091505092915050565b6000806000841415610908576000915061092a565b828402905082848281151561091957fe5b0414151561092657600080fd5b8091505b50929150505600a165627a7a72305820b2a9a5dea256324e99c7af1dc311e681b37ded4225c51605d0edb5cbfee366e90029",
  "source": "/*\n  OracleMock implementation.\n\n  Simple mock implementation of a Vote Token to be used by a derivative for querying price feeds.\n*/\npragma solidity >=0.4.24;\n\nimport \"openzeppelin-solidity/contracts/math/SafeMath.sol\";\nimport \"openzeppelin-solidity/contracts/ownership/Ownable.sol\";\nimport \"./OracleInterface.sol\";\n\n\ncontract OracleMock is OracleInterface, Ownable {\n    // Note: SafeMath only works for uints right now.\n    using SafeMath for uint;\n\n    struct FeedInfo {\n        // TODO(mattrice): may be more gas efficient to store these maps as arrays since the prices are published at\n        // regular intervals and an index offset could be easily computed from the time.\n        // Maps from the timestamp to the price at that time.\n        mapping(uint => int256) prices;\n\n        // Most recent publish times for each price feed.\n        uint latestPublishTime;\n    }\n\n    FeedInfo private _unverifiedFeed;\n    FeedInfo private _verifiedFeed;\n    bool private mirrorFeeds; // Whether the verified feed should just be an alias for the unverified feed.\n\n    // First time at which a price will be published.\n    uint public startTime;\n\n    // The publishing interval for this price feed. All publish times are just multiples of this interval starting at 0.\n    uint private pricePublishInterval;\n\n    constructor(bool _mirrorFeeds, uint _pricePublishInterval) public {\n        uint time = now; // solhint-disable-line not-rely-on-time\n        pricePublishInterval = _pricePublishInterval;\n        startTime = _intervalTime(time, time + 1);\n        mirrorFeeds = _mirrorFeeds;\n    }\n\n    // These functions are only here for the purpose of mocking a real feed. If this were meant for production, we\n    // would want to provide the time and check that the time lines up with the expected next time on the feed.\n    function addUnverifiedPrice(int256 newPrice) external onlyOwner {\n        _addNextPriceToFeed(newPrice, _unverifiedFeed);\n    }\n\n    function addUnverifiedPriceForTime(uint publishTime, int256 newPrice) external onlyOwner {\n        require(_isNextTime(publishTime, _unverifiedFeed));\n        _addNextPriceToFeed(newPrice, _unverifiedFeed);\n    }\n\n    function addVerifiedPrice(int256 newPrice) external onlyOwner {\n        _addNextPriceToFeed(newPrice, _getVerifiedFeed());\n    }\n\n    function addVerifiedPriceForTime(uint publishTime, int256 newPrice) external onlyOwner {\n        FeedInfo storage verifiedFeed = _getVerifiedFeed();\n        require(_isNextTime(publishTime, verifiedFeed));\n        _addNextPriceToFeed(newPrice, verifiedFeed);\n    }\n\n    function latestUnverifiedPrice() external view returns (uint publishTime, int256 price) {\n        return _mostRecentPriceTime(_unverifiedFeed);\n    }\n\n    function latestVerifiedPrice() external view returns (uint publishTime, int256 price) {\n        return _mostRecentPriceTime(_getVerifiedFeed());\n    }\n\n    function unverifiedPrice(uint time) external view returns (uint publishTime, int256 price) {\n        return _getPrice(time, _unverifiedFeed);\n    }\n\n    function verifiedPrice(uint time) external view returns (uint publishTime, int256 price) {\n        return _getPrice(time, _getVerifiedFeed());\n    }\n\n    function _getVerifiedFeed() private view returns (FeedInfo storage feedInfo) {\n        return mirrorFeeds ? _unverifiedFeed : _verifiedFeed;\n    }\n\n    function _isNextTime(uint time, FeedInfo storage feedInfo) private view returns (bool isNextTime) {\n        uint latestPublishTime = feedInfo.latestPublishTime;\n        if (latestPublishTime == 0) {\n            return time == startTime;\n        } else {\n            return time == latestPublishTime.add(pricePublishInterval);\n        }\n    }\n\n    // Returns the most recent price-time pair for a particular feed.\n    function _mostRecentPriceTime(FeedInfo storage feedInfo) private view returns (uint publishTime, int256 price) {\n        // Note: if `latestPublushTime` is still 0 (no prices have been written to this feed), then `price` will be 0\n        // (the default value for mapped values).\n        return (feedInfo.latestPublishTime, feedInfo.prices[feedInfo.latestPublishTime]);\n    }\n\n    // Adds a new price to the mocked out feed. If this were meant for production, we would want to provide the time\n    // and check that the time lines up with the expected next time on the feed.\n    function _addNextPriceToFeed(int256 newPrice, FeedInfo storage feedInfo) private {\n        uint newTime = (feedInfo.latestPublishTime == 0 ?\n            startTime : feedInfo.latestPublishTime.add(pricePublishInterval));\n        assert(feedInfo.prices[newTime] == 0);\n        feedInfo.prices[newTime] = newPrice;\n        feedInfo.latestPublishTime = newTime;\n    }\n\n    // Gets the price given a desired time and feed. If there is no price before `time`, `publishTime` will be 0 and\n    // `price` should be ignored.\n    function _getPrice(uint time, FeedInfo storage feedInfo)\n        private\n        view\n        returns (uint publishTime, int256 price)\n    {\n        uint convertedTime = _intervalTime(time, feedInfo.latestPublishTime);\n        return (convertedTime, feedInfo.prices[convertedTime]);\n    }\n\n    // Gets the closest earlier time to `time` for a particular feed. Effectively floors `time` to the nearest multiple\n    // of `pricePublishInterval` unless the time is outside the bounds of the published times for that feed. If\n    // `time` is later than `latestFeedTime`, `latestFeedTime` is returned. If time is before the global\n    // `startTime` of this feed, then 0 is returned.\n    function _intervalTime(uint time, uint latestFeedTime) private view returns (uint timeInInterval) {\n        if (time < latestFeedTime) {\n            return time < startTime ? 0 : time.div(pricePublishInterval).mul(pricePublishInterval);\n        } else {\n            return latestFeedTime;\n        }\n    }\n}\n",
  "sourcePath": "/Users/matt/git/protocol/contracts/OracleMock.sol",
  "compiler": {
    "name": "solc",
    "version": "0.4.25+commit.59dbf8f1.Emscripten.clang"
  },
  "schemaVersion": "3.0.0-beta.2",
  "updatedAt": "2018-12-13T19:05:44.853Z",
  "devdoc": {
    "methods": {
      "isOwner()": {
        "return": "true if `msg.sender` is the owner of the contract."
      },
      "owner()": {
        "return": "the address of the owner."
      },
      "renounceOwnership()": {
        "details": "Allows the current owner to relinquish control of the contract."
      },
      "transferOwnership(address)": {
        "details": "Allows the current owner to transfer control of the contract to a newOwner.",
        "params": {
          "newOwner": "The address to transfer ownership to."
        }
      }
    }
  },
  "userdoc": {
    "methods": {
      "renounceOwnership()": {
        "notice": "Renouncing to ownership will leave the contract without an owner. It will not be possible to call the functions with the `onlyOwner` modifier anymore."
      }
    }
  }
}