{
  "contractName": "SimpleTokenizedDerivative",
  "abi": [
    {
      "constant": true,
      "inputs": [],
      "name": "provider",
      "outputs": [
        {
          "name": "accountAddress",
          "type": "address"
        },
        {
          "name": "balance",
          "type": "int256"
        },
        {
          "name": "hasConfirmedPrice",
          "type": "bool"
        },
        {
          "name": "marginRequirement",
          "type": "uint256"
        }
      ],
      "payable": false,
      "stateMutability": "view",
      "type": "function"
    },
    {
      "constant": false,
      "inputs": [
        {
          "name": "spender",
          "type": "address"
        },
        {
          "name": "value",
          "type": "uint256"
        }
      ],
      "name": "approve",
      "outputs": [
        {
          "name": "",
          "type": "bool"
        }
      ],
      "payable": false,
      "stateMutability": "nonpayable",
      "type": "function"
    },
    {
      "constant": false,
      "inputs": [],
      "name": "terminate",
      "outputs": [],
      "payable": true,
      "stateMutability": "payable",
      "type": "function"
    },
    {
      "constant": false,
      "inputs": [],
      "name": "settle",
      "outputs": [],
      "payable": false,
      "stateMutability": "nonpayable",
      "type": "function"
    },
    {
      "constant": true,
      "inputs": [],
      "name": "totalSupply",
      "outputs": [
        {
          "name": "",
          "type": "uint256"
        }
      ],
      "payable": false,
      "stateMutability": "view",
      "type": "function"
    },
    {
      "constant": true,
      "inputs": [],
      "name": "investor",
      "outputs": [
        {
          "name": "accountAddress",
          "type": "address"
        },
        {
          "name": "balance",
          "type": "int256"
        },
        {
          "name": "hasConfirmedPrice",
          "type": "bool"
        },
        {
          "name": "marginRequirement",
          "type": "uint256"
        }
      ],
      "payable": false,
      "stateMutability": "view",
      "type": "function"
    },
    {
      "constant": true,
      "inputs": [],
      "name": "fixedFeePerSecond",
      "outputs": [
        {
          "name": "",
          "type": "uint256"
        }
      ],
      "payable": false,
      "stateMutability": "view",
      "type": "function"
    },
    {
      "constant": false,
      "inputs": [
        {
          "name": "from",
          "type": "address"
        },
        {
          "name": "to",
          "type": "address"
        },
        {
          "name": "value",
          "type": "uint256"
        }
      ],
      "name": "transferFrom",
      "outputs": [
        {
          "name": "",
          "type": "bool"
        }
      ],
      "payable": false,
      "stateMutability": "nonpayable",
      "type": "function"
    },
    {
      "constant": true,
      "inputs": [],
      "name": "disputeDeposit",
      "outputs": [
        {
          "name": "",
          "type": "uint256"
        }
      ],
      "payable": false,
      "stateMutability": "view",
      "type": "function"
    },
    {
      "constant": true,
      "inputs": [],
      "name": "prevRemarginTime",
      "outputs": [
        {
          "name": "",
          "type": "uint256"
        }
      ],
      "payable": false,
      "stateMutability": "view",
      "type": "function"
    },
    {
      "constant": false,
      "inputs": [
        {
          "name": "amount",
          "type": "uint256"
        }
      ],
      "name": "withdraw",
      "outputs": [],
      "payable": true,
      "stateMutability": "payable",
      "type": "function"
    },
    {
      "constant": true,
      "inputs": [],
      "name": "endTime",
      "outputs": [
        {
          "name": "",
          "type": "uint256"
        }
      ],
      "payable": false,
      "stateMutability": "view",
      "type": "function"
    },
    {
      "constant": true,
      "inputs": [],
      "name": "lastRemarginTime",
      "outputs": [
        {
          "name": "",
          "type": "uint256"
        }
      ],
      "payable": false,
      "stateMutability": "view",
      "type": "function"
    },
    {
      "constant": false,
      "inputs": [
        {
          "name": "spender",
          "type": "address"
        },
        {
          "name": "addedValue",
          "type": "uint256"
        }
      ],
      "name": "increaseAllowance",
      "outputs": [
        {
          "name": "",
          "type": "bool"
        }
      ],
      "payable": false,
      "stateMutability": "nonpayable",
      "type": "function"
    },
    {
      "constant": true,
      "inputs": [],
      "name": "additionalAuthorizedNav",
      "outputs": [
        {
          "name": "",
          "type": "uint256"
        }
      ],
      "payable": false,
      "stateMutability": "view",
      "type": "function"
    },
    {
      "constant": true,
      "inputs": [],
      "name": "termination",
      "outputs": [
        {
          "name": "nav",
          "type": "int256"
        },
        {
          "name": "terminator",
          "type": "address"
        },
        {
          "name": "fee",
          "type": "uint256"
        }
      ],
      "payable": false,
      "stateMutability": "view",
      "type": "function"
    },
    {
      "constant": true,
      "inputs": [],
      "name": "defaultPenalty",
      "outputs": [
        {
          "name": "",
          "type": "uint256"
        }
      ],
      "payable": false,
      "stateMutability": "view",
      "type": "function"
    },
    {
      "constant": true,
      "inputs": [],
      "name": "whoDefaults",
      "outputs": [
        {
          "name": "inDefault",
          "type": "bool"
        },
        {
          "name": "defaulter",
          "type": "address"
        },
        {
          "name": "notDefaulter",
          "type": "address"
        }
      ],
      "payable": false,
      "stateMutability": "view",
      "type": "function"
    },
    {
      "constant": true,
      "inputs": [
        {
          "name": "owner",
          "type": "address"
        }
      ],
      "name": "balanceOf",
      "outputs": [
        {
          "name": "",
          "type": "uint256"
        }
      ],
      "payable": false,
      "stateMutability": "view",
      "type": "function"
    },
    {
      "constant": true,
      "inputs": [],
      "name": "oracle",
      "outputs": [
        {
          "name": "",
          "type": "address"
        }
      ],
      "payable": false,
      "stateMutability": "view",
      "type": "function"
    },
    {
      "constant": true,
      "inputs": [],
      "name": "tokenPrice",
      "outputs": [
        {
          "name": "",
          "type": "int256"
        }
      ],
      "payable": false,
      "stateMutability": "view",
      "type": "function"
    },
    {
      "constant": false,
      "inputs": [
        {
          "name": "exact",
          "type": "bool"
        }
      ],
      "name": "createTokens",
      "outputs": [],
      "payable": true,
      "stateMutability": "payable",
      "type": "function"
    },
    {
      "constant": false,
      "inputs": [
        {
          "name": "spender",
          "type": "address"
        },
        {
          "name": "subtractedValue",
          "type": "uint256"
        }
      ],
      "name": "decreaseAllowance",
      "outputs": [
        {
          "name": "",
          "type": "bool"
        }
      ],
      "payable": false,
      "stateMutability": "nonpayable",
      "type": "function"
    },
    {
      "constant": false,
      "inputs": [
        {
          "name": "numTokens",
          "type": "uint256"
        }
      ],
      "name": "redeemTokens",
      "outputs": [],
      "payable": false,
      "stateMutability": "nonpayable",
      "type": "function"
    },
    {
      "constant": false,
      "inputs": [
        {
          "name": "to",
          "type": "address"
        },
        {
          "name": "value",
          "type": "uint256"
        }
      ],
      "name": "transfer",
      "outputs": [
        {
          "name": "",
          "type": "bool"
        }
      ],
      "payable": false,
      "stateMutability": "nonpayable",
      "type": "function"
    },
    {
      "constant": false,
      "inputs": [],
      "name": "remargin",
      "outputs": [],
      "payable": false,
      "stateMutability": "nonpayable",
      "type": "function"
    },
    {
      "constant": false,
      "inputs": [],
      "name": "confirmPrice",
      "outputs": [],
      "payable": false,
      "stateMutability": "nonpayable",
      "type": "function"
    },
    {
      "constant": true,
      "inputs": [],
      "name": "product",
      "outputs": [
        {
          "name": "",
          "type": "string"
        }
      ],
      "payable": false,
      "stateMutability": "view",
      "type": "function"
    },
    {
      "constant": true,
      "inputs": [],
      "name": "nav",
      "outputs": [
        {
          "name": "",
          "type": "int256"
        }
      ],
      "payable": false,
      "stateMutability": "view",
      "type": "function"
    },
    {
      "constant": true,
      "inputs": [],
      "name": "state",
      "outputs": [
        {
          "name": "",
          "type": "uint8"
        }
      ],
      "payable": false,
      "stateMutability": "view",
      "type": "function"
    },
    {
      "constant": true,
      "inputs": [],
      "name": "terminationFee",
      "outputs": [
        {
          "name": "",
          "type": "uint256"
        }
      ],
      "payable": false,
      "stateMutability": "view",
      "type": "function"
    },
    {
      "constant": false,
      "inputs": [],
      "name": "deposit",
      "outputs": [],
      "payable": true,
      "stateMutability": "payable",
      "type": "function"
    },
    {
      "constant": true,
      "inputs": [],
      "name": "prevTokenPrice",
      "outputs": [
        {
          "name": "",
          "type": "int256"
        }
      ],
      "payable": false,
      "stateMutability": "view",
      "type": "function"
    },
    {
      "constant": true,
      "inputs": [
        {
          "name": "owner",
          "type": "address"
        },
        {
          "name": "spender",
          "type": "address"
        }
      ],
      "name": "allowance",
      "outputs": [
        {
          "name": "",
          "type": "uint256"
        }
      ],
      "payable": false,
      "stateMutability": "view",
      "type": "function"
    },
    {
      "constant": true,
      "inputs": [],
      "name": "SECONDS_PER_YEAR",
      "outputs": [
        {
          "name": "",
          "type": "uint256"
        }
      ],
      "payable": false,
      "stateMutability": "view",
      "type": "function"
    },
    {
      "constant": false,
      "inputs": [
        {
          "name": "newAuthorizedNavInWei",
          "type": "uint256"
        }
      ],
      "name": "authorizeTokens",
      "outputs": [],
      "payable": true,
      "stateMutability": "payable",
      "type": "function"
    },
    {
      "constant": true,
      "inputs": [],
      "name": "underlyingPrice",
      "outputs": [
        {
          "name": "",
          "type": "int256"
        }
      ],
      "payable": false,
      "stateMutability": "view",
      "type": "function"
    },
    {
      "constant": false,
      "inputs": [],
      "name": "dispute",
      "outputs": [],
      "payable": true,
      "stateMutability": "payable",
      "type": "function"
    },
    {
      "constant": true,
      "inputs": [],
      "name": "prevUnderlyingPrice",
      "outputs": [
        {
          "name": "",
          "type": "int256"
        }
      ],
      "payable": false,
      "stateMutability": "view",
      "type": "function"
    },
    {
      "inputs": [
        {
          "name": "_providerAddress",
          "type": "address"
        },
        {
          "name": "_investorAddress",
          "type": "address"
        },
        {
          "name": "_oracleAddress",
          "type": "address"
        },
        {
          "name": "_defaultPenalty",
          "type": "uint256"
        },
        {
          "name": "_terminationFee",
          "type": "uint256"
        },
        {
          "name": "_providerRequiredMargin",
          "type": "uint256"
        },
        {
          "name": "_product",
          "type": "string"
        },
        {
          "name": "_fixedYearlyFee",
          "type": "uint256"
        },
        {
          "name": "_disputeDeposit",
          "type": "uint256"
        }
      ],
      "payable": true,
      "stateMutability": "payable",
      "type": "constructor"
    },
    {
      "anonymous": false,
      "inputs": [
        {
          "indexed": true,
          "name": "from",
          "type": "address"
        },
        {
          "indexed": true,
          "name": "to",
          "type": "address"
        },
        {
          "indexed": false,
          "name": "value",
          "type": "uint256"
        }
      ],
      "name": "Transfer",
      "type": "event"
    },
    {
      "anonymous": false,
      "inputs": [
        {
          "indexed": true,
          "name": "owner",
          "type": "address"
        },
        {
          "indexed": true,
          "name": "spender",
          "type": "address"
        },
        {
          "indexed": false,
          "name": "value",
          "type": "uint256"
        }
      ],
      "name": "Approval",
      "type": "event"
    },
    {
      "constant": true,
      "inputs": [
        {
          "name": "oldOraclePrice",
          "type": "int256"
        },
        {
          "name": "newOraclePrice",
          "type": "int256"
        }
      ],
      "name": "computeReturn",
      "outputs": [
        {
          "name": "assetReturn",
          "type": "int256"
        }
      ],
      "payable": false,
      "stateMutability": "view",
      "type": "function"
    }
  ],
  "bytecode": "0x608060405260405162004118380380620041188339810180604052810190808051906020019092919080519060200190929190805190602001909291908051906020019092919080519060200190929190805190602001909291908051820192919060200180519060200190929190805190602001909291905050508888888888888888886000808588111515156200009757600080fd5b670de0b6b3a76400008611151515620000af57600080fd5b88600e60006101000a81548173ffffffffffffffffffffffffffffffffffffffff021916908373ffffffffffffffffffffffffffffffffffffffff1602179055506080604051908101604052808c73ffffffffffffffffffffffffffffffffffffffff1681526020016000815260200160001515815260200187815250600660008201518160000160006101000a81548173ffffffffffffffffffffffffffffffffffffffff021916908373ffffffffffffffffffffffffffffffffffffffff1602179055506020820151816001015560408201518160020160006101000a81548160ff021916908315150217905550606082015181600301559050506080604051908101604052808b73ffffffffffffffffffffffffffffffffffffffff16815260200160008152602001600015158152602001670de0b6b3a7640000815250600a60008201518160000160006101000a81548173ffffffffffffffffffffffffffffffffffffffff021916908373ffffffffffffffffffffffffffffffffffffffff1602179055506020820151816001015560408201518160020160006101000a81548160ff021916908315150217905550606082015181600301559050506000601081905550876003819055508460059080519060200190620002979291906200047f565b506301e1338084811515620002a857fe5b046019819055508260118190555086600481905550600019600f81905550600e60009054906101000a900473ffffffffffffffffffffffffffffffffffffffff1673ffffffffffffffffffffffffffffffffffffffff166342a3e7fd6040518163ffffffff167c01000000000000000000000000000000000000000000000000000000000281526004016040805180830381600087803b1580156200034c57600080fd5b505af115801562000361573d6000803e3d6000fd5b505050506040513d60408110156200037857600080fd5b81019080805190602001909291908051906020019092919050505091509150620003b28183620003f7640100000000026401000000009004565b6017819055506000600e60146101000a81548160ff02191690836005811115620003d857fe5b021790555050505050505050505050505050505050505050506200052e565b600080670de0b6b3a76400009050826010819055508260148190555080601581905550806013819055508360168190555083601281905550670de0b6b3a7640000816200045262000475640100000000026401000000009004565b028115156200045d57fe5b059150600082121515156200046e57fe5b5092915050565b6000600254905090565b828054600181600116156101000203166002900490600052602060002090601f016020900481019282601f10620004c257805160ff1916838001178555620004f3565b82800160010185558215620004f3579182015b82811115620004f2578251825591602001919060010190620004d5565b5b50905062000502919062000506565b5090565b6200052b91905b80821115620005275760008160009055506001016200050d565b5090565b90565b613bda806200053e6000396000f3006080604052600436106101ee576000357c0100000000000000000000000000000000000000000000000000000000900463ffffffff168063085d4883146101f3578063095ea7b3146102635780630c08bf88146102c857806311da60b4146102d257806318160ddd146102e95780631e0018d6146103145780632047a0a51461038457806323b872dd146103af57806329e03ff1146104345780632add2f8a1461045f5780632e1a7d4d1461048a5780633197cbb6146104aa57806337790c7c146104d557806339509351146105005780633d9ff9bd14610565578063407343871461059057806353f0366c146105f557806355e59682146106205780636954b4711461066b57806370a08231146107005780637dc0d1d0146107575780637ff9b596146107ae5780638c82a885146107d9578063a457c2d7146107fb578063a6e158f814610860578063a9059cbb1461088d578063bda02e77146108f2578063bde5cdb114610909578063bf9ce95214610920578063c1590cd7146109b0578063c19d93fb146109db578063c7c85baa14610a14578063d0e30db014610a3f578063d9a1a92314610a49578063dd62ed3e14610a74578063e6a69ab814610aeb578063ef215c8f14610b16578063efa32d4914610b36578063f240f7c314610b61578063f625064814610b6b575b600080fd5b3480156101ff57600080fd5b50610208610b96565b604051808573ffffffffffffffffffffffffffffffffffffffff1673ffffffffffffffffffffffffffffffffffffffff1681526020018481526020018315151515815260200182815260200194505050505060405180910390f35b34801561026f57600080fd5b506102ae600480360381019080803573ffffffffffffffffffffffffffffffffffffffff16906020019092919080359060200190929190505050610be1565b604051808215151515815260200191505060405180910390f35b6102d0610d0e565b005b3480156102de57600080fd5b506102e7610f09565b005b3480156102f557600080fd5b506102fe611029565b6040518082815260200191505060405180910390f35b34801561032057600080fd5b50610329611033565b604051808573ffffffffffffffffffffffffffffffffffffffff1673ffffffffffffffffffffffffffffffffffffffff1681526020018481526020018315151515815260200182815260200194505050505060405180910390f35b34801561039057600080fd5b5061039961107e565b6040518082815260200191505060405180910390f35b3480156103bb57600080fd5b5061041a600480360381019080803573ffffffffffffffffffffffffffffffffffffffff169060200190929190803573ffffffffffffffffffffffffffffffffffffffff16906020019092919080359060200190929190505050611084565b604051808215151515815260200191505060405180910390f35b34801561044057600080fd5b5061044961143f565b6040518082815260200191505060405180910390f35b34801561046b57600080fd5b50610474611445565b6040518082815260200191505060405180910390f35b6104a86004803603810190808035906020019092919050505061144b565b005b3480156104b657600080fd5b506104bf6116b5565b6040518082815260200191505060405180910390f35b3480156104e157600080fd5b506104ea6116bb565b6040518082815260200191505060405180910390f35b34801561050c57600080fd5b5061054b600480360381019080803573ffffffffffffffffffffffffffffffffffffffff169060200190929190803590602001909291905050506116c1565b604051808215151515815260200191505060405180910390f35b34801561057157600080fd5b5061057a6118f8565b6040518082815260200191505060405180910390f35b34801561059c57600080fd5b506105a56118fe565b604051808481526020018373ffffffffffffffffffffffffffffffffffffffff1673ffffffffffffffffffffffffffffffffffffffff168152602001828152602001935050505060405180910390f35b34801561060157600080fd5b5061060a611936565b6040518082815260200191505060405180910390f35b34801561062c57600080fd5b50610655600480360381019080803590602001909291908035906020019092919050505061193c565b6040518082815260200191505060405180910390f35b34801561067757600080fd5b5061068061195c565b60405180841515151581526020018373ffffffffffffffffffffffffffffffffffffffff1673ffffffffffffffffffffffffffffffffffffffff1681526020018273ffffffffffffffffffffffffffffffffffffffff1673ffffffffffffffffffffffffffffffffffffffff168152602001935050505060405180910390f35b34801561070c57600080fd5b50610741600480360381019080803573ffffffffffffffffffffffffffffffffffffffff169060200190929190505050611a3f565b6040518082815260200191505060405180910390f35b34801561076357600080fd5b5061076c611a87565b604051808273ffffffffffffffffffffffffffffffffffffffff1673ffffffffffffffffffffffffffffffffffffffff16815260200191505060405180910390f35b3480156107ba57600080fd5b506107c3611aad565b6040518082815260200191505060405180910390f35b6107f9600480360381019080803515159060200190929190505050611ab3565b005b34801561080757600080fd5b50610846600480360381019080803573ffffffffffffffffffffffffffffffffffffffff16906020019092919080359060200190929190505050611ce9565b604051808215151515815260200191505060405180910390f35b34801561086c57600080fd5b5061088b60048036038101908080359060200190929190505050611f20565b005b34801561089957600080fd5b506108d8600480360381019080803573ffffffffffffffffffffffffffffffffffffffff16906020019092919080359060200190929190505050612223565b604051808215151515815260200191505060405180910390f35b3480156108fe57600080fd5b50610907612443565b005b34801561091557600080fd5b5061091e61268c565b005b34801561092c57600080fd5b50610935612908565b6040518080602001828103825283818151815260200191508051906020019080838360005b8381101561097557808201518184015260208101905061095a565b50505050905090810190601f1680156109a25780820380516001836020036101000a031916815260200191505b509250505060405180910390f35b3480156109bc57600080fd5b506109c56129a6565b6040518082815260200191505060405180910390f35b3480156109e757600080fd5b506109f06129ac565b60405180826005811115610a0057fe5b60ff16815260200191505060405180910390f35b348015610a2057600080fd5b50610a296129bf565b6040518082815260200191505060405180910390f35b610a476129c5565b005b348015610a5557600080fd5b50610a5e612a6d565b6040518082815260200191505060405180910390f35b348015610a8057600080fd5b50610ad5600480360381019080803573ffffffffffffffffffffffffffffffffffffffff169060200190929190803573ffffffffffffffffffffffffffffffffffffffff169060200190929190505050612a73565b6040518082815260200191505060405180910390f35b348015610af757600080fd5b50610b00612afa565b6040518082815260200191505060405180910390f35b610b3460048036038101908080359060200190929190505050612b02565b005b348015610b4257600080fd5b50610b4b612bda565b6040518082815260200191505060405180910390f35b610b69612be0565b005b348015610b7757600080fd5b50610b80612e30565b6040518082815260200191505060405180910390f35b60068060000160009054906101000a900473ffffffffffffffffffffffffffffffffffffffff16908060010154908060020160009054906101000a900460ff16908060030154905084565b60008073ffffffffffffffffffffffffffffffffffffffff168373ffffffffffffffffffffffffffffffffffffffff1614151515610c1e57600080fd5b81600160003373ffffffffffffffffffffffffffffffffffffffff1673ffffffffffffffffffffffffffffffffffffffff16815260200190815260200160002060008573ffffffffffffffffffffffffffffffffffffffff1673ffffffffffffffffffffffffffffffffffffffff168152602001908152602001600020819055508273ffffffffffffffffffffffffffffffffffffffff163373ffffffffffffffffffffffffffffffffffffffff167f8c5be1e5ebec7d5bd14f71427d1e84f3dd0314c0f7b2291e5b200ac8c7c3b925846040518082815260200191505060405180910390a36001905092915050565b6000806000600660000160009054906101000a900473ffffffffffffffffffffffffffffffffffffffff1673ffffffffffffffffffffffffffffffffffffffff163373ffffffffffffffffffffffffffffffffffffffff161480610dc25750600a60000160009054906101000a900473ffffffffffffffffffffffffffffffffffffffff1673ffffffffffffffffffffffffffffffffffffffff163373ffffffffffffffffffffffffffffffffffffffff16145b1515610dcd57600080fd5b6017549250610dda612443565b60006005811115610de757fe5b600e60149054906101000a900460ff166005811115610e0257fe5b141515610e0e57600080fd5b610e1a83600454612e36565b9150813410151515610e2b57600080fd5b813403905082601d6000018190555081601d6002018190555033601d60010160006101000a81548173ffffffffffffffffffffffffffffffffffffffff021916908373ffffffffffffffffffffffffffffffffffffffff1602179055506004600e60146101000a81548160ff02191690836005811115610ea757fe5b0217905550601054600f81905550610ebd61268c565b3373ffffffffffffffffffffffffffffffffffffffff166108fc829081150290604051600060405180830381858888f19350505050158015610f03573d6000803e3d6000fd5b50505050565b600080600080600e60149054906101000a900460ff16935060016005811115610f2e57fe5b846005811115610f3a57fe5b1480610f5c575060026005811115610f4e57fe5b846005811115610f5a57fe5b145b80610f7d575060036005811115610f6f57fe5b846005811115610f7b57fe5b145b1515610f8857600080fd5b610f90612e56565b60016005811115610f9d57fe5b846005811115610fa957fe5b141561102357610fdd601a60010160009054906101000a900473ffffffffffffffffffffffffffffffffffffffff1661301e565b92509250601a600201549050601a60000154601754141561100f57808360010160008282540192505081905550611022565b8082600101600082825401925050819055505b5b50505050565b6000600254905090565b600a8060000160009054906101000a900473ffffffffffffffffffffffffffffffffffffffff16908060010154908060020160009054906101000a900460ff16908060030154905084565b60195481565b60008060008573ffffffffffffffffffffffffffffffffffffffff1673ffffffffffffffffffffffffffffffffffffffff1681526020019081526020016000205482111515156110d357600080fd5b600160008573ffffffffffffffffffffffffffffffffffffffff1673ffffffffffffffffffffffffffffffffffffffff16815260200190815260200160002060003373ffffffffffffffffffffffffffffffffffffffff1673ffffffffffffffffffffffffffffffffffffffff16815260200190815260200160002054821115151561115e57600080fd5b600073ffffffffffffffffffffffffffffffffffffffff168373ffffffffffffffffffffffffffffffffffffffff161415151561119a57600080fd5b6111eb826000808773ffffffffffffffffffffffffffffffffffffffff1673ffffffffffffffffffffffffffffffffffffffff1681526020019081526020016000205461310e90919063ffffffff16565b6000808673ffffffffffffffffffffffffffffffffffffffff1673ffffffffffffffffffffffffffffffffffffffff1681526020019081526020016000208190555061127e826000808673ffffffffffffffffffffffffffffffffffffffff1673ffffffffffffffffffffffffffffffffffffffff1681526020019081526020016000205461312f90919063ffffffff16565b6000808573ffffffffffffffffffffffffffffffffffffffff1673ffffffffffffffffffffffffffffffffffffffff1681526020019081526020016000208190555061134f82600160008773ffffffffffffffffffffffffffffffffffffffff1673ffffffffffffffffffffffffffffffffffffffff16815260200190815260200160002060003373ffffffffffffffffffffffffffffffffffffffff1673ffffffffffffffffffffffffffffffffffffffff1681526020019081526020016000205461310e90919063ffffffff16565b600160008673ffffffffffffffffffffffffffffffffffffffff1673ffffffffffffffffffffffffffffffffffffffff16815260200190815260200160002060003373ffffffffffffffffffffffffffffffffffffffff1673ffffffffffffffffffffffffffffffffffffffff168152602001908152602001600020819055508273ffffffffffffffffffffffffffffffffffffffff168473ffffffffffffffffffffffffffffffffffffffff167fddf252ad1be2c89b69c2b068fc378daa952ba7f163c4a11628f55a4df523b3ef846040518082815260200191505060405180910390a3600190509392505050565b60115481565b60145481565b6000600660000160009054906101000a900473ffffffffffffffffffffffffffffffffffffffff1673ffffffffffffffffffffffffffffffffffffffff163373ffffffffffffffffffffffffffffffffffffffff161415156114ac57600080fd5b600060058111156114b957fe5b600e60149054906101000a900460ff1660058111156114d457fe5b148061150457506005808111156114e757fe5b600e60149054906101000a900460ff16600581111561150257fe5b145b151561150f57600080fd5b6000600581111561151c57fe5b600e60149054906101000a900460ff16600581111561153757fe5b141561154657611545612443565b5b60058081111561155257fe5b600e60149054906101000a900460ff16600581111561156d57fe5b1461158b5761157f6006601754613150565b60066001015403611592565b6006600101545b9050818112151515611632576040517f08c379a00000000000000000000000000000000000000000000000000000000081526004018080602001828103825260288152602001807f417474656d7074696e6720746f207769746864726177206d6f7265207468616e81526020017f20616c6c6f77656400000000000000000000000000000000000000000000000081525060400191505060405180910390fd5b81600660010160008282540392505081905550600660000160009054906101000a900473ffffffffffffffffffffffffffffffffffffffff1673ffffffffffffffffffffffffffffffffffffffff166108fc839081150290604051600060405180830381858888f193505050501580156116b0573d6000803e3d6000fd5b505050565b600f5481565b60105481565b60008073ffffffffffffffffffffffffffffffffffffffff168373ffffffffffffffffffffffffffffffffffffffff16141515156116fe57600080fd5b61178d82600160003373ffffffffffffffffffffffffffffffffffffffff1673ffffffffffffffffffffffffffffffffffffffff16815260200190815260200160002060008673ffffffffffffffffffffffffffffffffffffffff1673ffffffffffffffffffffffffffffffffffffffff1681526020019081526020016000205461312f90919063ffffffff16565b600160003373ffffffffffffffffffffffffffffffffffffffff1673ffffffffffffffffffffffffffffffffffffffff16815260200190815260200160002060008573ffffffffffffffffffffffffffffffffffffffff1673ffffffffffffffffffffffffffffffffffffffff168152602001908152602001600020819055508273ffffffffffffffffffffffffffffffffffffffff163373ffffffffffffffffffffffffffffffffffffffff167f8c5be1e5ebec7d5bd14f71427d1e84f3dd0314c0f7b2291e5b200ac8c7c3b925600160003373ffffffffffffffffffffffffffffffffffffffff1673ffffffffffffffffffffffffffffffffffffffff16815260200190815260200160002060008773ffffffffffffffffffffffffffffffffffffffff1673ffffffffffffffffffffffffffffffffffffffff168152602001908152602001600020546040518082815260200191505060405180910390a36001905092915050565b60185481565b601d8060000154908060010160009054906101000a900473ffffffffffffffffffffffffffffffffffffffff16908060020154905083565b60035481565b600082670de0b6b3a7640000830281151561195357fe5b05905092915050565b600080600080925061196e6006613168565b156119cc57600660000160009054906101000a900473ffffffffffffffffffffffffffffffffffffffff169150600660000160009054906101000a900473ffffffffffffffffffffffffffffffffffffffff16905060019250611a31565b6119d6600a613168565b15611a3057600a60000160009054906101000a900473ffffffffffffffffffffffffffffffffffffffff169150600a60000160009054906101000a900473ffffffffffffffffffffffffffffffffffffffff169050600192505b5b828282925092509250909192565b60008060008373ffffffffffffffffffffffffffffffffffffffff1673ffffffffffffffffffffffffffffffffffffffff168152602001908152602001600020549050919050565b600e60009054906101000a900473ffffffffffffffffffffffffffffffffffffffff1681565b60155481565b6000806000600a60000160009054906101000a900473ffffffffffffffffffffffffffffffffffffffff1673ffffffffffffffffffffffffffffffffffffffff163373ffffffffffffffffffffffffffffffffffffffff16141515611b1757600080fd5b611b1f612443565b60006005811115611b2c57fe5b600e60149054906101000a900460ff166005811115611b4757fe5b141515611b5357600080fd5b6018549250600083111515611bf6576040517f08c379a00000000000000000000000000000000000000000000000000000000081526004018080602001828103825260308152602001807f436f6e7472616374206973206e6f7420617574686f72697a656420746f20707281526020017f6f7669646520616e7920746f6b656e730000000000000000000000000000000081525060400191505060405180910390fd5b3491506000905081831015611c2b5783151515611c1257600080fd5b611c25838361310e90919063ffffffff16565b90508291505b611c3e828461310e90919063ffffffff16565b60188190555081600a60010160008282540192505081905550611c6c33611c6784601554613183565b6131a3565b670de0b6b3a7640000601554611c80611029565b02811515611c8a57fe5b05601781905550600081141515611ce3573373ffffffffffffffffffffffffffffffffffffffff166108fc829081150290604051600060405180830381858888f19350505050158015611ce1573d6000803e3d6000fd5b505b50505050565b60008073ffffffffffffffffffffffffffffffffffffffff168373ffffffffffffffffffffffffffffffffffffffff1614151515611d2657600080fd5b611db582600160003373ffffffffffffffffffffffffffffffffffffffff1673ffffffffffffffffffffffffffffffffffffffff16815260200190815260200160002060008673ffffffffffffffffffffffffffffffffffffffff1673ffffffffffffffffffffffffffffffffffffffff1681526020019081526020016000205461310e90919063ffffffff16565b600160003373ffffffffffffffffffffffffffffffffffffffff1673ffffffffffffffffffffffffffffffffffffffff16815260200190815260200160002060008573ffffffffffffffffffffffffffffffffffffffff1673ffffffffffffffffffffffffffffffffffffffff168152602001908152602001600020819055508273ffffffffffffffffffffffffffffffffffffffff163373ffffffffffffffffffffffffffffffffffffffff167f8c5be1e5ebec7d5bd14f71427d1e84f3dd0314c0f7b2291e5b200ac8c7c3b925600160003373ffffffffffffffffffffffffffffffffffffffff1673ffffffffffffffffffffffffffffffffffffffff16815260200190815260200160002060008773ffffffffffffffffffffffffffffffffffffffff1673ffffffffffffffffffffffffffffffffffffffff168152602001908152602001600020546040518082815260200191505060405180910390a36001905092915050565b600080600080600a60000160009054906101000a900473ffffffffffffffffffffffffffffffffffffffff1673ffffffffffffffffffffffffffffffffffffffff163373ffffffffffffffffffffffffffffffffffffffff16148015611fab575060006005811115611f8e57fe5b600e60149054906101000a900460ff166005811115611fa957fe5b145b80611fda5750600580811115611fbd57fe5b600e60149054906101000a900460ff166005811115611fd857fe5b145b1515611fe557600080fd5b60006005811115611ff257fe5b600e60149054906101000a900460ff16600581111561200d57fe5b141561201c5761201b612443565b5b612024611029565b93503073ffffffffffffffffffffffffffffffffffffffff166323b872dd3330886040518463ffffffff167c0100000000000000000000000000000000000000000000000000000000028152600401808473ffffffffffffffffffffffffffffffffffffffff1673ffffffffffffffffffffffffffffffffffffffff1681526020018373ffffffffffffffffffffffffffffffffffffffff1673ffffffffffffffffffffffffffffffffffffffff1681526020018281526020019350505050602060405180830381600087803b1580156120fd57600080fd5b505af1158015612111573d6000803e3d6000fd5b505050506040513d602081101561212757600080fd5b8101908080519060200190929190505050151561214357600080fd5b61214d30866132e1565b600a6001015492506000831215151561216257fe5b61218f84612181670de0b6b3a76400008861346c90919063ffffffff16565b6134aa90919063ffffffff16565b915061219b83836134d4565b905080600a60010160008282540392505081905550670de0b6b3a76400006015546121c4611029565b028115156121ce57fe5b056017819055503373ffffffffffffffffffffffffffffffffffffffff166108fc829081150290604051600060405180830381858888f1935050505015801561221b573d6000803e3d6000fd5b505050505050565b60008060003373ffffffffffffffffffffffffffffffffffffffff1673ffffffffffffffffffffffffffffffffffffffff16815260200190815260200160002054821115151561227257600080fd5b600073ffffffffffffffffffffffffffffffffffffffff168373ffffffffffffffffffffffffffffffffffffffff16141515156122ae57600080fd5b6122ff826000803373ffffffffffffffffffffffffffffffffffffffff1673ffffffffffffffffffffffffffffffffffffffff1681526020019081526020016000205461310e90919063ffffffff16565b6000803373ffffffffffffffffffffffffffffffffffffffff1673ffffffffffffffffffffffffffffffffffffffff16815260200190815260200160002081905550612392826000808673ffffffffffffffffffffffffffffffffffffffff1673ffffffffffffffffffffffffffffffffffffffff1681526020019081526020016000205461312f90919063ffffffff16565b6000808573ffffffffffffffffffffffffffffffffffffffff1673ffffffffffffffffffffffffffffffffffffffff168152602001908152602001600020819055508273ffffffffffffffffffffffffffffffffffffffff163373ffffffffffffffffffffffffffffffffffffffff167fddf252ad1be2c89b69c2b068fc378daa952ba7f163c4a11628f55a4df523b3ef846040518082815260200191505060405180910390a36001905092915050565b600080600080600581111561245457fe5b600e60149054906101000a900460ff16600581111561246f57fe5b14151561247b57600080fd5b600e60009054906101000a900473ffffffffffffffffffffffffffffffffffffffff1673ffffffffffffffffffffffffffffffffffffffff166342a3e7fd6040518163ffffffff167c01000000000000000000000000000000000000000000000000000000000281526004016040805180830381600087803b15801561250057600080fd5b505af1158015612514573d6000803e3d6000fd5b505050506040513d604081101561252a57600080fd5b810190808051906020019092919080519060200190929190505050925092506000831415151561255957600080fd5b600f548310151561266857600e60009054906101000a900473ffffffffffffffffffffffffffffffffffffffff1673ffffffffffffffffffffffffffffffffffffffff1663ff0b22ce600f546040518263ffffffff167c0100000000000000000000000000000000000000000000000000000000028152600401808281526020019150506040805180830381600087803b1580156125f657600080fd5b505af115801561260a573d6000803e3d6000fd5b505050506040513d604081101561262057600080fd5b81019080805190602001909291908051906020019092919050505080935081945050506002600e60146101000a81548160ff0219169083600581111561266257fe5b02179055505b612672828461350b565b905061267d816135cf565b61268681613708565b50505050565b600660000160009054906101000a900473ffffffffffffffffffffffffffffffffffffffff1673ffffffffffffffffffffffffffffffffffffffff163373ffffffffffffffffffffffffffffffffffffffff16148061273b5750600a60000160009054906101000a900473ffffffffffffffffffffffffffffffffffffffff1673ffffffffffffffffffffffffffffffffffffffff163373ffffffffffffffffffffffffffffffffffffffff16145b151561274657600080fd5b6002600581111561275357fe5b600e60149054906101000a900460ff16600581111561276e57fe5b148061279f57506003600581111561278257fe5b600e60149054906101000a900460ff16600581111561279d57fe5b145b806127cf5750600460058111156127b257fe5b600e60149054906101000a900460ff1660058111156127cd57fe5b145b15156127da57600080fd5b600660000160009054906101000a900473ffffffffffffffffffffffffffffffffffffffff1673ffffffffffffffffffffffffffffffffffffffff163373ffffffffffffffffffffffffffffffffffffffff161415612852576001600660020160006101000a81548160ff0219169083151502179055505b600a60000160009054906101000a900473ffffffffffffffffffffffffffffffffffffffff1673ffffffffffffffffffffffffffffffffffffffff163373ffffffffffffffffffffffffffffffffffffffff1614156128ca576001600a60020160006101000a81548160ff0219169083151502179055505b600660020160009054906101000a900460ff1680156128f85750600a60020160009054906101000a900460ff165b15612906576129056137c0565b5b565b60058054600181600116156101000203166002900480601f01602080910402602001604051908101604052809291908181526020018280546001816001161561010002031660029004801561299e5780601f106129735761010080835404028352916020019161299e565b820191906000526020600020905b81548152906001019060200180831161298157829003601f168201915b505050505081565b60175481565b600e60149054906101000a900460ff1681565b60045481565b600660000160009054906101000a900473ffffffffffffffffffffffffffffffffffffffff1673ffffffffffffffffffffffffffffffffffffffff163373ffffffffffffffffffffffffffffffffffffffff16141515612a2457600080fd5b60006005811115612a3157fe5b600e60149054906101000a900460ff166005811115612a4c57fe5b141515612a5857600080fd5b34600660010160008282540192505081905550565b60135481565b6000600160008473ffffffffffffffffffffffffffffffffffffffff1673ffffffffffffffffffffffffffffffffffffffff16815260200190815260200160002060008373ffffffffffffffffffffffffffffffffffffffff1673ffffffffffffffffffffffffffffffffffffffff16815260200190815260200160002054905092915050565b6301e1338081565b600660000160009054906101000a900473ffffffffffffffffffffffffffffffffffffffff1673ffffffffffffffffffffffffffffffffffffffff163373ffffffffffffffffffffffffffffffffffffffff16141515612b6157600080fd5b612b696129c5565b612b71612443565b60006005811115612b7e57fe5b600e60149054906101000a900460ff166005811115612b9957fe5b141515612ba557600080fd5b612bba8160185461312f90919063ffffffff16565b601881905550612bcb601754613708565b151515612bd757600080fd5b50565b60165481565b600080600660000160009054906101000a900473ffffffffffffffffffffffffffffffffffffffff1673ffffffffffffffffffffffffffffffffffffffff163373ffffffffffffffffffffffffffffffffffffffff161480612c925750600a60000160009054906101000a900473ffffffffffffffffffffffffffffffffffffffff1673ffffffffffffffffffffffffffffffffffffffff163373ffffffffffffffffffffffffffffffffffffffff16145b1515612c9d57600080fd5b60006005811115612caa57fe5b600e60149054906101000a900460ff166005811115612cc557fe5b141515612d3a576040517f08c379a00000000000000000000000000000000000000000000000000000000081526004018080602001828103825260208152602001807f436f6e7472616374206d757374206265204c69766520746f206469737075746581525060200191505060405180910390fd5b612d48601754601154612e36565b9150813410151515612d5957600080fd5b81340390506001600e60146101000a81548160ff02191690836005811115612d7d57fe5b0217905550601054600f81905550601754601a6000018190555033601a60010160006101000a81548173ffffffffffffffffffffffffffffffffffffffff021916908373ffffffffffffffffffffffffffffffffffffffff16021790555081601a600201819055503373ffffffffffffffffffffffffffffffffffffffff166108fc829081150290604051600060405180830381858888f19350505050158015612e2b573d6000803e3d6000fd5b505050565b60125481565b6000670de0b6b3a7640000828402811515612e4d57fe5b05905092915050565b600080600e60009054906101000a900473ffffffffffffffffffffffffffffffffffffffff1673ffffffffffffffffffffffffffffffffffffffff1663af7033ff6040518163ffffffff167c01000000000000000000000000000000000000000000000000000000000281526004016040805180830381600087803b158015612ede57600080fd5b505af1158015612ef2573d6000803e3d6000fd5b505050506040513d6040811015612f0857600080fd5b810190808051906020019092919080519060200190929190505050509150600f548210151515612f3757600080fd5b600e60009054906101000a900473ffffffffffffffffffffffffffffffffffffffff1673ffffffffffffffffffffffffffffffffffffffff1663d2d4dab1600f546040518263ffffffff167c0100000000000000000000000000000000000000000000000000000000028152600401808281526020019150506040805180830381600087803b158015612fc957600080fd5b505af1158015612fdd573d6000803e3d6000fd5b505050506040513d6040811015612ff357600080fd5b81019080805190602001909291908051906020019092919050505091505061301a81613988565b5050565b600080600080600660000160009054906101000a900473ffffffffffffffffffffffffffffffffffffffff1673ffffffffffffffffffffffffffffffffffffffff168573ffffffffffffffffffffffffffffffffffffffff16149150600a60000160009054906101000a900473ffffffffffffffffffffffffffffffffffffffff1673ffffffffffffffffffffffffffffffffffffffff168573ffffffffffffffffffffffffffffffffffffffff1614905081806130d95750805b15156130e457600080fd5b816130f857600a6006819150809050613103565b6006600a8191508090505b935093505050915091565b60008083831115151561312057600080fd5b82840390508091505092915050565b600080828401905083811015151561314657600080fd5b8091505092915050565b6000613160828460030154612e36565b905092915050565b600061317682601754613150565b8260010154129050919050565b600081670de0b6b3a7640000840281151561319a57fe5b05905092915050565b60008273ffffffffffffffffffffffffffffffffffffffff16141515156131c957600080fd5b6131de8160025461312f90919063ffffffff16565b600281905550613235816000808573ffffffffffffffffffffffffffffffffffffffff1673ffffffffffffffffffffffffffffffffffffffff1681526020019081526020016000205461312f90919063ffffffff16565b6000808473ffffffffffffffffffffffffffffffffffffffff1673ffffffffffffffffffffffffffffffffffffffff168152602001908152602001600020819055508173ffffffffffffffffffffffffffffffffffffffff16600073ffffffffffffffffffffffffffffffffffffffff167fddf252ad1be2c89b69c2b068fc378daa952ba7f163c4a11628f55a4df523b3ef836040518082815260200191505060405180910390a35050565b60008273ffffffffffffffffffffffffffffffffffffffff161415151561330757600080fd5b6000808373ffffffffffffffffffffffffffffffffffffffff1673ffffffffffffffffffffffffffffffffffffffff16815260200190815260200160002054811115151561335457600080fd5b6133698160025461310e90919063ffffffff16565b6002819055506133c0816000808573ffffffffffffffffffffffffffffffffffffffff1673ffffffffffffffffffffffffffffffffffffffff1681526020019081526020016000205461310e90919063ffffffff16565b6000808473ffffffffffffffffffffffffffffffffffffffff1673ffffffffffffffffffffffffffffffffffffffff16815260200190815260200160002081905550600073ffffffffffffffffffffffffffffffffffffffff168273ffffffffffffffffffffffffffffffffffffffff167fddf252ad1be2c89b69c2b068fc378daa952ba7f163c4a11628f55a4df523b3ef836040518082815260200191505060405180910390a35050565b600080600084141561348157600091506134a3565b828402905082848281151561349257fe5b0414151561349f57600080fd5b8091505b5092915050565b6000806000831115156134bc57600080fd5b82848115156134c757fe5b0490508091505092915050565b6000613503670de0b6b3a76400006134f5848661346c90919063ffffffff16565b6134aa90919063ffffffff16565b905092915050565b60008060008061351d6016548761193c565b925061355a61354b61353a6010548861310e90919063ffffffff16565b60195461346c90919063ffffffff16565b8461310e90919063ffffffff16565b915061356860155483612e36565b9050670de0b6b3a76400008161357c611029565b0281151561358657fe5b0593506000841215151561359657fe5b60165460128190555085601681905550601554601381905550806015819055506010546014819055508460108190555050505092915050565b60008060008060175493506135e385613a94565b6135eb61195c565b8093508194508295505050508215613701576003600e60146101000a81548160ff0219169083600581111561361c57fe5b021790555083601d60000181905550600e60009054906101000a900473ffffffffffffffffffffffffffffffffffffffff1673ffffffffffffffffffffffffffffffffffffffff166342a3e7fd6040518163ffffffff167c01000000000000000000000000000000000000000000000000000000000281526004016040805180830381600087803b1580156136b057600080fd5b505af11580156136c4573d6000803e3d6000fd5b505050506040513d60408110156136da57600080fd5b81019080805190602001909291908051906020019092919050505050600f60008291905055505b5050505050565b600080600080600080600581111561371c57fe5b600e60149054906101000a900460ff16600581111561373757fe5b1415156137545760006018541415945060006018819055506137b7565b60185486019350613766600685613150565b92506006600101549150818313156137b257600660030154670de0b6b3a7640000830281151561379257fe5b05905085811315156137a057fe5b858103601881905550600194506137b7565b600094505b50505050919050565b600080600e60009054906101000a900473ffffffffffffffffffffffffffffffffffffffff1673ffffffffffffffffffffffffffffffffffffffff166342a3e7fd6040518163ffffffff167c01000000000000000000000000000000000000000000000000000000000281526004016040805180830381600087803b15801561384857600080fd5b505af115801561385c573d6000803e3d6000fd5b505050506040513d604081101561387257600080fd5b810190808051906020019092919080519060200190929190505050509150600f5482101515156138a157600080fd5b600e60009054906101000a900473ffffffffffffffffffffffffffffffffffffffff1673ffffffffffffffffffffffffffffffffffffffff1663ff0b22ce600f546040518263ffffffff167c0100000000000000000000000000000000000000000000000000000000028152600401808281526020019150506040805180830381600087803b15801561393357600080fd5b505af1158015613947573d6000803e3d6000fd5b505050506040513d604081101561395d57600080fd5b81019080805190602001909291908051906020019092919050505091505061398481613988565b5050565b6000806000806000806000806139a86139a38a600f54613ad2565b613a94565b6139b061195c565b50975097508715613a10576139c48761301e565b955095506139d0613b88565b9250828660010154126139e357826139e9565b85600101545b93508386600101600082825403925050819055508385600101600082825401925050819055505b601d6002015491506000821315613a6557613a4f601d60010160009054906101000a900473ffffffffffffffffffffffffffffffffffffffff1661301e565b9150508181600101600082825401925050819055505b6005600e60146101000a81548160ff02191690836005811115613a8457fe5b0217905550505050505050505050565b6000613a9f82613ba0565b90508160178190555080600a60010160008282540192505081905550806006600101600082825403925050819055505050565b60008060008084601054141515613ae557fe5b613af16012548761193c565b9250613b2e613b1f613b0e6014548861310e90919063ffffffff16565b60195461346c90919063ffffffff16565b8461310e90919063ffffffff16565b9150613b3c60135483612e36565b9050670de0b6b3a764000081613b50611029565b02811515613b5a57fe5b05935060008412151515613b6a57fe5b85601681905550806015819055508460108190555050505092915050565b6000613b9b601d60000154600354612e36565b905090565b6000601754820390509190505600a165627a7a72305820d92ec67a504248aca37cb9d3349594209ded6116c79a42a80f7504502a53fdf40029",
  "source": "/*\n  Tokenized Derivative implementation\n\n  Implements a simplified version of tokenized Product/ETH Products.\n*/\npragma solidity >=0.4.24;\n\nimport \"openzeppelin-solidity/contracts/math/SafeMath.sol\";\nimport \"openzeppelin-solidity/contracts/token/ERC20/ERC20.sol\";\nimport \"./OracleInterface.sol\";\nimport \"./ContractCreator.sol\";\n\n\n// TODO(mrice32): make this and TotalReturnSwap derived classes of a single base to encap common functionality.\ncontract TokenizedDerivative is ERC20 {\n\n    // Note: SafeMath only works for uints right now.\n    using SafeMath for uint;\n    // using SafeMath for int256;\n\n    enum State {\n        // The contract is funded, the required margin has been provided by both parties, and remargining is happening\n        // on demand. Parties are only able to withdraw down to the required margin.\n        // Possible state transitions: Disputed, Expired, Defaulted.\n        Live,\n\n        // One of the parties has disputed the price feed. The contract is frozen until the dispute is resolved.\n        // Possible state transitions: Defaulted, Settled.\n        Disputed,\n\n        // The contract has passed its expiration and the final remargin has occurred. It is still possible to dispute\n        // the settlement price.\n        // Possible state transitions: Disputed, Settled.\n        Expired,\n\n        // One party failed to keep their margin above the required margin, so the contract has gone into default. If\n        // the price is undisputed then the defaulting party will be required to pay a default penalty, but, if\n        // disputed, contract becomes disputed and penalty will only be paid if verified price confirms default. If both\n        // parties agree the contract is in default then becomes settled\n        // Possible state transitions: Disputed, Settled\n        Defaulted,\n\n        // The contract has been terminated by one party. That party can no longer dispute the price, but the other\n        // party can. If a dispute occurs, the termination fee is refunded to the sender.\n        // Possible state transitions: Disputed, Settled.\n        Terminated,\n\n        // The final remargin has occured, and all parties have agreed on the settlement price. Account balances can be\n        // fully withdrawn.\n        // Possible state transitions: None.\n        Settled\n    }\n\n    struct ContractParty {\n        address accountAddress;\n        int256 balance;\n        bool hasConfirmedPrice;\n        uint marginRequirement; // Percentage of nav*10^18\n    }\n\n    // Financial information\n    uint public defaultPenalty; // Percentage of nav*10^18\n    uint public terminationFee; // Percentage of nav*10^18\n    string public product;\n\n    // Other addresses/contracts\n    ContractParty public provider;\n    ContractParty public investor;\n    OracleInterface public oracle;\n\n    State public state;\n    uint public endTime;\n    uint public lastRemarginTime;\n    uint public disputeDeposit;\n\n    // TODO(mrice32): try to remove these previous variables as they are a gas hog.\n    int public prevUnderlyingPrice;\n    int public prevTokenPrice;\n    uint public prevRemarginTime;\n\n    int256 public tokenPrice;\n    int256 public underlyingPrice;\n    int256 public nav;  // Net asset value is measured in Wei\n\n    uint public additionalAuthorizedNav;\n\n    uint public fixedFeePerSecond;\n\n    // The information in the following struct is only valid if in the midst of a Dispute.\n    struct Dispute {\n        int256 disputedNav;\n        address disputer;\n        uint deposit;\n    }\n\n    Dispute public dispute;\n\n    // The information in the following struct is only valid if in the midst of a Default or Termination.\n    struct Termination {\n        int nav;\n        // Note: the following fields are only valid if being terminated voluntarily without default.\n        address terminator;\n        uint fee;\n    }\n\n    Termination public termination;\n\n    uint public constant SECONDS_PER_YEAR = 31536000;\n\n    modifier onlyContractParties {\n        require(msg.sender == provider.accountAddress || msg.sender == investor.accountAddress);\n        _;\n    }\n\n    modifier onlyInvestor {\n        require(msg.sender == investor.accountAddress);\n        _;\n    }\n\n    modifier onlyProvider {\n        require(msg.sender == provider.accountAddress);\n        _;\n    }\n\n    constructor(\n        address _providerAddress,\n        address _investorAddress,\n        address _oracleAddress,\n        uint _defaultPenalty, // Percentage of nav*10^18\n        uint _terminationFee, // Percentage of nav*10^18\n        uint _providerRequiredMargin, // Percentage of nav*10^18\n        string _product,\n        uint _fixedYearlyFee, // Percentage of nav * 10^18\n        uint _disputeDeposit // Percentage of nav * 10^18\n    ) public payable {\n        // The default penalty must be less than the required margin, which must be less than the NAV.\n        require(_defaultPenalty <= _providerRequiredMargin);\n        require(_providerRequiredMargin <= 1 ether);\n\n        // Address information\n        oracle = OracleInterface(_oracleAddress);\n        provider = ContractParty(_providerAddress, 0, false, _providerRequiredMargin);\n\n        // Note: the investor is required to have 100% margin at all times.\n        investor = ContractParty(_investorAddress, 0, false, 1 ether);\n\n        // Contract states\n        lastRemarginTime = 0;\n        defaultPenalty = _defaultPenalty;\n        product = _product;\n        fixedFeePerSecond = _fixedYearlyFee / SECONDS_PER_YEAR;\n        disputeDeposit = _disputeDeposit;\n        terminationFee = _terminationFee;\n\n        // Set end time to max value of uint to implement no expiry.\n        endTime = ~uint(0);\n\n\n        // TODO(mrice32): we should have an ideal start time rather than blindly polling.\n        (uint currentTime, int oraclePrice) = oracle.latestUnverifiedPrice();\n        nav = initialNav(oraclePrice, currentTime);\n\n        state = State.Live;\n    }\n\n    function authorizeTokens(uint newAuthorizedNavInWei) external payable onlyProvider {\n        deposit();\n        remargin();\n\n        require(state == State.Live);\n\n        additionalAuthorizedNav = additionalAuthorizedNav.add(newAuthorizedNavInWei);\n        require(!_reduceAuthorizedTokens(nav));\n    }\n\n    function createTokens(bool exact) external payable onlyInvestor {\n        remargin();\n\n        require(state == State.Live);\n\n        uint authorizedNav = additionalAuthorizedNav;\n        require(authorizedNav > 0, \"Contract is not authorized to provide any tokens\");\n\n        uint navToPurchase = msg.value;\n        uint refund = 0;\n\n        if (authorizedNav < navToPurchase) {\n            require(!exact);\n\n            refund = navToPurchase.sub(authorizedNav);\n            navToPurchase = authorizedNav;\n        }\n\n        additionalAuthorizedNav = authorizedNav.sub(navToPurchase);\n        investor.balance += int256(navToPurchase);\n\n        _mint(msg.sender, uint(_tokensFromNav(int256(navToPurchase), tokenPrice)));\n\n        nav = (int(totalSupply()) * tokenPrice) / 1 ether;\n\n        if (refund != 0) {\n            msg.sender.transfer(refund);\n        }\n    }\n\n    function redeemTokens(uint numTokens) external {\n        require((msg.sender == investor.accountAddress && state == State.Live)\n            || state == State.Settled);\n\n        if (state == State.Live) {\n            remargin();\n        }\n\n        uint initialSupply = totalSupply();\n\n        require(this.transferFrom(msg.sender, this, numTokens));\n        _burn(this, numTokens);\n\n\n        int256 investorBalance = investor.balance;\n        assert(investorBalance >= 0);\n\n\n        // Value of the tokens is just the percentage of all the tokens multiplied by the balance of the investor\n        // margin account.\n        uint tokenPercentage = numTokens.mul(1 ether).div(initialSupply);\n        uint tokenValue = _takePercentage(uint(investorBalance), tokenPercentage);\n\n        investor.balance -= int256(tokenValue);\n        nav = (int(totalSupply()) * tokenPrice) / 1 ether;\n\n        msg.sender.transfer(tokenValue);\n    }\n\n    function computeReturn(int oldOraclePrice, int newOraclePrice) public view returns (int assetReturn);\n\n    function confirmPrice() public onlyContractParties {\n        // Right now, only dispute if in a pre-settlement state\n        require(state == State.Expired || state == State.Defaulted || state == State.Terminated);\n\n        if (msg.sender == provider.accountAddress) {\n            provider.hasConfirmedPrice = true;\n        }\n\n        if (msg.sender == investor.accountAddress) {\n            investor.hasConfirmedPrice = true;\n        }\n\n        // If both have confirmed then advance state to settled\n        // Should add some kind of a time check here -- If both have confirmed or one confirmed and sufficient time\n        // passes then we want to settle and remargin\n        if (provider.hasConfirmedPrice && investor.hasConfirmedPrice) {\n            // Remargin on agreed upon price\n            _settleAgreedPrice();\n        }\n    }\n\n    function deposit() public payable onlyProvider {\n        // Only allow the provider to deposit margin.\n\n        // Make sure that one of participants is sending the deposit and that\n        // we are in a \"depositable\" state\n        require(state == State.Live);\n        provider.balance += int256(msg.value);  // Want this to be safemath when available\n    }\n\n    function dispute() public payable onlyContractParties {\n        require(\n            // TODO: We need to add the dispute bond logic\n            state == State.Live,\n            \"Contract must be Live to dispute\"\n        );\n\n        uint requiredDeposit = uint(_takePercentage(nav, disputeDeposit));\n\n        require(msg.value >= requiredDeposit);\n        uint refund = msg.value - requiredDeposit;\n\n        state = State.Disputed;\n        endTime = lastRemarginTime;\n        dispute.disputedNav = nav;\n        dispute.disputer = msg.sender;\n        dispute.deposit = requiredDeposit;\n\n        msg.sender.transfer(refund);\n    }\n\n    function remargin() public {\n        // If the state is not live, remargining does not make sense.\n        require(state == State.Live);\n\n        // Checks whether contract has ended\n        (uint currentTime, int256 oraclePrice) = oracle.latestUnverifiedPrice();\n        require(currentTime != 0);\n        if (currentTime >= endTime) {\n            (currentTime, oraclePrice) = oracle.unverifiedPrice(endTime);\n            state = State.Expired;\n        }\n\n        // Update nav of contract\n\n        int256 newNav = computeNav(oraclePrice, currentTime);\n        _remargin(newNav);\n        _reduceAuthorizedTokens(newNav);\n    }\n\n    function settle() public {\n        State startingState = state;\n        require(startingState == State.Disputed || startingState == State.Expired || startingState == State.Defaulted);\n        _settleVerifiedPrice();\n        if (startingState == State.Disputed) {\n            (ContractParty storage disputer, ContractParty storage notDisputer) = _whoAmI(dispute.disputer);\n            int256 depositValue = int256(dispute.deposit);\n            if (nav == dispute.disputedNav) {\n                disputer.balance += depositValue;\n            } else {\n                notDisputer.balance += depositValue;\n            }\n        }\n    }\n\n    function withdraw(uint256 amount) public payable onlyProvider {\n        // Make sure either in Live or Settled\n        require(state == State.Live || state == State.Settled);\n\n        // Remargin before allowing a withdrawal, but only if in the live state.\n        if (state == State.Live) {\n            remargin();\n        }\n\n        // If the contract has been settled or is in prefunded state then can\n        // withdraw up to full balance. If the contract is in live state then\n        // must leave at least `requiredMargin`. Not allowed to withdraw in\n        // other states\n        int256 withdrawableAmount = (state == State.Settled) ?\n            provider.balance :\n            provider.balance - _getRequiredEthMargin(provider, nav);\n\n        // Can only withdraw the allowed amount\n        require(\n            (int256(withdrawableAmount) >= int256(amount)),\n            \"Attempting to withdraw more than allowed\"\n        );\n\n        // Transfer amount - Note: important to `-=` before the send so that the\n        // function can not be called multiple times while waiting for transfer\n        // to return\n        provider.balance -= int256(amount);\n        provider.accountAddress.transfer(amount);\n    }\n\n    function terminate() public payable onlyContractParties {\n        int terminationNav = nav;\n\n        remargin();\n\n        require(state == State.Live);\n\n        uint requiredDeposit = uint(_takePercentage(terminationNav, terminationFee));\n\n        require(msg.value >= requiredDeposit);\n        uint refund = msg.value - requiredDeposit;\n\n        termination.nav = terminationNav;\n        termination.fee = requiredDeposit;\n        termination.terminator = msg.sender;\n\n        state = State.Terminated;\n        endTime = lastRemarginTime;\n\n        confirmPrice();\n\n        msg.sender.transfer(refund);\n    }\n\n    // TODO: Think about a cleaner way to do this -- It's ugly because we're leveraging the \"ContractParty\" struct in\n    //       every other place and here we're returning addresses. We probably want a nice public method that returns\n    //       something intuitive and an internal method that's a little easier to use inside the contract, but messier\n    //       for outside\n    function whoDefaults() public view returns (bool inDefault, address defaulter, address notDefaulter) {\n        inDefault = false;\n\n        if (_isDefault(provider)) {\n            defaulter = provider.accountAddress;\n            notDefaulter = provider.accountAddress;\n            inDefault = true; \n        } else if (_isDefault(investor)) {\n            defaulter = investor.accountAddress;\n            notDefaulter = investor.accountAddress;\n            inDefault = true;\n        }\n\n        return (inDefault, defaulter, notDefaulter);\n    }\n\n    function _getRequiredEthMargin(ContractParty storage party, int256 currentNav)\n        internal\n        view\n        returns (int256 requiredEthMargin)\n    {\n        return _takePercentage(currentNav, party.marginRequirement);\n    }\n\n    function _isDefault(ContractParty storage party) internal view returns (bool) {\n        return party.balance < _getRequiredEthMargin(party, nav);\n    }\n\n    function _whoAmI(address sndrAddr) internal view returns (ContractParty storage sndr, ContractParty storage othr) {\n        bool senderIsProvider = (sndrAddr == provider.accountAddress);\n        bool senderIsInvestor = (sndrAddr == investor.accountAddress);\n        require(senderIsProvider || senderIsInvestor); // At least one should be true\n\n        return senderIsProvider ? (provider, investor) : (investor, provider);\n    }\n\n    // Function is internally only called by `_settleAgreedPrice` or `_settleVerifiedPrice`. This function handles all \n    // of the settlement logic including assessing penalties and then moves the state to `Settled`.\n    function _settle(int256 price) internal {\n\n        // Remargin at whatever price we're using (verified or unverified)\n        _updateBalances(recomputeNav(price, endTime));\n\n        // Check whether goes into default\n        (bool inDefault, address _defaulter, ) = whoDefaults();\n\n        if (inDefault) {\n            (ContractParty storage defaulter, ContractParty storage notDefaulter) = _whoAmI(_defaulter);\n            int256 penalty;\n            int256 expectedDefaultPenalty = _getDefaultPenaltyEth();\n            penalty = (defaulter.balance < expectedDefaultPenalty) ?\n                defaulter.balance :\n                expectedDefaultPenalty;\n\n            defaulter.balance -= penalty;\n            notDefaulter.balance += penalty;\n        }\n\n        int termFee = int(termination.fee);\n\n        if (termFee > 0) {\n            (, ContractParty storage notTerminator) = _whoAmI(termination.terminator);\n            notTerminator.balance += termFee;\n        }\n        state = State.Settled;\n    }\n\n    function _settleAgreedPrice() internal {\n        (uint currentTime,) = oracle.latestUnverifiedPrice();\n        require(currentTime >= endTime);\n        (, int256 oraclePrice) = oracle.unverifiedPrice(endTime);\n\n        _settle(oraclePrice);\n    }\n\n    function _settleVerifiedPrice() internal {\n        (uint currentTime,) = oracle.latestVerifiedPrice();\n        require(currentTime >= endTime);\n        (, int256 oraclePrice) = oracle.verifiedPrice(endTime);\n\n        _settle(oraclePrice);\n    }\n\n    // Remargins the account based on a provided NAV value.\n    // The internal remargin method allows certain calls into the contract to\n    // automatically remargin to non-current NAV values (time of expiry, last\n    // agreed upon price, etc).\n    function _remargin(int256 navNew) internal {\n        // Save the current NAV in case it's required to compute the default penalty.\n        int previousNav = nav;\n\n        // Update the balances of contract\n        _updateBalances(navNew);\n\n        // Make sure contract has not moved into default\n        bool inDefault;\n        address defaulter;\n        address notDefaulter;\n        (inDefault, defaulter, notDefaulter) = whoDefaults();\n        if (inDefault) {\n            state = State.Defaulted;\n            termination.nav = previousNav;\n\n            // TODO(mrice32): Pass in the current time rather than querying it.\n            (endTime,) = oracle.latestUnverifiedPrice(); // Change end time to moment when default occurred\n        }\n    }\n\n    function _updateBalances(int256 navNew) internal {\n        // Compute difference -- Add the difference to owner and subtract\n        // from counterparty. Then update nav state variable.\n        int256 longDiff = _getLongNavDiff(navNew);\n        nav = navNew;\n\n        investor.balance += longDiff;\n        provider.balance -= longDiff;\n    }\n\n    // Gets the change in balance for the long side.\n    // Note: there's a function for this because signage is tricky here, and it must be done the same everywhere.\n    function _getLongNavDiff(int256 navNew) internal view returns (int256 longNavDiff) {\n        return navNew - nav;\n    }\n\n    function _reduceAuthorizedTokens(int256 currentNav) internal returns (bool didReduce) {\n        if (state != State.Live) {\n            didReduce = additionalAuthorizedNav != 0;\n            additionalAuthorizedNav = 0;\n            return;\n        }\n\n        int256 totalAuthorizedNav = currentNav + int256(additionalAuthorizedNav);\n        int256 reqMargin = _getRequiredEthMargin(provider, totalAuthorizedNav);\n        int256 providerBalance = provider.balance;\n\n        if (reqMargin > providerBalance) {\n            // Not enough margin to maintain additionalAuthorizedNav\n            int256 navCap = (providerBalance * 1 ether) / int256(provider.marginRequirement);\n            assert(navCap > currentNav);\n            additionalAuthorizedNav = uint(navCap - currentNav);\n            return true;\n        }\n\n        return false;\n    }\n\n    function _getDefaultPenaltyEth() internal view returns (int256 penalty) {\n        return _takePercentage(termination.nav, defaultPenalty);\n    }\n\n    function _tokensFromNav(int256 currentNav, int256 unitNav) internal pure returns (int256 numTokens) {\n        return (currentNav * 1 ether) / unitNav;\n    }\n\n    function computeNav(int256 oraclePrice, uint currentTime) private returns (int256 navNew) {\n        int underlyingReturn = computeReturn(underlyingPrice, oraclePrice);\n        uint tokenReturn = uint(underlyingReturn).sub(fixedFeePerSecond.mul(currentTime.sub(lastRemarginTime)));\n        int newTokenPrice = _takePercentage(tokenPrice, tokenReturn);\n        navNew = (int(totalSupply()) * newTokenPrice) / 1 ether;\n        assert(navNew >= 0);\n        prevUnderlyingPrice = underlyingPrice;\n        underlyingPrice = oraclePrice;\n        prevTokenPrice = tokenPrice;\n        tokenPrice = newTokenPrice;\n        prevRemarginTime = lastRemarginTime;\n        lastRemarginTime = currentTime;\n    }\n\n    function recomputeNav(int256 oraclePrice, uint currentTime) private returns (int navNew) {\n        assert(lastRemarginTime == currentTime);\n        int underlyingReturn = computeReturn(prevUnderlyingPrice, oraclePrice);\n        uint tokenReturn = uint(underlyingReturn).sub(fixedFeePerSecond.mul(currentTime.sub(prevRemarginTime)));\n        int newTokenPrice = _takePercentage(prevTokenPrice, tokenReturn);\n        navNew = (int(totalSupply()) * newTokenPrice) / 1 ether;\n        assert(navNew >= 0);\n        underlyingPrice = oraclePrice;\n        tokenPrice = newTokenPrice;\n        lastRemarginTime = currentTime;\n    }\n\n    function initialNav(int256 oraclePrice, uint currentTime) private returns (int256 navNew) {\n        // Each token is initially worth 1 ether.\n        int unitNav = 1 ether;\n        lastRemarginTime = currentTime;\n        prevRemarginTime = currentTime;\n        tokenPrice = unitNav;\n        prevTokenPrice = unitNav;\n        underlyingPrice = oraclePrice;\n        prevUnderlyingPrice = oraclePrice;\n        navNew = (int(totalSupply()) * unitNav) / 1 ether;\n        assert(navNew >= 0);\n    }\n\n    function _takePercentage(uint value, uint percentage) private pure returns (uint result) {\n        return value.mul(percentage).div(1 ether);\n    }\n\n    function _takePercentage(int256 value, uint percentage) private pure returns (int256 result) {\n        return (value * int256(percentage)) / 1 ether;\n    }\n}\n\n\ncontract SimpleTokenizedDerivative is TokenizedDerivative {\n\n    constructor(\n        address _providerAddress,\n        address _investorAddress,\n        address _oracleAddress,\n        uint _defaultPenalty, // Percentage of nav*10^18\n        uint _terminationFee, // Percentage of nav*10^18\n        uint _providerRequiredMargin, // Percentage of nav*10^18\n        string _product,\n        uint _fixedYearlyFee, // Percentage of nav * 10^18\n        uint _disputeDeposit // Percentage of nav * 10^18\n    ) public payable TokenizedDerivative(\n        _providerAddress,\n        _investorAddress,\n        _oracleAddress,\n        _defaultPenalty,\n        _terminationFee,\n        _providerRequiredMargin,\n        _product,\n        _fixedYearlyFee,\n        _disputeDeposit\n    ) {} // solhint-disable-line no-empty-blocks\n\n    function computeReturn(int oldOraclePrice, int newOraclePrice) public view returns (int assetReturn) {\n        return (newOraclePrice * (1 ether)) / oldOraclePrice;\n    }\n\n}\n\n\ncontract TokenizedDerivativeCreator is ContractCreator {\n    constructor(address registryAddress, address _oracleAddress)\n        public\n        ContractCreator(registryAddress, _oracleAddress) {} // solhint-disable-line no-empty-blocks\n\n    function createTokenizedDerivative(\n        address provider,\n        address investor,\n        uint defaultPenalty,\n        uint terminationFee,\n        uint providerRequiredMargin,\n        string product,\n        uint fixedYearlyFee,\n        uint disputeDeposit\n    )\n        external\n        returns (address derivativeAddress)\n    {\n        SimpleTokenizedDerivative derivative = new SimpleTokenizedDerivative(\n            provider,\n            investor,\n            oracleAddress,\n            defaultPenalty,\n            terminationFee,\n            providerRequiredMargin,\n            product,\n            fixedYearlyFee,\n            disputeDeposit\n        );\n\n        _registerNewContract(provider, investor, address(derivative));\n\n        return address(derivative);\n    }\n}\n",
  "sourcePath": "/Users/matt/git/protocol/contracts/TokenizedDerivative.sol",
  "compiler": {
    "name": "solc",
    "version": "0.4.25+commit.59dbf8f1.Emscripten.clang"
  },
  "schemaVersion": "3.0.0-beta.2",
  "updatedAt": "2018-12-07T21:41:30.158Z",
  "devdoc": {
    "methods": {
      "allowance(address,address)": {
        "details": "Function to check the amount of tokens that an owner allowed to a spender.",
        "params": {
          "owner": "address The address which owns the funds.",
          "spender": "address The address which will spend the funds."
        },
        "return": "A uint256 specifying the amount of tokens still available for the spender."
      },
      "approve(address,uint256)": {
        "details": "Approve the passed address to spend the specified amount of tokens on behalf of msg.sender. Beware that changing an allowance with this method brings the risk that someone may use both the old and the new allowance by unfortunate transaction ordering. One possible solution to mitigate this race condition is to first reduce the spender's allowance to 0 and set the desired value afterwards: https://github.com/ethereum/EIPs/issues/20#issuecomment-263524729",
        "params": {
          "spender": "The address which will spend the funds.",
          "value": "The amount of tokens to be spent."
        }
      },
      "balanceOf(address)": {
        "details": "Gets the balance of the specified address.",
        "params": {
          "owner": "The address to query the the balance of."
        },
        "return": "An uint256 representing the amount owned by the passed address."
      },
      "decreaseAllowance(address,uint256)": {
        "details": "Decrease the amount of tokens that an owner allowed to a spender. approve should be called when allowed_[_spender] == 0. To decrement allowed value is better to use this function to avoid 2 calls (and wait until the first transaction is mined) From MonolithDAO Token.sol",
        "params": {
          "spender": "The address which will spend the funds.",
          "subtractedValue": "The amount of tokens to decrease the allowance by."
        }
      },
      "increaseAllowance(address,uint256)": {
        "details": "Increase the amount of tokens that an owner allowed to a spender. approve should be called when allowed_[_spender] == 0. To increment allowed value is better to use this function to avoid 2 calls (and wait until the first transaction is mined) From MonolithDAO Token.sol",
        "params": {
          "addedValue": "The amount of tokens to increase the allowance by.",
          "spender": "The address which will spend the funds."
        }
      },
      "totalSupply()": {
        "details": "Total number of tokens in existence"
      },
      "transfer(address,uint256)": {
        "details": "Transfer token for a specified address",
        "params": {
          "to": "The address to transfer to.",
          "value": "The amount to be transferred."
        }
      },
      "transferFrom(address,address,uint256)": {
        "details": "Transfer tokens from one address to another",
        "params": {
          "from": "address The address which you want to send tokens from",
          "to": "address The address which you want to transfer to",
          "value": "uint256 the amount of tokens to be transferred"
        }
      }
    }
  },
  "userdoc": {
    "methods": {}
  }
}