{
  "contractName": "VoteCoin",
  "abi": [
    {
      "constant": false,
      "inputs": [
        {
          "name": "spender",
          "type": "address"
        },
        {
          "name": "value",
          "type": "uint256"
        }
      ],
      "name": "approve",
      "outputs": [
        {
          "name": "",
          "type": "bool"
        }
      ],
      "payable": false,
      "stateMutability": "nonpayable",
      "type": "function"
    },
    {
      "constant": true,
      "inputs": [],
      "name": "totalSupply",
      "outputs": [
        {
          "name": "",
          "type": "uint256"
        }
      ],
      "payable": false,
      "stateMutability": "view",
      "type": "function"
    },
    {
      "constant": false,
      "inputs": [
        {
          "name": "_time",
          "type": "uint256"
        }
      ],
      "name": "setCurrentTime",
      "outputs": [],
      "payable": false,
      "stateMutability": "nonpayable",
      "type": "function"
    },
    {
      "constant": false,
      "inputs": [
        {
          "name": "from",
          "type": "address"
        },
        {
          "name": "to",
          "type": "address"
        },
        {
          "name": "value",
          "type": "uint256"
        }
      ],
      "name": "transferFrom",
      "outputs": [
        {
          "name": "",
          "type": "bool"
        }
      ],
      "payable": false,
      "stateMutability": "nonpayable",
      "type": "function"
    },
    {
      "constant": true,
      "inputs": [],
      "name": "getCurrentTime",
      "outputs": [
        {
          "name": "",
          "type": "uint256"
        }
      ],
      "payable": false,
      "stateMutability": "view",
      "type": "function"
    },
    {
      "constant": false,
      "inputs": [
        {
          "name": "spender",
          "type": "address"
        },
        {
          "name": "addedValue",
          "type": "uint256"
        }
      ],
      "name": "increaseAllowance",
      "outputs": [
        {
          "name": "",
          "type": "bool"
        }
      ],
      "payable": false,
      "stateMutability": "nonpayable",
      "type": "function"
    },
    {
      "constant": true,
      "inputs": [],
      "name": "firstUnverifiedIndex",
      "outputs": [
        {
          "name": "",
          "type": "uint256"
        }
      ],
      "payable": false,
      "stateMutability": "view",
      "type": "function"
    },
    {
      "constant": true,
      "inputs": [
        {
          "name": "",
          "type": "uint256"
        }
      ],
      "name": "unverifiedPrices",
      "outputs": [
        {
          "name": "price",
          "type": "int256"
        },
        {
          "name": "time",
          "type": "uint256"
        }
      ],
      "payable": false,
      "stateMutability": "view",
      "type": "function"
    },
    {
      "constant": true,
      "inputs": [],
      "name": "isTestMode",
      "outputs": [
        {
          "name": "",
          "type": "bool"
        }
      ],
      "payable": false,
      "stateMutability": "view",
      "type": "function"
    },
    {
      "constant": true,
      "inputs": [
        {
          "name": "owner",
          "type": "address"
        }
      ],
      "name": "balanceOf",
      "outputs": [
        {
          "name": "",
          "type": "uint256"
        }
      ],
      "payable": false,
      "stateMutability": "view",
      "type": "function"
    },
    {
      "constant": false,
      "inputs": [],
      "name": "renounceOwnership",
      "outputs": [],
      "payable": false,
      "stateMutability": "nonpayable",
      "type": "function"
    },
    {
      "constant": true,
      "inputs": [],
      "name": "owner",
      "outputs": [
        {
          "name": "",
          "type": "address"
        }
      ],
      "payable": false,
      "stateMutability": "view",
      "type": "function"
    },
    {
      "constant": true,
      "inputs": [],
      "name": "isOwner",
      "outputs": [
        {
          "name": "",
          "type": "bool"
        }
      ],
      "payable": false,
      "stateMutability": "view",
      "type": "function"
    },
    {
      "constant": false,
      "inputs": [
        {
          "name": "spender",
          "type": "address"
        },
        {
          "name": "subtractedValue",
          "type": "uint256"
        }
      ],
      "name": "decreaseAllowance",
      "outputs": [
        {
          "name": "",
          "type": "bool"
        }
      ],
      "payable": false,
      "stateMutability": "nonpayable",
      "type": "function"
    },
    {
      "constant": false,
      "inputs": [
        {
          "name": "to",
          "type": "address"
        },
        {
          "name": "value",
          "type": "uint256"
        }
      ],
      "name": "transfer",
      "outputs": [
        {
          "name": "",
          "type": "bool"
        }
      ],
      "payable": false,
      "stateMutability": "nonpayable",
      "type": "function"
    },
    {
      "constant": true,
      "inputs": [],
      "name": "priceInterval",
      "outputs": [
        {
          "name": "",
          "type": "uint256"
        }
      ],
      "payable": false,
      "stateMutability": "view",
      "type": "function"
    },
    {
      "constant": true,
      "inputs": [],
      "name": "currentVotePeriodIndex",
      "outputs": [
        {
          "name": "",
          "type": "uint256"
        }
      ],
      "payable": false,
      "stateMutability": "view",
      "type": "function"
    },
    {
      "constant": true,
      "inputs": [],
      "name": "product",
      "outputs": [
        {
          "name": "",
          "type": "string"
        }
      ],
      "payable": false,
      "stateMutability": "view",
      "type": "function"
    },
    {
      "constant": true,
      "inputs": [
        {
          "name": "owner",
          "type": "address"
        },
        {
          "name": "spender",
          "type": "address"
        }
      ],
      "name": "allowance",
      "outputs": [
        {
          "name": "",
          "type": "uint256"
        }
      ],
      "payable": false,
      "stateMutability": "view",
      "type": "function"
    },
    {
      "constant": false,
      "inputs": [
        {
          "name": "newOwner",
          "type": "address"
        }
      ],
      "name": "transferOwnership",
      "outputs": [],
      "payable": false,
      "stateMutability": "nonpayable",
      "type": "function"
    },
    {
      "inputs": [
        {
          "name": "_product",
          "type": "string"
        },
        {
          "name": "_priceInterval",
          "type": "uint256"
        },
        {
          "name": "isTest",
          "type": "bool"
        }
      ],
      "payable": false,
      "stateMutability": "nonpayable",
      "type": "constructor"
    },
    {
      "anonymous": false,
      "inputs": [
        {
          "indexed": true,
          "name": "previousOwner",
          "type": "address"
        }
      ],
      "name": "OwnershipRenounced",
      "type": "event"
    },
    {
      "anonymous": false,
      "inputs": [
        {
          "indexed": true,
          "name": "previousOwner",
          "type": "address"
        },
        {
          "indexed": true,
          "name": "newOwner",
          "type": "address"
        }
      ],
      "name": "OwnershipTransferred",
      "type": "event"
    },
    {
      "anonymous": false,
      "inputs": [
        {
          "indexed": true,
          "name": "from",
          "type": "address"
        },
        {
          "indexed": true,
          "name": "to",
          "type": "address"
        },
        {
          "indexed": false,
          "name": "value",
          "type": "uint256"
        }
      ],
      "name": "Transfer",
      "type": "event"
    },
    {
      "anonymous": false,
      "inputs": [
        {
          "indexed": true,
          "name": "owner",
          "type": "address"
        },
        {
          "indexed": true,
          "name": "spender",
          "type": "address"
        },
        {
          "indexed": false,
          "name": "value",
          "type": "uint256"
        }
      ],
      "name": "Approval",
      "type": "event"
    },
    {
      "constant": true,
      "inputs": [
        {
          "name": "voteOption",
          "type": "uint256"
        },
        {
          "name": "salt",
          "type": "uint256"
        }
      ],
      "name": "computeHash",
      "outputs": [
        {
          "name": "hash",
          "type": "bytes32"
        }
      ],
      "payable": false,
      "stateMutability": "pure",
      "type": "function"
    },
    {
      "constant": false,
      "inputs": [
        {
          "name": "secretHash",
          "type": "bytes32"
        }
      ],
      "name": "commitVote",
      "outputs": [],
      "payable": false,
      "stateMutability": "nonpayable",
      "type": "function"
    },
    {
      "constant": false,
      "inputs": [
        {
          "name": "voteOption",
          "type": "uint256"
        },
        {
          "name": "salt",
          "type": "uint256"
        }
      ],
      "name": "revealVote",
      "outputs": [],
      "payable": false,
      "stateMutability": "nonpayable",
      "type": "function"
    },
    {
      "constant": false,
      "inputs": [
        {
          "name": "ipfsHash",
          "type": "string"
        }
      ],
      "name": "proposeFeed",
      "outputs": [],
      "payable": false,
      "stateMutability": "nonpayable",
      "type": "function"
    },
    {
      "constant": false,
      "inputs": [
        {
          "components": [
            {
              "name": "price",
              "type": "int256"
            },
            {
              "name": "time",
              "type": "uint256"
            }
          ],
          "name": "priceTime",
          "type": "tuple"
        }
      ],
      "name": "addUnverifiedPrice",
      "outputs": [],
      "payable": false,
      "stateMutability": "nonpayable",
      "type": "function"
    },
    {
      "constant": true,
      "inputs": [],
      "name": "getProposals",
      "outputs": [
        {
          "components": [
            {
              "name": "numVotes",
              "type": "uint256"
            },
            {
              "name": "ipfsHash",
              "type": "string"
            }
          ],
          "name": "proposals",
          "type": "tuple[]"
        }
      ],
      "payable": false,
      "stateMutability": "view",
      "type": "function"
    },
    {
      "constant": true,
      "inputs": [],
      "name": "getCurrentCommitRevealPeriods",
      "outputs": [
        {
          "components": [
            {
              "name": "startTime",
              "type": "uint256"
            },
            {
              "name": "endTime",
              "type": "uint256"
            },
            {
              "name": "state",
              "type": "string"
            }
          ],
          "name": "periods",
          "type": "tuple[]"
        }
      ],
      "payable": false,
      "stateMutability": "view",
      "type": "function"
    },
    {
      "constant": true,
      "inputs": [],
      "name": "getCurrentPeriodType",
      "outputs": [
        {
          "name": "periodType",
          "type": "string"
        }
      ],
      "payable": false,
      "stateMutability": "view",
      "type": "function"
    },
    {
      "constant": true,
      "inputs": [],
      "name": "getProduct",
      "outputs": [
        {
          "name": "_product",
          "type": "string"
        }
      ],
      "payable": false,
      "stateMutability": "view",
      "type": "function"
    },
    {
      "constant": true,
      "inputs": [],
      "name": "getDefaultProposalPrices",
      "outputs": [
        {
          "components": [
            {
              "name": "price",
              "type": "int256"
            },
            {
              "name": "time",
              "type": "uint256"
            }
          ],
          "name": "prices",
          "type": "tuple[]"
        }
      ],
      "payable": false,
      "stateMutability": "view",
      "type": "function"
    },
    {
      "constant": true,
      "inputs": [
        {
          "name": "time",
          "type": "uint256"
        }
      ],
      "name": "getDefaultProposedPriceAtTime",
      "outputs": [
        {
          "name": "price",
          "type": "int256"
        }
      ],
      "payable": false,
      "stateMutability": "view",
      "type": "function"
    },
    {
      "constant": true,
      "inputs": [
        {
          "name": "voter",
          "type": "address"
        }
      ],
      "name": "getCommittedVoteForUser",
      "outputs": [
        {
          "name": "secretHash",
          "type": "bytes32"
        }
      ],
      "payable": false,
      "stateMutability": "view",
      "type": "function"
    },
    {
      "constant": true,
      "inputs": [],
      "name": "latestUnverifiedPrice",
      "outputs": [
        {
          "name": "publishTime",
          "type": "uint256"
        },
        {
          "name": "price",
          "type": "int256"
        }
      ],
      "payable": false,
      "stateMutability": "view",
      "type": "function"
    },
    {
      "constant": true,
      "inputs": [],
      "name": "latestVerifiedPrice",
      "outputs": [
        {
          "name": "publishTime",
          "type": "uint256"
        },
        {
          "name": "price",
          "type": "int256"
        }
      ],
      "payable": false,
      "stateMutability": "view",
      "type": "function"
    },
    {
      "constant": true,
      "inputs": [
        {
          "name": "time",
          "type": "uint256"
        }
      ],
      "name": "unverifiedPrice",
      "outputs": [
        {
          "name": "publishTime",
          "type": "uint256"
        },
        {
          "name": "price",
          "type": "int256"
        }
      ],
      "payable": false,
      "stateMutability": "view",
      "type": "function"
    },
    {
      "constant": true,
      "inputs": [
        {
          "name": "time",
          "type": "uint256"
        }
      ],
      "name": "verifiedPrice",
      "outputs": [
        {
          "name": "publishTime",
          "type": "uint256"
        },
        {
          "name": "price",
          "type": "int256"
        }
      ],
      "payable": false,
      "stateMutability": "view",
      "type": "function"
    },
    {
      "constant": false,
      "inputs": [],
      "name": "validatePrices",
      "outputs": [],
      "payable": false,
      "stateMutability": "nonpayable",
      "type": "function"
    },
    {
      "constant": false,
      "inputs": [
        {
          "components": [
            {
              "name": "price",
              "type": "int256"
            },
            {
              "name": "time",
              "type": "uint256"
            }
          ],
          "name": "priceTimes",
          "type": "tuple[]"
        }
      ],
      "name": "addUnverifiedPrices",
      "outputs": [],
      "payable": false,
      "stateMutability": "nonpayable",
      "type": "function"
    },
    {
      "constant": false,
      "inputs": [],
      "name": "checkTimeAndUpdateState",
      "outputs": [],
      "payable": false,
      "stateMutability": "nonpayable",
      "type": "function"
    }
  ],
  "bytecode": "0x60806040523480156200001157600080fd5b5060405162005977380380620059778339810180604052620000379190810190620013c3565b60008060008060008060008733600360006101000a81548173ffffffffffffffffffffffffffffffffffffffff021916908373ffffffffffffffffffffffffffffffffffffffff16021790555080600360146101000a81548160ff0219169083151502179055508015620000ad57426004819055505b50620000cb33612710620004c1640100000000026401000000009004565b8960069080519060200190620000e3929190620010c8565b508860098190555062015180965062015180955062015180945062015180935062054600600c8190555062093a80600d8190555060009250600091506200013c8288600062000622640100000000026401000000009004565b600e858060010196506005811015156200015257fe5b60030201600082955083919050600082015181600001556020820151816001015560408201518160020160006101000a81548160ff021916908360048111156200019857fe5b021790555050505050620001be8287600162000622640100000000026401000000009004565b600e85806001019650600581101515620001d457fe5b60030201600082955083919050600082015181600001556020820151816001015560408201518160020160006101000a81548160ff021916908360048111156200021a57fe5b021790555050505050620002408286600262000622640100000000026401000000009004565b600e858060010196506005811015156200025657fe5b60030201600082955083919050600082015181600001556020820151816001015560408201518160020160006101000a81548160ff021916908360048111156200029c57fe5b021790555050505050620002c28285600362000622640100000000026401000000009004565b600e85806001019650600581101515620002d857fe5b60030201600082955083919050600082015181600001556020820151816001015560408201518160020160006101000a81548160ff021916908360048111156200031e57fe5b02179055505050505062000368826200035184600d54620006ad6401000000000262002775179091906401000000009004565b600462000622640100000000026401000000009004565b600e858060010196506005811015156200037e57fe5b60030201600082955083919050600082015181600001556020820151816001015560408201518160020160006101000a81548160ff02191690836004811115620003c457fe5b021790555050505050620003e6620006cf640100000000026401000000009004565b90506000620004268a6200040984620006f9640100000000026401000000009004565b620007936401000000000262003361179091906401000000009004565b1480156200045857506000620004568a600d54620007936401000000000262003361179091906401000000009004565b145b15156200046457600080fd5b620004976200048282620006f9640100000000026401000000009004565b620007ba640100000000026401000000009004565b50620004b162000822640100000000026401000000009004565b5050505050505050505062001511565b60008273ffffffffffffffffffffffffffffffffffffffff1614151515620004e857600080fd5b6200050d816002546200099b6401000000000262002966179091906401000000009004565b60028190555062000574816000808573ffffffffffffffffffffffffffffffffffffffff1673ffffffffffffffffffffffffffffffffffffffff168152602001908152602001600020546200099b6401000000000262002966179091906401000000009004565b6000808473ffffffffffffffffffffffffffffffffffffffff1673ffffffffffffffffffffffffffffffffffffffff168152602001908152602001600020819055508173ffffffffffffffffffffffffffffffffffffffff16600073ffffffffffffffffffffffffffffffffffffffff167fddf252ad1be2c89b69c2b068fc378daa952ba7f163c4a11628f55a4df523b3ef8360405162000616919062001443565b60405180910390a35050565b6200062c6200114f565b6000848260000181815250506200065b84866200099b6401000000000262002966179091906401000000009004565b826020018181525050600d548260200151111515156200067a57600080fd5b82826040019060048111156200068c57fe5b908160048111156200069a57fe5b8152505081602001519050935093915050565b600080838311151515620006c057600080fd5b82840390508091505092915050565b6000600360149054906101000a900460ff1615620006f2576004549050620006f6565b4290505b90565b60006200078c600c546200076f600d5462000752600d5462000735600c5489620006ad6401000000000262002775179091906401000000009004565b620009bd6401000000000262003386179091906401000000009004565b620009e964010000000002620035aa179091906401000000009004565b6200099b6401000000000262002966179091906401000000009004565b9050919050565b6000808214151515620007a557600080fd5b8183811515620007b157fe5b06905092915050565b6000600b8054809190600101620007d291906200117d565b600581905550600b600554815481101515620007ea57fe5b90600052602060002090600a020190506200081d828262000a2b64010000000002620035e8179091906401000000009004565b919050565b600080600080600062000843620006cf640100000000026401000000009004565b94506200085f85620006f9640100000000026401000000009004565b93506200087c848662000a7c640100000000026401000000009004565b92506200089762000bf0640100000000026401000000009004565b915060009050816000015484141515620008cb5760019050620008c984620007ba640100000000026401000000009004565b505b826004811115620008d857fe5b600a60009054906101000a900460ff166004811115620008f457fe5b1415156200096f576004808111156200090957fe5b8360048111156200091657fe5b1480156200093f57506200093e8262000c176401000000000262002796176401000000009004565b5b156200094a57600190505b82600a60006101000a81548160ff021916908360048111156200096957fe5b02179055505b80156200099457620009938360055462000c2b640100000000026401000000009004565b5b5050505050565b6000808284019050838110151515620009b357600080fd5b8091505092915050565b600080600083111515620009d057600080fd5b8284811515620009dc57fe5b0490508091505092915050565b600080600084141562000a00576000915062000a24565b828402905082848281151562000a1257fe5b0414151562000a2057600080fd5b8091505b5092915050565b80826000018190555062000a568260010162000d8a64010000000002620036c8176401000000009004565b62000a788260050162000db564010000000002620036f1176401000000009004565b5050565b600080600090505b600581101562000bdd578262000ac985600e8460058110151562000aa457fe5b60030201600001546200099b6401000000000262002966179091906401000000009004565b1115801562000b10575062000b0d84600e8360058110151562000ae857fe5b60030201600101546200099b6401000000000262002966179091906401000000009004565b83105b1562000bd157600e8160058110151562000b2657fe5b6003020160020160009054906101000a900460ff1691506002600481111562000b4b57fe5b82600481111562000b5857fe5b148062000b7d57506003600481111562000b6e57fe5b82600481111562000b7b57fe5b145b801562000bbd575062000bbc62000ba262000bf0640100000000026401000000009004565b62000c176401000000000262002796176401000000009004565b5b1562000bc857600491505b81915062000be9565b80600101905062000a84565b6000151562000be857fe5b5b5092915050565b6000600b60055481548110151562000c0457fe5b90600052602060002090600a0201905090565b600060018260010160020154149050919050565b6000806000806000806000809650600060085414151562000c8957600760085481548110151562000c5857fe5b906000526020600020906002020160010154955062000c868662000e5f640100000000026401000000009004565b96505b600b80549050945060048081111562000c9e57fe5b89600481111562000cab57fe5b14151562000cb7578794505b60085493508692505b8483101562000d7857600b8381548110151562000cd957fe5b90600052602060002090600a0201915062000d088262000c176401000000000262002796176401000000009004565b1562000d665762000d33600d548362000ebe6401000000000262003085179091906401000000009004565b91505062000d5e81600954600762000ef8640100000000026200265917909291906401000000009004565b935062000d6c565b62000d78565b82600101925062000cc0565b83600881905550505050505050505050565b6002816000018162000d9d9190620011b2565b50600181600201819055506000816001018190555050565b6000816000018162000dc89190620011b2565b50600081600201819055506000816001018190555062000e5c606060405190810160405280602e81526020017f516d5757515375504d5336615843625a4b70456a504850555a4e324e6a42335981526020017f72684a54487356345833766232740000000000000000000000000000000000008152508262000fcd6401000000000262003672179091906401000000009004565b50565b600062000eb7600162000e9a62000e8585620006f9640100000000026401000000009004565b62001028640100000000026401000000009004565b6200099b6401000000000262002966179091906401000000009004565b9050919050565b60008062000ee8838560000154620006ad6401000000000262002775179091906401000000009004565b8460000154915091509250929050565b600080600062000f208486620007936401000000000262003361179091906401000000009004565b14151562000f2d57600080fd5b60008580549050141562000f45576000915062000fc5565b62000f8985600081548110151562000f5957fe5b90600052602060002090600202016001015485620006ad6401000000000262002775179091906401000000009004565b905062000fae8382620009bd6401000000000262003386179091906401000000009004565b91508480549050821115151562000fc457600080fd5b5b509392505050565b600082600001805480919060010162000fe79190620011b2565b905081836000018281548110151562000ffc57fe5b9060005260206000209060020201600101908051906020019062001022929190620010c8565b50505050565b600080600b8054905090506000811415620010475760009150620010c2565b620010b0600d5462001093600b60008154811015156200106357fe5b90600052602060002090600a02016000015486620006ad6401000000000262002775179091906401000000009004565b620009bd6401000000000262003386179091906401000000009004565b91508082101515620010c157600080fd5b5b50919050565b828054600181600116156101000203166002900490600052602060002090601f016020900481019282601f106200110b57805160ff19168380011785556200113c565b828001600101855582156200113c579182015b828111156200113b5782518255916020019190600101906200111e565b5b5090506200114b9190620011e7565b5090565b6060604051908101604052806000815260200160008152602001600060048111156200117757fe5b81525090565b815481835581811115620011ad57600a0281600a028360005260206000209182019101620011ac91906200120f565b5b505050565b815481835581811115620011e257600202816002028360005260206000209182019101620011e191906200128b565b5b505050565b6200120c91905b8082111562001208576000816000905550600101620011ee565b5090565b90565b6200128891905b80821115620012845760008082016000905560018201600080820160006200123f9190620012c7565b6001820160009055600282016000905550506005820160008082016000620012689190620012c7565b60018201600090556002820160009055505050600a0162001216565b5090565b90565b620012c491905b80821115620012c057600080820160009055600182016000620012b69190620012ed565b5060020162001292565b5090565b90565b5080546000825560020290600052602060002090810190620012ea91906200128b565b50565b50805460018160011615610100020316600290046000825580601f1062001315575062001336565b601f016020900490600052602060002090810190620013359190620011e7565b5b50565b6000620013478251620014c5565b905092915050565b600082601f83011215156200136357600080fd5b81516200137a62001374826200148e565b62001460565b915080825260208301602083018583830111156200139757600080fd5b620013a4838284620014db565b50505092915050565b6000620013bb8251620014d1565b905092915050565b600080600060608486031215620013d957600080fd5b600084015167ffffffffffffffff811115620013f457600080fd5b62001402868287016200134f565b93505060206200141586828701620013ad565b9250506040620014288682870162001339565b9150509250925092565b6200143d81620014bb565b82525050565b60006020820190506200145a600083018462001432565b92915050565b6000604051905081810181811067ffffffffffffffff821117156200148457600080fd5b8060405250919050565b600067ffffffffffffffff821115620014a657600080fd5b601f19601f8301169050602081019050919050565b6000819050919050565b60008115159050919050565b6000819050919050565b60005b83811015620014fb578082015181840152602081019050620014de565b838111156200150b576000848401525b50505050565b61445680620015216000396000f3006080604052600436106101e3576000357c0100000000000000000000000000000000000000000000000000000000900463ffffffff168063095ea7b3146101e857806316f4614b1461022557806318160ddd1461024e57806322f8e5661461027957806323b872dd146102a257806327846c8d146102df57806329cb924d1461030857806339509351146103335780633d0e5a87146103705780633e8589231461038757806340821cff146103b057806342a3e7fd146103d9578063497a62c8146104055780634a1f6136146104305780634ba20050146104475780634e112a1f146104725780635189e589146104b05780635b706bbb146104db57806360efe48c1461051857806362564c481461054357806370a082311461056e578063715018a6146105ab5780638da5cb5b146105c25780638f32d59b146105ed578063a457c2d714610618578063a9059cbb14610655578063a90a3e3014610692578063ae5c1fc1146106bd578063af7033ff146106e8578063b188337f14610714578063becaad581461073f578063bf9ce9521461077c578063d2d4dab1146107a7578063da24c8a4146107e5578063dd62ed3e1461080e578063e351392b1461084b578063f2fde38b14610888578063f637434a146108b1578063ff0b22ce146108dc575b600080fd5b3480156101f457600080fd5b5061020f600480360361020a9190810190613c99565b61091a565b60405161021c9190614139565b60405180910390f35b34801561023157600080fd5b5061024c60048036036102479190810190613cd5565b610a47565b005b34801561025a57600080fd5b50610263610c2d565b60405161027091906141f7565b60405180910390f35b34801561028557600080fd5b506102a0600480360361029b9190810190613da9565b610c37565b005b3480156102ae57600080fd5b506102c960048036036102c49190810190613c4a565b610c6f565b6040516102d69190614139565b60405180910390f35b3480156102eb57600080fd5b5061030660048036036103019190810190613dd2565b61102a565b005b34801561031457600080fd5b5061031d6110d1565b60405161032a91906141f7565b60405180910390f35b34801561033f57600080fd5b5061035a60048036036103559190810190613c99565b6110f9565b6040516103679190614139565b60405180910390f35b34801561037c57600080fd5b50610385611330565b005b34801561039357600080fd5b506103ae60048036036103a99190810190613d16565b611423565b005b3480156103bc57600080fd5b506103d760048036036103d29190810190613d3f565b6114bd565b005b3480156103e557600080fd5b506103ee611546565b6040516103fc929190614212565b60405180910390f35b34801561041157600080fd5b5061041a6115b6565b60405161042791906141f7565b60405180910390f35b34801561043c57600080fd5b506104456115bc565b005b34801561045357600080fd5b5061045c611693565b60405161046991906141d5565b60405180910390f35b34801561047e57600080fd5b5061049960048036036104949190810190613da9565b611735565b6040516104a792919061418a565b60405180910390f35b3480156104bc57600080fd5b506104c5611768565b6040516104d291906141d5565b60405180910390f35b3480156104e757600080fd5b5061050260048036036104fd9190810190613da9565b611796565b60405161050f919061416f565b60405180910390f35b34801561052457600080fd5b5061052d611834565b60405161053a9190614139565b60405180910390f35b34801561054f57600080fd5b5061055861184b565b60405161056591906140f5565b60405180910390f35b34801561057a57600080fd5b5061059560048036036105909190810190613be5565b6119dc565b6040516105a291906141f7565b60405180910390f35b3480156105b757600080fd5b506105c0611a24565b005b3480156105ce57600080fd5b506105d7611ae0565b6040516105e491906140b8565b60405180910390f35b3480156105f957600080fd5b50610602611b0a565b60405161060f9190614139565b60405180910390f35b34801561062457600080fd5b5061063f600480360361063a9190810190613c99565b611b62565b60405161064c9190614139565b60405180910390f35b34801561066157600080fd5b5061067c60048036036106779190810190613c99565b611d99565b6040516106899190614139565b60405180910390f35b34801561069e57600080fd5b506106a7611fb9565b6040516106b491906141f7565b60405180910390f35b3480156106c957600080fd5b506106d2611fbf565b6040516106df91906141f7565b60405180910390f35b3480156106f457600080fd5b506106fd611fc5565b60405161070b929190614212565b60405180910390f35b34801561072057600080fd5b50610729612034565b6040516107369190614117565b60405180910390f35b34801561074b57600080fd5b5061076660048036036107619190810190613be5565b612144565b6040516107739190614154565b60405180910390f35b34801561078857600080fd5b5061079161224b565b60405161079e91906141b3565b60405180910390f35b3480156107b357600080fd5b506107ce60048036036107c99190810190613da9565b6122e9565b6040516107dc929190614212565b60405180910390f35b3480156107f157600080fd5b5061080c60048036036108079190810190613d80565b612311565b005b34801561081a57600080fd5b5061083560048036036108309190810190613c0e565b61237b565b60405161084291906141f7565b60405180910390f35b34801561085757600080fd5b50610872600480360361086d9190810190613dd2565b612402565b60405161087f9190614154565b60405180910390f35b34801561089457600080fd5b506108af60048036036108aa9190810190613be5565b612496565b005b3480156108bd57600080fd5b506108c66124b5565b6040516108d391906140d3565b60405180910390f35b3480156108e857600080fd5b5061090360048036036108fe9190810190613da9565b61262e565b604051610911929190614212565b60405180910390f35b60008073ffffffffffffffffffffffffffffffffffffffff168373ffffffffffffffffffffffffffffffffffffffff161415151561095757600080fd5b81600160003373ffffffffffffffffffffffffffffffffffffffff1673ffffffffffffffffffffffffffffffffffffffff16815260200190815260200160002060008573ffffffffffffffffffffffffffffffffffffffff1673ffffffffffffffffffffffffffffffffffffffff168152602001908152602001600020819055508273ffffffffffffffffffffffffffffffffffffffff163373ffffffffffffffffffffffffffffffffffffffff167f8c5be1e5ebec7d5bd14f71427d1e84f3dd0314c0f7b2291e5b200ac8c7c3b92584604051610a3591906141f7565b60405180910390a36001905092915050565b600080600080610a55611b0a565b1515610a6057600080fd5b60008551111515610a7057600080fd5b610a78611330565b600780549050935060008414158015610ad05750846000815181101515610a9b57fe5b9060200190602002015160200151600760018603815481101515610abb57fe5b90600052602060002090600202016001015410155b15610c0e57600854610b0c866000815181101515610aea57fe5b906020019060200201516020015160095460076126599092919063ffffffff16565b10151515610b1957600080fd5b610b3e856000815181101515610b2b57fe5b90602001906020020151602001516126f9565b9250610b7885610b596001885161277590919063ffffffff16565b815181101515610b6557fe5b90602001906020020151602001516126f9565b91508290505b8181111515610c0d5760055481111515610c0257610bb7600b82815481101515610ba457fe5b90600052602060002090600a0201612796565b151515610bc357600080fd5b600554811415610c0157600480811115610bd957fe5b600a60009054906101000a900460ff166004811115610bf457fe5b141515610c0057600080fd5b5b5b806001019050610b7e565b5b610c268560095460076127aa9092919063ffffffff16565b5050505050565b6000600254905090565b610c3f611b0a565b1515610c4a57600080fd5b600360149054906101000a900460ff161515610c6557600080fd5b8060048190555050565b60008060008573ffffffffffffffffffffffffffffffffffffffff1673ffffffffffffffffffffffffffffffffffffffff168152602001908152602001600020548211151515610cbe57600080fd5b600160008573ffffffffffffffffffffffffffffffffffffffff1673ffffffffffffffffffffffffffffffffffffffff16815260200190815260200160002060003373ffffffffffffffffffffffffffffffffffffffff1673ffffffffffffffffffffffffffffffffffffffff168152602001908152602001600020548211151515610d4957600080fd5b600073ffffffffffffffffffffffffffffffffffffffff168373ffffffffffffffffffffffffffffffffffffffff1614151515610d8557600080fd5b610dd6826000808773ffffffffffffffffffffffffffffffffffffffff1673ffffffffffffffffffffffffffffffffffffffff1681526020019081526020016000205461277590919063ffffffff16565b6000808673ffffffffffffffffffffffffffffffffffffffff1673ffffffffffffffffffffffffffffffffffffffff16815260200190815260200160002081905550610e69826000808673ffffffffffffffffffffffffffffffffffffffff1673ffffffffffffffffffffffffffffffffffffffff1681526020019081526020016000205461296690919063ffffffff16565b6000808573ffffffffffffffffffffffffffffffffffffffff1673ffffffffffffffffffffffffffffffffffffffff16815260200190815260200160002081905550610f3a82600160008773ffffffffffffffffffffffffffffffffffffffff1673ffffffffffffffffffffffffffffffffffffffff16815260200190815260200160002060003373ffffffffffffffffffffffffffffffffffffffff1673ffffffffffffffffffffffffffffffffffffffff1681526020019081526020016000205461277590919063ffffffff16565b600160008673ffffffffffffffffffffffffffffffffffffffff1673ffffffffffffffffffffffffffffffffffffffff16815260200190815260200160002060003373ffffffffffffffffffffffffffffffffffffffff1673ffffffffffffffffffffffffffffffffffffffff168152602001908152602001600020819055508273ffffffffffffffffffffffffffffffffffffffff168473ffffffffffffffffffffffffffffffffffffffff167fddf252ad1be2c89b69c2b068fc378daa952ba7f163c4a11628f55a4df523b3ef8460405161101791906141f7565b60405180910390a3600190509392505050565b611032611330565b6001600481111561103f57fe5b600a60009054906101000a900460ff16600481111561105a57fe5b148061108b57506003600481111561106e57fe5b600a60009054906101000a900460ff16600481111561108957fe5b145b151561109657600080fd5b6110cd82826110a4336119dc565b600a60009054906101000a900460ff166110bc612987565b6129ad90949392919063ffffffff16565b5050565b6000600360149054906101000a900460ff16156110f25760045490506110f6565b4290505b90565b60008073ffffffffffffffffffffffffffffffffffffffff168373ffffffffffffffffffffffffffffffffffffffff161415151561113657600080fd5b6111c582600160003373ffffffffffffffffffffffffffffffffffffffff1673ffffffffffffffffffffffffffffffffffffffff16815260200190815260200160002060008673ffffffffffffffffffffffffffffffffffffffff1673ffffffffffffffffffffffffffffffffffffffff1681526020019081526020016000205461296690919063ffffffff16565b600160003373ffffffffffffffffffffffffffffffffffffffff1673ffffffffffffffffffffffffffffffffffffffff16815260200190815260200160002060008573ffffffffffffffffffffffffffffffffffffffff1673ffffffffffffffffffffffffffffffffffffffff168152602001908152602001600020819055508273ffffffffffffffffffffffffffffffffffffffff163373ffffffffffffffffffffffffffffffffffffffff167f8c5be1e5ebec7d5bd14f71427d1e84f3dd0314c0f7b2291e5b200ac8c7c3b925600160003373ffffffffffffffffffffffffffffffffffffffff1673ffffffffffffffffffffffffffffffffffffffff16815260200190815260200160002060008773ffffffffffffffffffffffffffffffffffffffff1673ffffffffffffffffffffffffffffffffffffffff1681526020019081526020016000205460405161131e91906141f7565b60405180910390a36001905092915050565b60008060008060006113406110d1565b945061134b856129dd565b93506113578486612a37565b9250611361612987565b915060009050816000015484141515611383576001905061138184612b54565b505b82600481111561138f57fe5b600a60009054906101000a900460ff1660048111156113aa57fe5b141515611409576004808111156113bd57fe5b8360048111156113c957fe5b1480156113db57506113da82612796565b5b156113e557600190505b82600a60006101000a81548160ff0219169083600481111561140357fe5b02179055505b801561141c5761141b83600554612ba9565b5b5050505050565b61142b611330565b6000600481111561143857fe5b600a60009054906101000a900460ff16600481111561145357fe5b148061148457506002600481111561146757fe5b600a60009054906101000a900460ff16600481111561148257fe5b145b151561148f57600080fd5b6114ba81600a60009054906101000a900460ff166114ab612987565b612cb69092919063ffffffff16565b50565b6114c5611330565b600060048111156114d257fe5b600a60009054906101000a900460ff1660048111156114ed57fe5b148061151e57506001600481111561150157fe5b600a60009054906101000a900460ff16600481111561151c57fe5b145b151561152957600080fd5b61154381611535612987565b612ce090919063ffffffff16565b50565b6000806000806007805490509150600082141561156f57600080819150809050935093506115b0565b600761158560018461277590919063ffffffff16565b81548110151561159157fe5b9060005260206000209060020201905080600101548160000154935093505b50509091565b60085481565b6000806000806008546007805490501115156115d757600080fd5b6115df611330565b61160a60076008548154811015156115f357fe5b906000526020600020906002020160010154612e07565b9350600b8481548110151561161b57fe5b90600052602060002090600a0201925061163483612796565b1561165957611654600a60009054906101000a900460ff16600554612ba9565b61168d565b6116756007600954600d5486612e34909392919063ffffffff16565b915091508060088190555081151561168c57600080fd5b5b50505050565b606060068054600181600116156101000203166002900480601f01602080910402602001604051908101604052809291908181526020018280546001816001161561010002031660029004801561172b5780601f106117005761010080835404028352916020019161172b565b820191906000526020600020905b81548152906001019060200180831161170e57829003601f168201915b5050505050905090565b60078181548110151561174457fe5b90600052602060002090600202016000915090508060000154908060010154905082565b606060006117746110d1565b905061179061178b611785836129dd565b83612a37565b612ea8565b91505090565b60008060008060006117a6612987565b93506117bd600d548561308590919063ffffffff16565b925092508286101580156117d057508186105b15156117db57600080fd5b6117f38660095460076126599092919063ffffffff16565b90506007805490508110151561180857600080fd5b60078181548110151561181757fe5b906000526020600020906002020160000154945050505050919050565b6000600360149054906101000a900460ff16905090565b606060008060008061185b6110d1565b9350611866846129dd565b9250611870612987565b915081600001548314156119915781600501905080600001805480602002602001604051908101604052809291908181526020016000905b82821015611986578382906000526020600020906002020160408051908101604052908160008201548152602001600182018054600181600116156101000203166002900480601f01602080910402602001604051908101604052809291908181526020018280546001816001161561010002031660029004801561196e5780601f106119435761010080835404028352916020019161196e565b820191906000526020600020905b81548152906001019060200180831161195157829003601f168201915b505050505081525050815260200190600101906118a8565b5050505094506119d4565b60006040519080825280602002602001820160405280156119cc57816020015b6119b9613789565b8152602001906001900390816119b15790505b5094506119d5565b5b5050505090565b60008060008373ffffffffffffffffffffffffffffffffffffffff1673ffffffffffffffffffffffffffffffffffffffff168152602001908152602001600020549050919050565b611a2c611b0a565b1515611a3757600080fd5b600360009054906101000a900473ffffffffffffffffffffffffffffffffffffffff1673ffffffffffffffffffffffffffffffffffffffff167ff8df31144d9c2f0f6b59d69b8b98abd5459d07f2742c4df920b25aae33c6482060405160405180910390a26000600360006101000a81548173ffffffffffffffffffffffffffffffffffffffff021916908373ffffffffffffffffffffffffffffffffffffffff160217905550565b6000600360009054906101000a900473ffffffffffffffffffffffffffffffffffffffff16905090565b6000600360009054906101000a900473ffffffffffffffffffffffffffffffffffffffff1673ffffffffffffffffffffffffffffffffffffffff163373ffffffffffffffffffffffffffffffffffffffff1614905090565b60008073ffffffffffffffffffffffffffffffffffffffff168373ffffffffffffffffffffffffffffffffffffffff1614151515611b9f57600080fd5b611c2e82600160003373ffffffffffffffffffffffffffffffffffffffff1673ffffffffffffffffffffffffffffffffffffffff16815260200190815260200160002060008673ffffffffffffffffffffffffffffffffffffffff1673ffffffffffffffffffffffffffffffffffffffff1681526020019081526020016000205461277590919063ffffffff16565b600160003373ffffffffffffffffffffffffffffffffffffffff1673ffffffffffffffffffffffffffffffffffffffff16815260200190815260200160002060008573ffffffffffffffffffffffffffffffffffffffff1673ffffffffffffffffffffffffffffffffffffffff168152602001908152602001600020819055508273ffffffffffffffffffffffffffffffffffffffff163373ffffffffffffffffffffffffffffffffffffffff167f8c5be1e5ebec7d5bd14f71427d1e84f3dd0314c0f7b2291e5b200ac8c7c3b925600160003373ffffffffffffffffffffffffffffffffffffffff1673ffffffffffffffffffffffffffffffffffffffff16815260200190815260200160002060008773ffffffffffffffffffffffffffffffffffffffff1673ffffffffffffffffffffffffffffffffffffffff16815260200190815260200160002054604051611d8791906141f7565b60405180910390a36001905092915050565b60008060003373ffffffffffffffffffffffffffffffffffffffff1673ffffffffffffffffffffffffffffffffffffffff168152602001908152602001600020548211151515611de857600080fd5b600073ffffffffffffffffffffffffffffffffffffffff168373ffffffffffffffffffffffffffffffffffffffff1614151515611e2457600080fd5b611e75826000803373ffffffffffffffffffffffffffffffffffffffff1673ffffffffffffffffffffffffffffffffffffffff1681526020019081526020016000205461277590919063ffffffff16565b6000803373ffffffffffffffffffffffffffffffffffffffff1673ffffffffffffffffffffffffffffffffffffffff16815260200190815260200160002081905550611f08826000808673ffffffffffffffffffffffffffffffffffffffff1673ffffffffffffffffffffffffffffffffffffffff1681526020019081526020016000205461296690919063ffffffff16565b6000808573ffffffffffffffffffffffffffffffffffffffff1673ffffffffffffffffffffffffffffffffffffffff168152602001908152602001600020819055508273ffffffffffffffffffffffffffffffffffffffff163373ffffffffffffffffffffffffffffffffffffffff167fddf252ad1be2c89b69c2b068fc378daa952ba7f163c4a11628f55a4df523b3ef84604051611fa791906141f7565b60405180910390a36001905092915050565b60095481565b60055481565b60008060008060006008541415611fe8576000808191508090509350935061202e565b611ffe600160085461277590919063ffffffff16565b915060078281548110151561200f57fe5b9060005260206000209060020201905080600101548160000154935093505b50509091565b60606000806120416137a3565b600061205361204e6110d1565b6129dd565b9350600560405190808252806020026020018201604052801561209057816020015b61207d6137c5565b8152602001906001900390816120755790505b509450600092505b600583101561213d5784838151811015156120af57fe5b906020019060200201519150600e836005811015156120ca57fe5b6003020190506120e784826000015461296690919063ffffffff16565b82600001818152505061210784826001015461296690919063ffffffff16565b82602001818152505061212a8160020160009054906101000a900460ff16612ea8565b8260400181905250826001019250612098565b5050505090565b600080600481111561215257fe5b600a60009054906101000a900460ff16600481111561216d57fe5b148061219e57506001600481111561218157fe5b600a60009054906101000a900460ff16600481111561219c57fe5b145b806121ce5750600260048111156121b157fe5b600a60009054906101000a900460ff1660048111156121cc57fe5b145b806121fe5750600360048111156121e157fe5b600a60009054906101000a900460ff1660048111156121fc57fe5b145b151561220957600080fd5b61224482612236600a60009054906101000a900460ff16612228612987565b6130af90919063ffffffff16565b61310690919063ffffffff16565b9050919050565b60068054600181600116156101000203166002900480601f0160208091040260200160405190810160405280929190818152602001828054600181600116156101000203166002900480156122e15780601f106122b6576101008083540402835291602001916122e1565b820191906000526020600020905b8154815290600101906020018083116122c457829003601f168201915b505050505081565b600080612308836008546009546007613169909392919063ffffffff16565b91509150915091565b6060600160405190808252806020026020018201604052801561234e57816020015b61233b6137e7565b8152602001906001900390816123335790505b5090508181600081518110151561236157fe5b9060200190602002018190525061237781610a47565b5050565b6000600160008473ffffffffffffffffffffffffffffffffffffffff1673ffffffffffffffffffffffffffffffffffffffff16815260200190815260200160002060008373ffffffffffffffffffffffffffffffffffffffff1673ffffffffffffffffffffffffffffffffffffffff16815260200190815260200160002054905092915050565b6000828260405160200180838152602001828152602001925050506040516020818303038152906040526040518082805190602001908083835b602083101515612461578051825260208201915060208101905060208303925061243c565b6001836020036101000a0380198251168184511680821785525050505050509050019150506040518091039020905092915050565b61249e611b0a565b15156124a957600080fd5b6124b281613265565b50565b60606000806000806000806124c8612987565b95506124df600d548761308590919063ffffffff16565b945094506000600780549050148061251757506007600081548110151561250257fe5b90600052602060002090600202016001015485105b1561252157612625565b6125398560095460076126599092919063ffffffff16565b92506125538460095460076126599092919063ffffffff16565b9150612568838361277590919063ffffffff16565b6040519080825280602002602001820160405280156125a157816020015b61258e6137e7565b8152602001906001900390816125865790505b5096508290505b81811015612624576007818154811015156125bf57fe5b90600052602060002090600202016040805190810160405290816000820154815260200160018201548152505087612600858461277590919063ffffffff16565b81518110151561260c57fe5b906020019060200201819052508060010190506125a8565b5b50505050505090565b600080612650836007805490506009546007613169909392919063ffffffff16565b91509150915091565b6000806000612671848661336190919063ffffffff16565b14151561267d57600080fd5b60008580549050141561269357600091506126f1565b6126c68560008154811015156126a557fe5b9060005260206000209060020201600101548561277590919063ffffffff16565b90506126db838261338690919063ffffffff16565b9150848054905082111515156126f057600080fd5b5b509392505050565b600080600b8054905090506000811415612716576000915061276f565b61275e600d54612750600b600081548110151561272f57fe5b90600052602060002090600a0201600001548661277590919063ffffffff16565b61338690919063ffffffff16565b9150808210151561276e57600080fd5b5b50919050565b60008083831115151561278757600080fd5b82840390508091505092915050565b600060018260010160020154149050919050565b600080600080600086511115156127c057600080fd5b6127f18660008151811015156127d257fe5b906020019060200201516020015186896126599092919063ffffffff16565b935086805490509250600091505b855182101561295d5761281b848361296690919063ffffffff16565b905060008214806128865750858281518110151561283557fe5b9060200190602002015160200151612884868861285c60018761277590919063ffffffff16565b81518110151561286857fe5b906020019060200201516020015161296690919063ffffffff16565b145b151561289157600080fd5b82811115151561289d57fe5b82811415612906578686838151811015156128b457fe5b9060200190602002015190806001815401808255809150509060018203906000526020600020906002020160009091929091909150600082015181600001556020820151816001015550509250612952565b858281518110151561291457fe5b90602001906020020151878281548110151561292c57fe5b906000526020600020906002020160008201518160000155602082015181600101559050505b8160010191506127ff565b50505050505050565b600080828401905083811015151561297d57600080fd5b8091505092915050565b6000600b60055481548110151561299a57fe5b90600052602060002090600a0201905090565b6129d68484846129c6858a6130af90919063ffffffff16565b6133b0909392919063ffffffff16565b5050505050565b6000612a30600c54612a22600d54612a14600d54612a06600c548961277590919063ffffffff16565b61338690919063ffffffff16565b6135aa90919063ffffffff16565b61296690919063ffffffff16565b9050919050565b600080600090505b6005811015612b425782612a7285600e84600581101515612a5c57fe5b600302016000015461296690919063ffffffff16565b11158015612aa75750612aa484600e83600581101515612a8e57fe5b600302016001015461296690919063ffffffff16565b83105b15612b3757600e81600581101515612abb57fe5b6003020160020160009054906101000a900460ff16915060026004811115612adf57fe5b826004811115612aeb57fe5b1480612b0d575060036004811115612aff57fe5b826004811115612b0b57fe5b145b8015612b255750612b24612b1f612987565b612796565b5b15612b2f57600491505b819150612b4d565b806001019050612a3f565b60001515612b4c57fe5b5b5092915050565b6000600b8054809190600101612b6a9190613801565b600581905550600b600554815481101515612b8157fe5b90600052602060002090600a02019050612ba482826135e890919063ffffffff16565b919050565b60008060008060008060008096506000600854141515612bf4576007600854815481101515612bd457fe5b9060005260206000209060020201600101549550612bf186612e07565b96505b600b805490509450600480811115612c0857fe5b896004811115612c1457fe5b141515612c1f578794505b60085493508692505b84831015612ca457600b83815481101515612c3f57fe5b90600052602060002090600a02019150612c5882612796565b15612c9457612c72600d548361308590919063ffffffff16565b915050612c8d8160095460076126599092919063ffffffff16565b9350612c99565b612ca4565b826001019250612c28565b83600881905550505050505050505050565b612cdb82612ccd83866130af90919063ffffffff16565b61360d90919063ffffffff16565b505050565b81600901816040518082805190602001908083835b602083101515612d1a5780518252602082019150602081019050602083039250612cf5565b6001836020036101000a038019825116818451168082178552505050505050905001915050908152602001604051809103902060009054906101000a900460ff16151515612d6757600080fd5b600182600901826040518082805190602001908083835b602083101515612da35780518252602082019150602081019050602083039250612d7e565b6001836020036101000a038019825116818451168082178552505050505050905001915050908152602001604051809103902060006101000a81548160ff021916908315150217905550612e03818360050161367290919063ffffffff16565b5050565b6000612e2d6001612e1f612e1a856129dd565b6126f9565b61296690919063ffffffff16565b9050919050565b6000806000806000612e4589612796565b151515612e5157600080fd5b612e64868a61308590919063ffffffff16565b92509250612e7d83888a6126599092919063ffffffff16565b50612e9382888a6126599092919063ffffffff16565b90506001819450945050505094509492505050565b606060006004811115612eb757fe5b826004811115612ec357fe5b1415612f06576040805190810160405280600681526020017f636f6d6d697400000000000000000000000000000000000000000000000000008152509050613080565b60016004811115612f1357fe5b826004811115612f1f57fe5b1415612f62576040805190810160405280600681526020017f72657665616c00000000000000000000000000000000000000000000000000008152509050613080565b60026004811115612f6f57fe5b826004811115612f7b57fe5b1415612fbe576040805190810160405280600d81526020017f72756e6f666620636f6d6d6974000000000000000000000000000000000000008152509050613080565b60036004811115612fcb57fe5b826004811115612fd757fe5b141561301a576040805190810160405280600d81526020017f72756e6f66662072657665616c000000000000000000000000000000000000008152509050613080565b60048081111561302657fe5b82600481111561303257fe5b1415613075576040805190810160405280600481526020017f77616974000000000000000000000000000000000000000000000000000000008152509050613080565b6000151561307f57fe5b5b919050565b60008061309f83856000015461277590919063ffffffff16565b8460000154915091509250929050565b6000600260048111156130be57fe5b8260048111156130ca57fe5b14806130ec5750600360048111156130de57fe5b8260048111156130ea57fe5b145b6130f957826001016130fe565b826005015b905092915050565b60008260030160008373ffffffffffffffffffffffffffffffffffffffff1673ffffffffffffffffffffffffffffffffffffffff168152602001908152602001600020549050600060010281600019161415151561316357600080fd5b92915050565b600080600080600086148061319d575087600081548110151561318857fe5b90600052602060002090600202016001015487105b156131b4576000808191508090509350935061325a565b6131c860018761277590919063ffffffff16565b915087828154811015156131d857fe5b90600052602060002090600202016001015487101561322d5761322a6132198661320b888b61338690919063ffffffff16565b6135aa90919063ffffffff16565b868a6126599092919063ffffffff16565b91505b878281548110151561323b57fe5b9060005260206000209060020201905080600101548160000154935093505b505094509492505050565b600073ffffffffffffffffffffffffffffffffffffffff168173ffffffffffffffffffffffffffffffffffffffff16141515156132a157600080fd5b8073ffffffffffffffffffffffffffffffffffffffff16600360009054906101000a900473ffffffffffffffffffffffffffffffffffffffff1673ffffffffffffffffffffffffffffffffffffffff167f8be0079c531659141344cd1fd0a4f28419497f9722a3daafe3b4186f6b6457e060405160405180910390a380600360006101000a81548173ffffffffffffffffffffffffffffffffffffffff021916908373ffffffffffffffffffffffffffffffffffffffff16021790555050565b600080821415151561337257600080fd5b818381151561337d57fe5b06905092915050565b60008060008311151561339857600080fd5b82848115156133a357fe5b0490508091505092915050565b6000808560000180549050851015156133c857600080fd5b8560030160003373ffffffffffffffffffffffffffffffffffffffff1673ffffffffffffffffffffffffffffffffffffffff168152602001908152602001600020549150600060010282600019161415151561342357600080fd5b8160001916858560405160200180838152602001828152602001925050506040516020818303038152906040526040518082805190602001908083835b6020831015156134855780518252602082019150602081019050602083039250613460565b6001836020036101000a0380198251168184511680821785525050505050509050019150506040518091039020600019161415156134c257600080fd5b8560030160003373ffffffffffffffffffffffffffffffffffffffff1673ffffffffffffffffffffffffffffffffffffffff1681526020019081526020016000206000905561351e83876001015461296690919063ffffffff16565b8660010181905550856000018581548110151561353757fe5b9060005260206000209060020201905061355e83826000015461296690919063ffffffff16565b816000018190555085600001866002015481548110151561357b57fe5b906000526020600020906002020160000154816000015411156135a2578486600201819055505b505050505050565b60008060008414156135bf57600091506135e1565b82840290508284828115156135d057fe5b041415156135dd57600080fd5b8091505b5092915050565b8082600001819055506135fd826001016136c8565b613609826005016136f1565b5050565b600060010281600019161415151561362457600080fd5b808260030160003373ffffffffffffffffffffffffffffffffffffffff1673ffffffffffffffffffffffffffffffffffffffff16815260200190815260200160002081600019169055505050565b600082600001805480919060010161368a9190613833565b905081836000018281548110151561369e57fe5b906000526020600020906002020160010190805190602001906136c2929190613865565b50505050565b600281600001816136d99190613833565b50600181600201819055506000816001018190555050565b600081600001816137029190613833565b506000816002018190555060008160010181905550613786606060405190810160405280602e81526020017f516d5757515375504d5336615843625a4b70456a504850555a4e324e6a42335981526020017f72684a54487356345833766232740000000000000000000000000000000000008152508261367290919063ffffffff16565b50565b604080519081016040528060008152602001606081525090565b6060604051908101604052806000815260200160008152602001606081525090565b6060604051908101604052806000815260200160008152602001606081525090565b604080519081016040528060008152602001600081525090565b81548183558181111561382e57600a0281600a02836000526020600020918201910161382d91906138e5565b5b505050565b8154818355818111156138605760020281600202836000526020600020918201910161385f919061395a565b5b505050565b828054600181600116156101000203166002900490600052602060002090601f016020900481019282601f106138a657805160ff19168380011785556138d4565b828001600101855582156138d4579182015b828111156138d35782518255916020019190600101906138b8565b5b5090506138e19190613991565b5090565b61395791905b8082111561395357600080820160009055600182016000808201600061391191906139b6565b600182016000905560028201600090555050600582016000808201600061393891906139b6565b60018201600090556002820160009055505050600a016138eb565b5090565b90565b61398e91905b8082111561398a5760008082016000905560018201600061398191906139da565b50600201613960565b5090565b90565b6139b391905b808211156139af576000816000905550600101613997565b5090565b90565b50805460008255600202906000526020600020908101906139d7919061395a565b50565b50805460018160011615610100020316600290046000825580601f10613a005750613a1f565b601f016020900490600052602060002090810190613a1e9190613991565b5b50565b6000613a2e823561438b565b905092915050565b600082601f8301121515613a4957600080fd5b8135613a5c613a5782614268565b61423b565b91508181835260208401935060208101905083856040840282011115613a8157600080fd5b60005b83811015613ab15781613a978882613b39565b845260208401935060408301925050600181019050613a84565b5050505092915050565b6000613ac782356143ab565b905092915050565b6000613adb82356143b5565b905092915050565b600082601f8301121515613af657600080fd5b8135613b09613b0482614290565b61423b565b91508082526020830160208301858383011115613b2557600080fd5b613b308382846143c9565b50505092915050565b600060408284031215613b4b57600080fd5b613b55604061423b565b90506000613b6584828501613acf565b6000830152506020613b7984828501613bd1565b60208301525092915050565b600060408284031215613b9757600080fd5b613ba1604061423b565b90506000613bb184828501613acf565b6000830152506020613bc584828501613bd1565b60208301525092915050565b6000613bdd82356143bf565b905092915050565b600060208284031215613bf757600080fd5b6000613c0584828501613a22565b91505092915050565b60008060408385031215613c2157600080fd5b6000613c2f85828601613a22565b9250506020613c4085828601613a22565b9150509250929050565b600080600060608486031215613c5f57600080fd5b6000613c6d86828701613a22565b9350506020613c7e86828701613a22565b9250506040613c8f86828701613bd1565b9150509250925092565b60008060408385031215613cac57600080fd5b6000613cba85828601613a22565b9250506020613ccb85828601613bd1565b9150509250929050565b600060208284031215613ce757600080fd5b600082013567ffffffffffffffff811115613d0157600080fd5b613d0d84828501613a36565b91505092915050565b600060208284031215613d2857600080fd5b6000613d3684828501613abb565b91505092915050565b600060208284031215613d5157600080fd5b600082013567ffffffffffffffff811115613d6b57600080fd5b613d7784828501613ae3565b91505092915050565b600060408284031215613d9257600080fd5b6000613da084828501613b85565b91505092915050565b600060208284031215613dbb57600080fd5b6000613dc984828501613bd1565b91505092915050565b60008060408385031215613de557600080fd5b6000613df385828601613bd1565b9250506020613e0485828601613bd1565b9150509250929050565b613e1781614341565b82525050565b6000613e28826142e3565b808452602084019350613e3a836142bc565b60005b82811015613e6c57613e50868351613fed565b613e598261431a565b9150604086019550600181019050613e3d565b50849250505092915050565b6000613e83826142ee565b80845260208401935083602082028501613e9c856142c9565b60005b84811015613ed5578383038852613eb783835161401c565b9250613ec282614327565b9150602088019750600181019050613e9f565b508196508694505050505092915050565b6000613ef1826142f9565b80845260208401935083602082028501613f0a856142d6565b60005b84811015613f43578383038852613f25838351614059565b9250613f3082614334565b9150602088019750600181019050613f0d565b508196508694505050505092915050565b613f5d81614361565b82525050565b613f6c8161436d565b82525050565b613f7b81614377565b82525050565b6000613f8c8261430f565b808452613fa08160208601602086016143d8565b613fa98161440b565b602085010191505092915050565b6000613fc282614304565b808452613fd68160208601602086016143d8565b613fdf8161440b565b602085010191505092915050565b6040820160008201516140036000850182613f72565b50602082015161401660208501826140a9565b50505050565b600060408301600083015161403460008601826140a9565b506020830151848203602086015261404c8282613fb7565b9150508091505092915050565b600060608301600083015161407160008601826140a9565b50602083015161408460208601826140a9565b506040830151848203604086015261409c8282613fb7565b9150508091505092915050565b6140b281614381565b82525050565b60006020820190506140cd6000830184613e0e565b92915050565b600060208201905081810360008301526140ed8184613e1d565b905092915050565b6000602082019050818103600083015261410f8184613e78565b905092915050565b600060208201905081810360008301526141318184613ee6565b905092915050565b600060208201905061414e6000830184613f54565b92915050565b60006020820190506141696000830184613f63565b92915050565b60006020820190506141846000830184613f72565b92915050565b600060408201905061419f6000830185613f72565b6141ac60208301846140a9565b9392505050565b600060208201905081810360008301526141cd8184613fb7565b905092915050565b600060208201905081810360008301526141ef8184613f81565b905092915050565b600060208201905061420c60008301846140a9565b92915050565b600060408201905061422760008301856140a9565b6142346020830184613f72565b9392505050565b6000604051905081810181811067ffffffffffffffff8211171561425e57600080fd5b8060405250919050565b600067ffffffffffffffff82111561427f57600080fd5b602082029050602081019050919050565b600067ffffffffffffffff8211156142a757600080fd5b601f19601f8301169050602081019050919050565b6000602082019050919050565b6000602082019050919050565b6000602082019050919050565b600081519050919050565b600081519050919050565b600081519050919050565b600081519050919050565b600081519050919050565b6000602082019050919050565b6000602082019050919050565b6000602082019050919050565b600073ffffffffffffffffffffffffffffffffffffffff82169050919050565b60008115159050919050565b6000819050919050565b6000819050919050565b6000819050919050565b600073ffffffffffffffffffffffffffffffffffffffff82169050919050565b6000819050919050565b6000819050919050565b6000819050919050565b82818337600083830152505050565b60005b838110156143f65780820151818401526020810190506143db565b83811115614405576000848401525b50505050565b6000601f19601f83011690509190505600a265627a7a723058202cbcf3b599118a7dc8ea99cf929098e340b1b592a928305595d511608ed3a4936c6578706572696d656e74616cf50037",
  "source": "/*\n  VoteCoin implementation\n\n  Implements an early version of VoteCoin protocols\n\n  * ERC20 token\n  * Uses Oraclize to fetch ETH/USD exchange rate\n  * Allows users to vote yes/no on whether a price is accurate\n\n*/\npragma solidity >=0.4.24;\n\npragma experimental ABIEncoderV2;\n\nimport \"openzeppelin-solidity/contracts/math/SafeMath.sol\";\nimport \"openzeppelin-solidity/contracts/token/ERC20/ERC20.sol\";\nimport \"./Testable.sol\";\nimport \"./Derivative.sol\";\nimport \"./VoteInterface.sol\";\nimport \"./OracleInterface.sol\";\n\n\nlibrary Poll {\n    using SafeMath for uint;\n    using Poll for Data;\n\n    struct Data {\n        Proposal.Data[] proposals;\n        uint totalVotes;\n        uint currentLeader;\n        mapping(address => bytes32) committedVotes;\n    }\n\n    function _initPrimary(Data storage self) internal {\n        // Primary should have 2 proposals (no and yes).\n        self.proposals.length = 2;\n        self.currentLeader = 1;\n        self.totalVotes = 0;\n    }\n\n    function _initRunoff(Data storage self) internal {\n        self.proposals.length = 0;\n        self.currentLeader = 0;\n        self.totalVotes = 0;\n        // TODO(mrice32): replace this with a real hash once it's added.\n        // Initial proposal is the existing price feed.\n        self._addProposal(\"QmWWQSuPMS6aXCbZKpEjPHPUZN2NjB3YrhJTHsV4X3vb2t\");\n    }\n\n    function _commitVote(Data storage self, bytes32 secretHash) internal {\n        require(secretHash != 0);\n\n        // Allow vote rewrites.\n        self.committedVotes[msg.sender] = secretHash;\n    }\n\n    function _revealVote(Data storage self, uint voteOption, uint salt, uint userBalance) internal {\n        require(voteOption < self.proposals.length);\n\n        bytes32 secretHash = self.committedVotes[msg.sender];\n        require(secretHash != 0);\n        require(keccak256(abi.encodePacked(voteOption, salt)) == secretHash);\n        delete self.committedVotes[msg.sender];\n\n        self.totalVotes = self.totalVotes.add(userBalance);\n\n        // Incremental max: tiebreaker goes to the first proposal to reach the value.\n        Proposal.Data storage proposal = self.proposals[voteOption];\n        proposal.numVotes = proposal.numVotes.add(userBalance);\n        if (proposal.numVotes > self.proposals[self.currentLeader].numVotes) {\n            self.currentLeader = voteOption;\n        }\n    }\n\n    function _addProposal(Data storage self, string ipfsHash) internal {\n        uint idx = self.proposals.length++;\n        self.proposals[idx].ipfsHash = ipfsHash;\n    }\n\n    function _getCommittedVote(Data storage self, address voter) internal view returns (bytes32 secretHash) {\n        secretHash = self.committedVotes[voter];\n        require(secretHash != 0);\n    }\n}\n\n\nlibrary VotePeriod {\n    using SafeMath for uint;\n    using Poll for Poll.Data;\n    using PriceTime for PriceTime.Data[];\n    using VotePeriod for Data;\n\n    enum PeriodType {\n        Commit,\n        Reveal,\n        RunoffCommit,\n        RunoffReveal,\n        Wait\n    }\n\n    struct Data {\n        uint startTime;\n        Poll.Data primaryPoll;\n        Poll.Data runoffPoll;\n\n        // Set to prevent the same IPFS hash from being proposed twice.\n        mapping(string => bool) ipfsHashSet;\n    }\n\n    function _proposeFeed(Data storage self, string ipfsHash) internal {\n        require(!self.ipfsHashSet[ipfsHash]);\n        self.ipfsHashSet[ipfsHash] = true;\n        self.runoffPoll._addProposal(ipfsHash);\n    }\n\n    function _init(Data storage self, uint startTime) internal {\n        self.startTime = startTime;\n        self.primaryPoll._initPrimary();\n        self.runoffPoll._initRunoff();\n    }\n\n    function _commitVote(Data storage self, bytes32 secretHash, PeriodType period) internal {\n        self._getVotingPoll(period)._commitVote(secretHash);\n    }\n\n    function _revealVote(Data storage self, uint voteOption, uint salt, uint userBalance, PeriodType period) internal {\n        self._getVotingPoll(period)._revealVote(voteOption, salt, userBalance);\n    }\n\n    function _getVotingPoll(Data storage self, PeriodType period) internal view returns (Poll.Data storage poll) {\n        return (period == PeriodType.RunoffCommit || period == PeriodType.RunoffReveal\n            ? self.runoffPoll : self.primaryPoll);\n    }\n\n    function _verifyPrices(\n        Data storage self,\n        PriceTime.Data[] storage unverifiedPrices,\n        uint interval,\n        uint voteDuration\n    )\n        internal\n        view\n        returns (bool success, uint newFirstUnverifiedIndex)\n    {\n        require(!self._skipRunoff());\n        (uint startTime, uint endTime) = self._getPricePeriod(voteDuration);\n\n        // uint startIndex =\n        unverifiedPrices._getIndex(startTime, interval);\n        uint endIndex = unverifiedPrices._getIndex(endTime, interval);\n        \n        // TODO(mrice32): do ipfs hash verification here.\n        return (true, endIndex);\n    }\n\n    function _getVotingPeriod(Data storage self, uint voteDuration)\n        internal\n        view\n        returns (uint startTime, uint endTime)\n    {\n        return (self.startTime, self.startTime.add(voteDuration));\n    }\n\n    function _getPricePeriod(Data storage self, uint voteDuration)\n        internal\n        view\n        returns (uint startTime, uint endTime)\n    {\n        return (self.startTime.sub(voteDuration), self.startTime);\n    }\n\n    function _skipRunoff(Data storage self) internal view returns (bool skipRunoff) {\n        return self.primaryPoll.currentLeader == 1;\n    }\n}\n\n\ncontract VoteCoin is ERC20, VoteInterface, OracleInterface, Testable {\n\n    // Note: SafeMath only works for uints right     using SafeMath for uint;\n    using VotePeriod for VotePeriod.Data;\n    using Poll for Poll.Data;\n    using PriceTime for PriceTime.Data[];\n\n    uint public currentVotePeriodIndex;\n\n    string public product;\n\n    PriceTime.Data[] public unverifiedPrices;\n    uint public firstUnverifiedIndex;\n    uint public priceInterval;\n\n    VotePeriod.PeriodType private period;\n\n    VotePeriod.Data[] private votePeriods;\n\n    uint private constant SECONDS_PER_WEEK = 604800;\n    // uint private constant MONDAY_EPOCH_EST_OFFSET = 327600;\n    uint private constant MONDAY_EPOCH_EST_OFFSET = 345600;\n    uint private constant SECONDS_PER_DAY = 86400;\n\n    uint private epochOffset;\n    uint private totalVotingDuration;\n\n    struct PeriodTiming {\n        uint startOffset;\n        uint endOffset;\n        VotePeriod.PeriodType state;\n    }\n\n    PeriodTiming[5] private periodTimings;\n\n    constructor(string _product, uint _priceInterval, bool isTest) public Testable(isTest) {\n        _mint(msg.sender, 10000);\n        product = _product;\n        priceInterval = _priceInterval;\n        \n        // TODO(mrice32): make these input variables.\n        uint commitDuration = SECONDS_PER_DAY;\n        uint revealDuration = SECONDS_PER_DAY;\n        uint runoffCommitDuration = SECONDS_PER_DAY;\n        uint runoffRevealDuration = SECONDS_PER_DAY;\n\n        epochOffset = MONDAY_EPOCH_EST_OFFSET;\n        totalVotingDuration = SECONDS_PER_WEEK;\n\n        uint index = 0;\n        uint startOffset = 0;\n        (periodTimings[index++], startOffset) = _initPeriodTiming(startOffset, commitDuration,\n            VotePeriod.PeriodType.Commit);\n        (periodTimings[index++], startOffset) = _initPeriodTiming(startOffset, revealDuration,\n            VotePeriod.PeriodType.Reveal);\n        (periodTimings[index++], startOffset) = _initPeriodTiming(startOffset, runoffCommitDuration,\n            VotePeriod.PeriodType.RunoffCommit);\n        (periodTimings[index++], startOffset) = _initPeriodTiming(startOffset, runoffRevealDuration,\n            VotePeriod.PeriodType.RunoffReveal);\n        (periodTimings[index++], startOffset) = _initPeriodTiming(startOffset, totalVotingDuration.sub(startOffset),\n            VotePeriod.PeriodType.Wait);\n\n        uint time = getCurrentTime();\n\n        // Ensure that voting periods start and end exactly on price publishing points to establish predictable price\n        // stream sizes and start points.\n        require(_getStartOfPeriod(time).mod(_priceInterval) == 0 && totalVotingDuration.mod(_priceInterval) == 0);\n\n        _newVotePeriod(_getStartOfPeriod(time));\n\n        checkTimeAndUpdateState();\n    }\n\n    function computeHash(uint voteOption, uint salt) public pure returns (bytes32 hash) {\n        return keccak256(abi.encodePacked(voteOption, salt));\n    }\n\n    function commitVote(bytes32 secretHash) public {\n        checkTimeAndUpdateState();\n        require(period == VotePeriod.PeriodType.Commit || period == VotePeriod.PeriodType.RunoffCommit);\n\n        _getCurrentVotePeriod()._commitVote(secretHash, period);\n    }\n\n    // TODO(mrice32): maybe we should force the user to encode the proposal IPFS hash into their secretHash rather than\n    // the index of the option to be sure they're aware of what they're voting for.\n    function revealVote(uint voteOption, uint salt) public {\n        checkTimeAndUpdateState();\n        require(period == VotePeriod.PeriodType.Reveal || period == VotePeriod.PeriodType.RunoffReveal);\n\n        // TODO(mrice32): add snapshotting here.\n        _getCurrentVotePeriod()._revealVote(voteOption, salt, balanceOf(msg.sender), period);\n    }\n\n    function proposeFeed(string ipfsHash) public {\n        checkTimeAndUpdateState();\n        require(period == VotePeriod.PeriodType.Commit || period == VotePeriod.PeriodType.Reveal);\n\n        _getCurrentVotePeriod()._proposeFeed(ipfsHash);\n    }\n\n    function addUnverifiedPrice(PriceTime.Data priceTime) public {\n        PriceTime.Data[] memory priceTimes = new PriceTime.Data[](1);\n        priceTimes[0] = priceTime;\n        addUnverifiedPrices(priceTimes);\n    }\n\n    function getProposals() public view returns (Proposal.Data[] proposals) {\n        uint time = getCurrentTime();\n        uint computedStartTime = _getStartOfPeriod(time);\n\n        VotePeriod.Data storage votePeriod = _getCurrentVotePeriod();\n        if (computedStartTime == votePeriod.startTime) {\n            Poll.Data storage poll = votePeriod.runoffPoll;\n            proposals = poll.proposals;\n        } else {\n            return new Proposal.Data[](0);\n        }\n    }\n\n    function getCurrentCommitRevealPeriods() public view returns (Period[] memory periods) {\n        uint startOfPeriod = _getStartOfPeriod(getCurrentTime());\n        periods = new Period[](periodTimings.length);\n        for (uint i = 0; i < periodTimings.length; ++i) {\n            Period memory timePeriod = periods[i];\n            PeriodTiming storage periodTiming = periodTimings[i];\n            timePeriod.startTime = periodTiming.startOffset.add(startOfPeriod);\n            timePeriod.endTime = periodTiming.endOffset.add(startOfPeriod);\n            timePeriod.state = _getStringPeriodType(periodTiming.state);\n        }\n    }\n\n    function getCurrentPeriodType() public view returns (string periodType) {\n        uint currentTime = getCurrentTime();\n        return _getStringPeriodType(_getPeriodType(_getStartOfPeriod(currentTime), currentTime));\n    }\n\n    function getProduct() public view returns (string _product) {\n        return product;\n    }\n\n    function getDefaultProposalPrices() public view returns (PriceTime.Data[] prices) {\n        // TODO(mrice32): we may want to subtract some time offset to ensure all unverifiedPrices being voted on are\n        // in before the voting period starts.\n        // Note: this will fail if the entire voting period of prices previous do not exist.\n        VotePeriod.Data storage votePeriod = _getCurrentVotePeriod();\n        (uint startTime, uint endTime) = votePeriod._getPricePeriod(totalVotingDuration);\n        if (unverifiedPrices.length == 0 || startTime < unverifiedPrices[0].time) {\n            return;\n        }\n        uint startIndex = unverifiedPrices._getIndex(startTime, priceInterval);\n\n        // Note: endIndex is non-inclusive.\n        uint endIndex = unverifiedPrices._getIndex(endTime, priceInterval);\n\n        prices = new PriceTime.Data[](endIndex.sub(startIndex));\n        for (uint i = startIndex; i < endIndex; ++i) {\n            prices[i.sub(startIndex)] = unverifiedPrices[i];\n        }\n    }\n\n    function getDefaultProposedPriceAtTime(uint time) public view returns (int256 price) {\n        VotePeriod.Data storage votePeriod = _getCurrentVotePeriod();\n        (uint startTime, uint endTime) = votePeriod._getPricePeriod(totalVotingDuration);\n        require(time >= startTime && time < endTime);\n        uint index = unverifiedPrices._getIndex(time, priceInterval);\n        require(index < unverifiedPrices.length);\n\n        return unverifiedPrices[index].price;\n    }\n\n    function getCommittedVoteForUser(address voter) public view returns (bytes32 secretHash) {\n        require(period == VotePeriod.PeriodType.Commit\n            || period == VotePeriod.PeriodType.Reveal\n            || period == VotePeriod.PeriodType.RunoffCommit\n            || period == VotePeriod.PeriodType.RunoffReveal);\n\n        return _getCurrentVotePeriod()._getVotingPoll(period)._getCommittedVote(voter);\n    }\n\n    function latestUnverifiedPrice() public view returns (uint publishTime, int256 price) {\n        uint currentLength = unverifiedPrices.length;\n        if (currentLength == 0) {\n            return (0, 0);\n        }\n\n        PriceTime.Data storage priceTime = unverifiedPrices[currentLength.sub(1)];\n        return (priceTime.time, priceTime.price);\n    }\n\n    function latestVerifiedPrice() public view returns (uint publishTime, int256 price) {\n        if (firstUnverifiedIndex == 0) {\n            return (0, 0);\n        }\n\n        uint lastVerifiedIndex = firstUnverifiedIndex.sub(1);\n        PriceTime.Data storage priceTime = unverifiedPrices[lastVerifiedIndex];\n        return (priceTime.time, priceTime.price);\n    }\n\n    function unverifiedPrice(uint time) public view returns (uint publishTime, int256 price) {\n        return unverifiedPrices._getBestPriceTimeForTime(time, unverifiedPrices.length, priceInterval);\n    }\n\n    function verifiedPrice(uint time) public view returns (uint publishTime, int256 price) {\n        return unverifiedPrices._getBestPriceTimeForTime(time, firstUnverifiedIndex, priceInterval);\n    }\n\n    function validatePrices() public {\n        require(unverifiedPrices.length > firstUnverifiedIndex);\n        checkTimeAndUpdateState();\n        uint idx = _getVotePeriodIndexForPriceTime(unverifiedPrices[firstUnverifiedIndex].time);\n        VotePeriod.Data storage votePeriod = votePeriods[idx];\n        if (votePeriod._skipRunoff()) {\n            _commitPrices(period, currentVotePeriodIndex);\n        } else {\n            (bool success, uint newFirstUnverifiedIndex) = votePeriod._verifyPrices(\n                unverifiedPrices,\n                priceInterval,\n                totalVotingDuration\n            );\n\n            firstUnverifiedIndex = newFirstUnverifiedIndex;\n\n            require(success);\n        }\n    }\n\n    function addUnverifiedPrices(PriceTime.Data[] memory priceTimes) public onlyOwner {\n        require(priceTimes.length > 0);\n        checkTimeAndUpdateState();\n\n        uint currentLength = unverifiedPrices.length;\n\n        // We don't need to do any checks if we're appending to the end - this is always allowed.\n        if (currentLength != 0 && unverifiedPrices[currentLength - 1].time >= priceTimes[0].time) {\n\n            // Verified prices cannot be changed.\n            require(unverifiedPrices._getIndex(priceTimes[0].time, priceInterval) >= firstUnverifiedIndex);\n\n\n            uint startVotePeriod = _getVotePeriodIndexForStartTime(priceTimes[0].time);\n            uint endVotePeriod = _getVotePeriodIndexForStartTime(priceTimes[priceTimes.length.sub(1)].time);\n            for (uint i = startVotePeriod; i <= endVotePeriod; ++i) {\n                if (i <= currentVotePeriodIndex) {\n                    // Must be trying to change the prices to the winner of the price feed.\n                    require(!votePeriods[i]._skipRunoff());\n\n                    if (i == currentVotePeriodIndex) {\n                        // If this is the current vote period, ensure that we're in the wait portion\n                        require(period == VotePeriod.PeriodType.Wait);\n                    }\n                }\n            }\n\n        }\n\n\n        unverifiedPrices._mergeArray(priceTimes, priceInterval);\n    }\n\n    function checkTimeAndUpdateState() public {\n        uint time = getCurrentTime();\n        uint computedStartTime = _getStartOfPeriod(time);\n\n        VotePeriod.PeriodType newPeriod = _getPeriodType(computedStartTime, time);\n\n        VotePeriod.Data storage currentVotePeriod = _getCurrentVotePeriod();\n\n        bool shouldCommitPrices = false;\n\n        if (computedStartTime != currentVotePeriod.startTime) {\n            shouldCommitPrices = true;\n\n            _newVotePeriod(computedStartTime);\n        }\n\n        if (period != newPeriod) {\n            if (newPeriod == VotePeriod.PeriodType.Wait && currentVotePeriod._skipRunoff()) {\n                shouldCommitPrices = true;\n            }\n            period = newPeriod;\n        }\n\n        if (shouldCommitPrices) {\n            _commitPrices(newPeriod, currentVotePeriodIndex);\n        }\n\n    }\n\n    function _getStartOfPeriod(uint timestamp) private view returns (uint) {\n        return timestamp.sub(epochOffset).div(totalVotingDuration).mul(totalVotingDuration).add(epochOffset);\n    }\n\n    function _getStringPeriodType(VotePeriod.PeriodType periodType) private pure returns (string stringPeriodType) {\n        if (periodType == VotePeriod.PeriodType.Commit) {\n            return \"commit\";\n        } else if (periodType == VotePeriod.PeriodType.Reveal) {\n            return \"reveal\";\n        } else if (periodType == VotePeriod.PeriodType.RunoffCommit) {\n            return \"runoff commit\";\n        } else if (periodType == VotePeriod.PeriodType.RunoffReveal) {\n            return \"runoff reveal\";\n        } else if (periodType == VotePeriod.PeriodType.Wait) {\n            return \"wait\";\n        } else {\n            assert(false);\n        }\n    }\n\n    function _initPeriodTiming(uint startOffset, uint duration, VotePeriod.PeriodType periodType)\n        private\n        view\n        returns (PeriodTiming periodTiming, uint nextStartOffset)\n    {\n        periodTiming.startOffset = startOffset;\n        periodTiming.endOffset = startOffset.add(duration);\n        require(periodTiming.endOffset <= totalVotingDuration);\n        periodTiming.state = periodType;\n        nextStartOffset = periodTiming.endOffset;\n    }\n\n    function _getPeriodType(uint votePeriodStartTime, uint currentTime)\n        private\n        view\n        returns (VotePeriod.PeriodType periodType)\n    {\n        for (uint i = 0; i < periodTimings.length; ++i) {\n            if (periodTimings[i].startOffset.add(votePeriodStartTime) <= currentTime\n                && currentTime < periodTimings[i].endOffset.add(votePeriodStartTime)) {\n                periodType = periodTimings[i].state;\n                if ((periodType == VotePeriod.PeriodType.RunoffCommit\n                    || periodType == VotePeriod.PeriodType.RunoffReveal)\n                    && _getCurrentVotePeriod()._skipRunoff()) {\n                    periodType = VotePeriod.PeriodType.Wait;\n                }\n                return periodType;\n            }\n        }\n\n        assert(false);\n    }\n\n    function _newVotePeriod(uint startTime) private returns (VotePeriod.Data storage votePeriod) {\n        currentVotePeriodIndex = votePeriods.length++;\n        votePeriod = votePeriods[currentVotePeriodIndex];\n        votePeriod._init(startTime);\n    }\n\n    function _commitPrices(VotePeriod.PeriodType newPeriodType, uint newVoteIndex) private {\n        uint startIdx = 0;\n        if (firstUnverifiedIndex != 0) {\n            uint firstUnverifiedTime = unverifiedPrices[firstUnverifiedIndex].time;\n            startIdx = _getVotePeriodIndexForPriceTime(firstUnverifiedTime);\n        }\n\n        uint endIdx = votePeriods.length;\n        if (newPeriodType != VotePeriod.PeriodType.Wait) {\n            endIdx = newVoteIndex;\n        }\n\n        uint newFirstUnverifiedIndex = firstUnverifiedIndex;\n\n        for (uint idx = startIdx; idx < endIdx; ++idx) {\n            VotePeriod.Data storage votePeriod = votePeriods[idx];\n            if (votePeriod._skipRunoff()) {\n                (, uint endTime) = votePeriod._getPricePeriod(totalVotingDuration);\n                newFirstUnverifiedIndex = unverifiedPrices._getIndex(endTime, priceInterval);\n            } else {\n                break;\n            }\n        }\n\n        firstUnverifiedIndex = newFirstUnverifiedIndex;\n    }\n\n    function _getVotePeriodIndexForStartTime(uint startTime) private view returns (uint index) {\n        uint currentLength = votePeriods.length;\n        if (currentLength == 0) {\n            index = 0;\n        } else {\n            index = startTime.sub(votePeriods[0].startTime).div(totalVotingDuration);\n            require(index < currentLength);\n        }\n    }\n\n    function _getCurrentVotePeriod() private view returns (VotePeriod.Data storage votePeriod) {\n        return votePeriods[currentVotePeriodIndex];\n    }\n\n    function _getVotePeriodIndexForPriceTime(uint time) private view returns (uint index) {\n        return _getVotePeriodIndexForStartTime(_getStartOfPeriod(time)).add(1);\n    }\n}\n",
  "sourcePath": "/Users/matt/git/protocol/contracts/Vote.sol",
  "compiler": {
    "name": "solc",
    "version": "0.4.25+commit.59dbf8f1.Emscripten.clang"
  },
  "schemaVersion": "3.0.0-beta.2",
  "updatedAt": "2018-12-13T19:05:45.039Z",
  "devdoc": {
    "methods": {
      "allowance(address,address)": {
        "details": "Function to check the amount of tokens that an owner allowed to a spender.",
        "params": {
          "owner": "address The address which owns the funds.",
          "spender": "address The address which will spend the funds."
        },
        "return": "A uint256 specifying the amount of tokens still available for the spender."
      },
      "approve(address,uint256)": {
        "details": "Approve the passed address to spend the specified amount of tokens on behalf of msg.sender. Beware that changing an allowance with this method brings the risk that someone may use both the old and the new allowance by unfortunate transaction ordering. One possible solution to mitigate this race condition is to first reduce the spender's allowance to 0 and set the desired value afterwards: https://github.com/ethereum/EIPs/issues/20#issuecomment-263524729",
        "params": {
          "spender": "The address which will spend the funds.",
          "value": "The amount of tokens to be spent."
        }
      },
      "balanceOf(address)": {
        "details": "Gets the balance of the specified address.",
        "params": {
          "owner": "The address to query the the balance of."
        },
        "return": "An uint256 representing the amount owned by the passed address."
      },
      "decreaseAllowance(address,uint256)": {
        "details": "Decrease the amount of tokens that an owner allowed to a spender. approve should be called when allowed_[_spender] == 0. To decrement allowed value is better to use this function to avoid 2 calls (and wait until the first transaction is mined) From MonolithDAO Token.sol",
        "params": {
          "spender": "The address which will spend the funds.",
          "subtractedValue": "The amount of tokens to decrease the allowance by."
        }
      },
      "increaseAllowance(address,uint256)": {
        "details": "Increase the amount of tokens that an owner allowed to a spender. approve should be called when allowed_[_spender] == 0. To increment allowed value is better to use this function to avoid 2 calls (and wait until the first transaction is mined) From MonolithDAO Token.sol",
        "params": {
          "addedValue": "The amount of tokens to increase the allowance by.",
          "spender": "The address which will spend the funds."
        }
      },
      "isOwner()": {
        "return": "true if `msg.sender` is the owner of the contract."
      },
      "owner()": {
        "return": "the address of the owner."
      },
      "renounceOwnership()": {
        "details": "Allows the current owner to relinquish control of the contract."
      },
      "totalSupply()": {
        "details": "Total number of tokens in existence"
      },
      "transfer(address,uint256)": {
        "details": "Transfer token for a specified address",
        "params": {
          "to": "The address to transfer to.",
          "value": "The amount to be transferred."
        }
      },
      "transferFrom(address,address,uint256)": {
        "details": "Transfer tokens from one address to another",
        "params": {
          "from": "address The address which you want to send tokens from",
          "to": "address The address which you want to transfer to",
          "value": "uint256 the amount of tokens to be transferred"
        }
      },
      "transferOwnership(address)": {
        "details": "Allows the current owner to transfer control of the contract to a newOwner.",
        "params": {
          "newOwner": "The address to transfer ownership to."
        }
      }
    }
  },
  "userdoc": {
    "methods": {
      "renounceOwnership()": {
        "notice": "Renouncing to ownership will leave the contract without an owner. It will not be possible to call the functions with the `onlyOwner` modifier anymore."
      }
    }
  }
}